Component: ARM Compiler 6.16 Tool: armlink [5dfeaa00]

==============================================================================

Section Cross References

    startup_stm32h7b0xx.o(STACK) refers (Special) to heapauxi.o(.text) for __use_two_region_memory
    startup_stm32h7b0xx.o(HEAP) refers (Special) to heapauxi.o(.text) for __use_two_region_memory
    startup_stm32h7b0xx.o(RESET) refers (Special) to heapauxi.o(.text) for __use_two_region_memory
    startup_stm32h7b0xx.o(RESET) refers to startup_stm32h7b0xx.o(STACK) for __initial_sp
    startup_stm32h7b0xx.o(RESET) refers to startup_stm32h7b0xx.o(.text) for Reset_Handler
    startup_stm32h7b0xx.o(RESET) refers to stm32h7xx_it.o(.text.NMI_Handler) for NMI_Handler
    startup_stm32h7b0xx.o(RESET) refers to stm32h7xx_it.o(.text.HardFault_Handler) for HardFault_Handler
    startup_stm32h7b0xx.o(RESET) refers to stm32h7xx_it.o(.text.MemManage_Handler) for MemManage_Handler
    startup_stm32h7b0xx.o(RESET) refers to stm32h7xx_it.o(.text.BusFault_Handler) for BusFault_Handler
    startup_stm32h7b0xx.o(RESET) refers to stm32h7xx_it.o(.text.UsageFault_Handler) for UsageFault_Handler
    startup_stm32h7b0xx.o(RESET) refers to port.o(.text.SVC_Handler) for SVC_Handler
    startup_stm32h7b0xx.o(RESET) refers to stm32h7xx_it.o(.text.DebugMon_Handler) for DebugMon_Handler
    startup_stm32h7b0xx.o(RESET) refers to port.o(.text.PendSV_Handler) for PendSV_Handler
    startup_stm32h7b0xx.o(RESET) refers to stm32h7xx_it.o(.text.SysTick_Handler) for SysTick_Handler
    startup_stm32h7b0xx.o(RESET) refers to stm32h7xx_it.o(.text.DMA1_Stream2_IRQHandler) for DMA1_Stream2_IRQHandler
    startup_stm32h7b0xx.o(RESET) refers to stm32h7xx_it.o(.text.TIM2_IRQHandler) for TIM2_IRQHandler
    startup_stm32h7b0xx.o(RESET) refers to stm32h7xx_it.o(.text.USART1_IRQHandler) for USART1_IRQHandler
    startup_stm32h7b0xx.o(RESET) refers to stm32h7xx_it.o(.text.OTG_HS_IRQHandler) for OTG_HS_IRQHandler
==============================================================================

Removing Unused input sections from the image.

    Removing os_task_led.o(.text), (0 bytes).
    Removing os_task_led.o(.ARM.exidx.text.task_led), (8 bytes).
    Removing os_task_rtc.o(.text), (0 bytes).
    Removing os_task_rtc.o(.ARM.exidx.text.task_rtc), (8 bytes).
    Removing os_task_start.o(.text), (0 bytes).
    Removing os_task_start.o(.ARM.exidx.text.task_start), (8 bytes).
    Removing os_task_lvgl_tick.o(.text), (0 bytes).
    Removing os_task_lvgl_tick.o(.ARM.exidx.text.task_lvgl_thread), (8 bytes).
    Removing lcd_pwm.o(.text), (0 bytes).
    Removing lcd_pwm.o(.ARM.exidx.text.LCD_PwmSetPulse), (8 bytes).
    Removing lcd_pwm.o(.ARM.exidx.text.LCD_PWMinit), (8 bytes).
    Removing lcd_rgb.o(.text), (0 bytes).
    Removing lcd_rgb.o(.text.LCD_GPIO_Init), (54 bytes).
    Removing lcd_rgb.o(.ARM.exidx.text.LCD_GPIO_Init), (8 bytes).
    Removing lcd_rgb.o(.ARM.exidx.text.LDC_Init), (8 bytes).
    Removing lcd_rgb.o(.text.LCD_CopyBuffer), (94 bytes).
    Removing lcd_rgb.o(.ARM.exidx.text.LCD_CopyBuffer), (8 bytes).
    Removing lcd_rgb.o(.text.HAL_LTDC_MspInit1), (322 bytes).
==============================================================================

Image Symbol Table

    Local Symbols

    Symbol Name                              Value     Ov Type        Size  Object(Section)

    ../clib/angel/boardlib.s                 0x00000000   Number         0  boardinit1.o ABSOLUTE
    ../clib/angel/boardlib.s                 0x00000000   Number         0  boardinit2.o ABSOLUTE
    ../clib/angel/boardlib.s                 0x00000000   Number         0  boardinit3.o ABSOLUTE
    ../clib/angel/boardlib.s                 0x00000000   Number         0  boardshut.o ABSOLUTE
    ../clib/angel/dczerorl2.s                0x00000000   Number         0  __dczerorl2.o ABSOLUTE
    ../clib/angel/handlers.s                 0x00000000   Number         0  __scatter_zi.o ABSOLUTE
    ../clib/angel/kernel.s                   0x00000000   Number         0  __rtentry.o ABSOLUTE
    ../clib/angel/kernel.s                   0x00000000   Number         0  __rtentry2.o ABSOLUTE
    ../clib/angel/kernel.s                   0x00000000   Number         0  __rtentry4.o ABSOLUTE
    ../clib/angel/kernel.s                   0x00000000   Number         0  rtexit.o ABSOLUTE
    ../clib/angel/kernel.s                   0x00000000   Number         0  rtexit2.o ABSOLUTE
    ../clib/angel/rt.s                       0x00000000   Number         0  rt_ctype_table.o ABSOLUTE
    ../clib/angel/rt.s                       0x00000000   Number         0  aeabi_ldiv0.o ABSOLUTE
    ../clib/angel/rt.s                       0x00000000   Number         0  aeabi_ldiv0_sigfpe.o ABSOLUTE
    ../clib/angel/rt.s                       0x00000000   Number         0  rt_heap_descriptor.o ABSOLUTE
    ../clib/angel/rt.s                       0x00000000   Number         0  rt_heap_descriptor_intlibspace.o ABSOLUTE
    ../clib/angel/rt.s                       0x00000000   Number         0  rt_div0.o ABSOLUTE
    ../clib/angel/rt.s                       0x00000000   Number         0  rt_locale.o ABSOLUTE
    ../clib/angel/rt.s                       0x00000000   Number         0  rt_locale_intlibspace.o ABSOLUTE
    ../clib/angel/rt.s                       0x00000000   Number         0  rt_errno_addr.o ABSOLUTE
    ../clib/angel/rt.s                       0x00000000   Number         0  rt_errno_addr_intlibspace.o ABSOLUTE
    ../clib/angel/rt.s                       0x00000000   Number         0  rt_raise.o ABSOLUTE
    ../clib/angel/scatter.s                  0x00000000   Number         0  __scatter.o ABSOLUTE
    ../clib/angel/startup.s                  0x00000000   Number         0  __main.o ABSOLUTE
    ../clib/angel/sys.s                      0x00000000   Number         0  mutex_dummy.o ABSOLUTE
    ../clib/angel/sys.s                      0x00000000   Number         0  libspace.o ABSOLUTE
    ../clib/angel/sys.s                      0x00000000   Number         0  use_no_semi.o ABSOLUTE
    ../clib/angel/sys.s                      0x00000000   Number         0  indicate_semi.o ABSOLUTE
    ../clib/angel/sys.s                      0x00000000   Number         0  sys_stackheap_outer.o ABSOLUTE
    ../clib/angel/sysapp.c                   0x00000000   Number         0  sys_wrch.o ABSOLUTE
    ../clib/angel/sysapp.c                   0x00000000   Number         0  sys_command.o ABSOLUTE
    ../clib/angel/sysapp.c                   0x00000000   Number         0  sys_exit.o ABSOLUTE
    ../clib/angel/sysapp.c                   0x00000000   Number         0  sys_wrch_hlt.o ABSOLUTE
    ../clib/angel/sysapp.c                   0x00000000   Number         0  sys_command_hlt.o ABSOLUTE
    ../clib/angel/sysapp.c                   0x00000000   Number         0  sys_exit_hlt.o ABSOLUTE
    ../clib/armsys.c                         0x00000000   Number         0  _get_argv.o ABSOLUTE
    ../clib/armsys.c                         0x00000000   Number         0  argv_veneer.o ABSOLUTE
    ../clib/armsys.c                         0x00000000   Number         0  argv_veneer.o ABSOLUTE
    ../clib/armsys.c                         0x00000000   Number         0  _get_argv_nomalloc.o ABSOLUTE
    ../clib/armsys.c                         0x00000000   Number         0  no_argv.o ABSOLUTE
    ../clib/assert.c                         0x00000000   Number         0  assert.o ABSOLUTE
    ../clib/assert.c                         0x00000000   Number         0  assert_puts.o ABSOLUTE
    ../clib/assert.c                         0x00000000   Number         0  assert_stdio.o ABSOLUTE
    ../clib/bigflt.c                         0x00000000   Number         0  bigflt0.o ABSOLUTE
    ../clib/btod.s                           0x00000000   Number         0  btod.o ABSOLUTE
    ../clib/btod_accurate.c                  0x00000000   Number         0  btod_accurate.o ABSOLUTE
    ../clib/btod_accurate.c                  0x00000000   Number         0  dtob_accurate.o ABSOLUTE
    ../clib/btod_accurate.c                  0x00000000   Number         0  btod_accurate_common.o ABSOLUTE
    ../clib/ctype.c                          0x00000000   Number         0  tolower.o ABSOLUTE
    ../clib/ctype.c                          0x00000000   Number         0  isspace.o ABSOLUTE
    ../clib/fenv.c                           0x00000000   Number         0  _rserrno.o ABSOLUTE
    ../clib/heap1.c                          0x00000000   Number         0  h1_alloc.o ABSOLUTE
    ../clib/heap1.c                          0x00000000   Number         0  h1_free.o ABSOLUTE
    ../clib/heap1.c                          0x00000000   Number         0  h1_realloc.o ABSOLUTE
    ../clib/heap1.c                          0x00000000   Number         0  h1_alloc_threads.o ABSOLUTE
    ../clib/heap1.c                          0x00000000   Number         0  h1_free_threads.o ABSOLUTE
    ../clib/heap1.c                          0x00000000   Number         0  h1_realloc_threads.o ABSOLUTE
    ../clib/heap1.c                          0x00000000   Number         0  h1_init.o ABSOLUTE
    ../clib/heap1.c                          0x00000000   Number         0  h1_init_threads.o ABSOLUTE
    ../clib/heap1.c                          0x00000000   Number         0  h1_extend.o ABSOLUTE
    ../clib/heap1.c                          0x00000000   Number         0  h1_extend_threads.o ABSOLUTE
    ../clib/heap1.c                          0x00000000   Number         0  h1_final.o ABSOLUTE
    ../clib/heap1.c                          0x00000000   Number         0  h1_final_threads.o ABSOLUTE
    ../clib/heap2.c                          0x00000000   Number         0  heap2.o ABSOLUTE
    ../clib/heap2.c                          0x00000000   Number         0  heap2_threads.o ABSOLUTE
    ../clib/heap2.c                          0x00000000   Number         0  fdtree.o ABSOLUTE
    ../clib/heapalloc.c                      0x00000000   Number         0  malloc.o ABSOLUTE
    ../clib/heapalloc.c                      0x00000000   Number         0  free.o ABSOLUTE
    ../clib/heapalloc.c                      0x00000000   Number         0  realloc.o ABSOLUTE
    ../clib/heapalloc.c                      0x00000000   Number         0  hguard.o ABSOLUTE
    ../clib/heapalloc.c                      0x00000000   Number         0  init_alloc.o ABSOLUTE
    ../clib/heapalloc.c                      0x00000000   Number         0  heapstubs.o ABSOLUTE
    ../clib/heapalloc.c                      0x00000000   Number         0  hrguard.o ABSOLUTE
    ../clib/heapalloc.c                      0x00000000   Number         0  term_alloc.o ABSOLUTE
    ../clib/heapaux.c                        0x00000000   Number         0  heapauxi.o ABSOLUTE
    ../clib/heapaux.c                        0x00000000   Number         0  heapauxa.o ABSOLUTE
    ../clib/libinit.s                        0x00000000   Number         0  libinit2.o ABSOLUTE
    ../clib/libinit.s                        0x00000000   Number         0  libinit.o ABSOLUTE
    ../clib/libinit.s                        0x00000000   Number         0  libshutdown2.o ABSOLUTE
    ../clib/libinit.s                        0x00000000   Number         0  libshutdown.o ABSOLUTE
    ../clib/locale.s                         0x00000000   Number         0  lc_ctype_c.o ABSOLUTE
    ../clib/locale.s                         0x00000000   Number         0  lc_numeric_c.o ABSOLUTE
    ../clib/longlong.s                       0x00000000   Number         0  lludivv7m.o ABSOLUTE
    ../clib/longlong.s                       0x00000000   Number         0  llshl.o ABSOLUTE
    ../clib/longlong.s                       0x00000000   Number         0  lludiv10.o ABSOLUTE
    ../clib/longlong.s                       0x00000000   Number         0  llushr.o ABSOLUTE
    ../clib/maybe.s                          0x00000000   Number         0  maybetermalloc1.o ABSOLUTE
    ../clib/maybe.s                          0x00000000   Number         0  maybetermalloc2.o ABSOLUTE
    ../clib/memcpset.s                       0x00000000   Number         0  rt_memcpy_v6.o ABSOLUTE
    ../clib/memcpset.s                       0x00000000   Number         0  rt_memmove_v6.o ABSOLUTE
    ../clib/memcpset.s                       0x00000000   Number         0  aeabi_memset.o ABSOLUTE
    ../clib/memcpset.s                       0x00000000   Number         0  aeabi_memset4.o ABSOLUTE
    ../clib/memcpset.s                       0x00000000   Number         0  rt_memclr.o ABSOLUTE
    ../clib/memcpset.s                       0x00000000   Number         0  rt_memclr_w.o ABSOLUTE
    ../clib/memcpset.s                       0x00000000   Number         0  strcmpv7m_pel.o ABSOLUTE
    ../clib/memcpset.s                       0x00000000   Number         0  rt_memcpy_w.o ABSOLUTE
    ../clib/memcpset.s                       0x00000000   Number         0  rt_memmove_w.o ABSOLUTE
    ../clib/misc.s                           0x00000000   Number         0  printf_stubs.o ABSOLUTE
    ../clib/printf.c                         0x00000000   Number         0  __2sprintf.o ABSOLUTE
    ../clib/printf.c                         0x00000000   Number         0  noretval__2sprintf.o ABSOLUTE
    ../clib/printf.c                         0x00000000   Number         0  __printf.o ABSOLUTE
    ../clib/printf.c                         0x00000000   Number         0  _printf_pad.o ABSOLUTE
    ../clib/printf.c                         0x00000000   Number         0  _printf_str.o ABSOLUTE
    ../clib/printf.c                         0x00000000   Number         0  _printf_dec.o ABSOLUTE
    ../clib/printf.c                         0x00000000   Number         0  _printf_hex_ll.o ABSOLUTE
    ../clib/printf.c                         0x00000000   Number         0  _printf_hex_int.o ABSOLUTE
    ../clib/printf.c                         0x00000000   Number         0  _printf_hex_int_ll.o ABSOLUTE
    ../clib/printf.c                         0x00000000   Number         0  _printf_hex_ptr.o ABSOLUTE
    ../clib/printf.c                         0x00000000   Number         0  _printf_hex_int_ptr.o ABSOLUTE
    ../clib/printf.c                         0x00000000   Number         0  _printf_hex_ll_ptr.o ABSOLUTE
    ../clib/printf.c                         0x00000000   Number         0  _printf_hex_int_ll_ptr.o ABSOLUTE
    ../clib/printf.c                         0x00000000   Number         0  __printf_flags.o ABSOLUTE
    ../clib/printf.c                         0x00000000   Number         0  __printf_ss.o ABSOLUTE
    ../clib/printf.c                         0x00000000   Number         0  __printf_flags_ss.o ABSOLUTE
    ../clib/printf.c                         0x00000000   Number         0  __printf_wp.o ABSOLUTE
    ../clib/printf.c                         0x00000000   Number         0  __printf_flags_wp.o ABSOLUTE
    ../clib/printf.c                         0x00000000   Number         0  __printf_ss_wp.o ABSOLUTE
    ../clib/printf.c                         0x00000000   Number         0  __printf_flags_ss_wp.o ABSOLUTE
    ../clib/printf.c                         0x00000000   Number         0  _printf_intcommon.o ABSOLUTE
    ../clib/printf.c                         0x00000000   Number         0  _printf_fp_dec.o ABSOLUTE
    ../clib/printf.c                         0x00000000   Number         0  _printf_fp_dec_accurate.o ABSOLUTE
    ../clib/printf.c                         0x00000000   Number         0  _printf_char_common.o ABSOLUTE
    ../clib/printf.c                         0x00000000   Number         0  _sputc.o ABSOLUTE
    ../clib/printf.c                         0x00000000   Number         0  _printf_char.o ABSOLUTE
    ../clib/printf.c                         0x00000000   Number         0  _printf_fp_infnan.o ABSOLUTE
    ../clib/printf.c                         0x00000000   Number         0  __printf_nopercent.o ABSOLUTE
    ../clib/printf_percent.s                 0x00000000   Number         0  _printf_c.o ABSOLUTE
    ../clib/printf_percent.s                 0x00000000   Number         0  _printf_s.o ABSOLUTE
    ../clib/printf_percent.s                 0x00000000   Number         0  _printf_x.o ABSOLUTE
    ../clib/printf_percent.s                 0x00000000   Number         0  _printf_i.o ABSOLUTE
    ../clib/printf_percent.s                 0x00000000   Number         0  _printf_d.o ABSOLUTE
    ../clib/printf_percent.s                 0x00000000   Number         0  _printf_u.o ABSOLUTE
    ../clib/printf_percent.s                 0x00000000   Number         0  _printf_g.o ABSOLUTE
    ../clib/printf_percent.s                 0x00000000   Number         0  _printf_percent.o ABSOLUTE
    ../clib/printf_percent.s                 0x00000000   Number         0  _printf_percent_end.o ABSOLUTE
    ../clib/scanf.c                          0x00000000   Number         0  __0sscanf.o ABSOLUTE
    ../clib/scanf.c                          0x00000000   Number         0  scanf_fp.o ABSOLUTE
    ../clib/scanf.c                          0x00000000   Number         0  scanf_fp_accurate.o ABSOLUTE
    ../clib/scanf.c                          0x00000000   Number         0  scanf_char.o ABSOLUTE
    ../clib/scanf.c                          0x00000000   Number         0  _sgetc.o ABSOLUTE
    ../clib/scanf.c                          0x00000000   Number         0  strtod.o ABSOLUTE
    ../clib/scanf.c                          0x00000000   Number         0  _scanf.o ABSOLUTE
    ../clib/scanf.c                          0x00000000   Number         0  scanf_hexfp.o ABSOLUTE
    ../clib/scanf.c                          0x00000000   Number         0  scanf_infnan.o ABSOLUTE
    ../clib/scanf.c                          0x00000000   Number         0  _chval.o ABSOLUTE
    ../clib/signal.c                         0x00000000   Number         0  defsig_abrt_outer.o ABSOLUTE
    ../clib/signal.c                         0x00000000   Number         0  defsig_abrt_formal.o ABSOLUTE
    ../clib/signal.c                         0x00000000   Number         0  defsig_rtmem_outer.o ABSOLUTE
    ../clib/signal.c                         0x00000000   Number         0  defsig_rtmem_formal.o ABSOLUTE
    ../clib/signal.c                         0x00000000   Number         0  defsig_exit.o ABSOLUTE
    ../clib/signal.c                         0x00000000   Number         0  defsig_abrt_inner.o ABSOLUTE
    ../clib/signal.c                         0x00000000   Number         0  defsig_fpe_outer.o ABSOLUTE
    ../clib/signal.c                         0x00000000   Number         0  defsig_fpe_formal.o ABSOLUTE
    ../clib/signal.c                         0x00000000   Number         0  defsig_rtred_outer.o ABSOLUTE
    ../clib/signal.c                         0x00000000   Number         0  defsig_rtred_formal.o ABSOLUTE
    ../clib/signal.c                         0x00000000   Number         0  defsig_rtmem_inner.o ABSOLUTE
    ../clib/signal.c                         0x00000000   Number         0  __raise.o ABSOLUTE
    ../clib/signal.c                         0x00000000   Number         0  defsig_general.o ABSOLUTE
    ../clib/signal.c                         0x00000000   Number         0  defsig_fpe_inner.o ABSOLUTE
    ../clib/signal.c                         0x00000000   Number         0  defsig_rtred_inner.o ABSOLUTE
    ../clib/signal.c                         0x00000000   Number         0  defsig_stak_inner.o ABSOLUTE
    ../clib/signal.c                         0x00000000   Number         0  defsig_pvfn_inner.o ABSOLUTE
    ../clib/signal.c                         0x00000000   Number         0  defsig_cppl_inner.o ABSOLUTE
    ../clib/signal.c                         0x00000000   Number         0  defsig_segv_inner.o ABSOLUTE
    ../clib/signal.c                         0x00000000   Number         0  defsig_other.o ABSOLUTE
    ../clib/signal.s                         0x00000000   Number         0  defsig.o ABSOLUTE
    ../clib/stdio.c                          0x00000000   Number         0  puts.o ABSOLUTE
    ../clib/stdio.c                          0x00000000   Number         0  fputc.o ABSOLUTE
    ../clib/stdio.c                          0x00000000   Number         0  stdio_streams.o ABSOLUTE
    ../clib/stdio.c                          0x00000000   Number         0  fputc_locked.o ABSOLUTE
    ../clib/stdio.c                          0x00000000   Number         0  flsbuf.o ABSOLUTE
    ../clib/stdio.c                          0x00000000   Number         0  initio.o ABSOLUTE
    ../clib/stdio.c                          0x00000000   Number         0  initio_locked.o ABSOLUTE
    ../clib/stdio.c                          0x00000000   Number         0  setvbuf.o ABSOLUTE
    ../clib/stdio.c                          0x00000000   Number         0  stdio.o ABSOLUTE
    ../clib/stdio.c                          0x00000000   Number         0  fwritefast.o ABSOLUTE
    ../clib/stdio.c                          0x00000000   Number         0  streamlock.o ABSOLUTE
    ../clib/stdio.c                          0x00000000   Number         0  fopen.o ABSOLUTE
    ../clib/stdio.c                          0x00000000   Number         0  fclose.o ABSOLUTE
    ../clib/stdio.c                          0x00000000   Number         0  puts_locked.o ABSOLUTE
    ../clib/stdio.c                          0x00000000   Number         0  setvbuf_locked.o ABSOLUTE
    ../clib/stdio.c                          0x00000000   Number         0  fopen_locked.o ABSOLUTE
    ../clib/stdio.c                          0x00000000   Number         0  fwritefast_locked.o ABSOLUTE
    ../clib/stdio.c                          0x00000000   Number         0  fflush.o ABSOLUTE
    ../clib/stdio.c                          0x00000000   Number         0  fputs.o ABSOLUTE
    ../clib/stdio.c                          0x00000000   Number         0  fseek.o ABSOLUTE
    ../clib/stdio.c                          0x00000000   Number         0  fputs_locked.o ABSOLUTE
    ../clib/stdio.c                          0x00000000   Number         0  fflush_locked.o ABSOLUTE
    ../clib/stdio.c                          0x00000000   Number         0  ftell.o ABSOLUTE
    ../clib/stdlib.c                         0x00000000   Number         0  abort.o ABSOLUTE
    ../clib/stdlib.c                         0x00000000   Number         0  exit.o ABSOLUTE
    ../clib/string.c                         0x00000000   Number         0  memcmp.o ABSOLUTE
    ../clib/string.c                         0x00000000   Number         0  strcpy.o ABSOLUTE
    ../clib/string.c                         0x00000000   Number         0  strrchr.o ABSOLUTE
    ../clib/string.c                         0x00000000   Number         0  strlen.o ABSOLUTE
    ../clib/string.c                         0x00000000   Number         0  memchr.o ABSOLUTE
    ../clib/string.c                         0x00000000   Number         0  strncmp.o ABSOLUTE
    ../clib/string.c                         0x00000000   Number         0  strcat.o ABSOLUTE
    ../clib/wchar.c                          0x00000000   Number         0  flsbuf_fwide.o ABSOLUTE
    ../fplib/dcheck1.s                       0x00000000   Number         0  dcheck1.o ABSOLUTE
    ../fplib/fpconst.s                       0x00000000   Number         0  fpconst.o ABSOLUTE
    ../fplib/fpinit.s                        0x00000000   Number         0  fpinit.o ABSOLUTE
    ../fplib/istatus.s                       0x00000000   Number         0  istatus.o ABSOLUTE
    ../fplib/printf1.s                       0x00000000   Number         0  printf1.o ABSOLUTE
    ../fplib/retnan.s                        0x00000000   Number         0  retnan.o ABSOLUTE
    ../fplib/scalbn.s                        0x00000000   Number         0  scalbn.o ABSOLUTE
    ../fplib/scanf1.s                        0x00000000   Number         0  scanf1.o ABSOLUTE
    ../fplib/scanf2.s                        0x00000000   Number         0  scanf2.o ABSOLUTE
    ../fplib/scanf2a.s                       0x00000000   Number         0  scanf2a.o ABSOLUTE
    ../fplib/scanf2b.s                       0x00000000   Number         0  scanf2b.o ABSOLUTE
    ../fplib/trapv.s                         0x00000000   Number         0  trapv.o ABSOLUTE
    ../fplib/usenofp.s                       0x00000000   Number         0  usenofp.o ABSOLUTE
    ../mathlib/dunder.c                      0x00000000   Number         0  dunder.o ABSOLUTE
    ../mathlib/fpclassify.c                  0x00000000   Number         0  fpclassify.o ABSOLUTE
    ../mathlib/frexp.c                       0x00000000   Number         0  frexp.o ABSOLUTE
    ../mathlib/ldexp.c                       0x00000000   Number         0  ldexp.o ABSOLUTE
    ../mathlib/narrow.c                      0x00000000   Number         0  narrow.o ABSOLUTE
    ../mathlib/strtod.c                      0x00000000   Number         0  strtod.o ABSOLUTE
    EventRecorder.c                          0x00000000   Number         0  eventrecorder.o ABSOLUTE
    app.c                                    0x00000000   Number         0  app.o ABSOLUTE
    app_picture.c                            0x00000000   Number         0  app_picture.o ABSOLUTE
    app_setting.c                            0x00000000   Number         0  app_setting.o ABSOLUTE
    app_terminal.c                           0x00000000   Number         0  app_terminal.o ABSOLUTE
    bsp_driver_sd.c                          0x00000000   Number         0  bsp_driver_sd.o ABSOLUTE
    cJSON.c                                  0x00000000   Number         0  cjson.o ABSOLUTE
    cJSON_Utils.c                            0x00000000   Number         0  cjson_utils.o ABSOLUTE
    ccsbcs.c                                 0x00000000   Number         0  ccsbcs.o ABSOLUTE
    croutine.c                               0x00000000   Number         0  croutine.o ABSOLUTE
    dc.s                                     0x00000000   Number         0  dc.o ABSOLUTE
    diskio.c                                 0x00000000   Number         0  diskio.o ABSOLUTE
    dma.c                                    0x00000000   Number         0  dma.o ABSOLUTE
    dma2d.c                                  0x00000000   Number         0  dma2d.o ABSOLUTE
    event_home.c                             0x00000000   Number         0  event_home.o ABSOLUTE
    event_start.c                            0x00000000   Number         0  event_start.o ABSOLUTE
    event_task_block.c                       0x00000000   Number         0  event_task_block.o ABSOLUTE
    event_time_btn.c                         0x00000000   Number         0  event_time_btn.o ABSOLUTE
    fatfs.c                                  0x00000000   Number         0  fatfs.o ABSOLUTE
    ff.c                                     0x00000000   Number         0  ff.o ABSOLUTE
    ff_gen_drv.c                             0x00000000   Number         0  ff_gen_drv.o ABSOLUTE
    freertos_evr.c                           0x00000000   Number         0  freertos_evr.o ABSOLUTE
    gpio.c                                   0x00000000   Number         0  gpio.o ABSOLUTE
    gui.c                                    0x00000000   Number         0  gui.o ABSOLUTE
    gui_home.c                               0x00000000   Number         0  gui_home.o ABSOLUTE
    gui_start.c                              0x00000000   Number         0  gui_start.o ABSOLUTE
    heap_4.c                                 0x00000000   Number         0  heap_4.o ABSOLUTE
    img_linux.c                              0x00000000   Number         0  img_linux.o ABSOLUTE
    img_lvgl_dark.c                          0x00000000   Number         0  img_lvgl_dark.o ABSOLUTE
    img_lvgl_light.c                         0x00000000   Number         0  img_lvgl_light.o ABSOLUTE
    img_tux.c                                0x00000000   Number         0  img_tux.o ABSOLUTE
    iocn_file.c                              0x00000000   Number         0  iocn_file.o ABSOLUTE
    iocn_folder.c                            0x00000000   Number         0  iocn_folder.o ABSOLUTE
    iocn_picture.c                           0x00000000   Number         0  iocn_picture.o ABSOLUTE
    iocn_setting.c                           0x00000000   Number         0  iocn_setting.o ABSOLUTE
    iocn_terminal.c                          0x00000000   Number         0  iocn_terminal.o ABSOLUTE
    lcd_pwm.c                                0x00000000   Number         0  lcd_pwm.o ABSOLUTE
    lcd_rgb.c                                0x00000000   Number         0  lcd_rgb.o ABSOLUTE
    list.c                                   0x00000000   Number         0  list.o ABSOLUTE
    ltdc.c                                   0x00000000   Number         0  ltdc.o ABSOLUTE
    lv_anim.c                                0x00000000   Number         0  lv_anim.o ABSOLUTE
    lv_anim_timeline.c                       0x00000000   Number         0  lv_anim_timeline.o ABSOLUTE
    lv_animimg.c                             0x00000000   Number         0  lv_animimg.o ABSOLUTE
    lv_arc.c                                 0x00000000   Number         0  lv_arc.o ABSOLUTE
    lv_area.c                                0x00000000   Number         0  lv_area.o ABSOLUTE
    lv_async.c                               0x00000000   Number         0  lv_async.o ABSOLUTE
    lv_bar.c                                 0x00000000   Number         0  lv_bar.o ABSOLUTE
    lv_bidi.c                                0x00000000   Number         0  lv_bidi.o ABSOLUTE
    lv_btn.c                                 0x00000000   Number         0  lv_btn.o ABSOLUTE
    lv_btnmatrix.c                           0x00000000   Number         0  lv_btnmatrix.o ABSOLUTE
    lv_calendar.c                            0x00000000   Number         0  lv_calendar.o ABSOLUTE
    lv_calendar_header_arrow.c               0x00000000   Number         0  lv_calendar_header_arrow.o ABSOLUTE
    lv_calendar_header_dropdown.c            0x00000000   Number         0  lv_calendar_header_dropdown.o ABSOLUTE
    lv_canvas.c                              0x00000000   Number         0  lv_canvas.o ABSOLUTE
    lv_chart.c                               0x00000000   Number         0  lv_chart.o ABSOLUTE
    lv_checkbox.c                            0x00000000   Number         0  lv_checkbox.o ABSOLUTE
    lv_cmsis_pack.c                          0x00000000   Number         0  lv_cmsis_pack.o ABSOLUTE
    lv_color.c                               0x00000000   Number         0  lv_color.o ABSOLUTE
    lv_colorwheel.c                          0x00000000   Number         0  lv_colorwheel.o ABSOLUTE
    lv_disp.c                                0x00000000   Number         0  lv_disp.o ABSOLUTE
    lv_draw.c                                0x00000000   Number         0  lv_draw.o ABSOLUTE
    lv_draw_arc.c                            0x00000000   Number         0  lv_draw_arc.o ABSOLUTE
    lv_draw_img.c                            0x00000000   Number         0  lv_draw_img.o ABSOLUTE
    lv_draw_label.c                          0x00000000   Number         0  lv_draw_label.o ABSOLUTE
    lv_draw_line.c                           0x00000000   Number         0  lv_draw_line.o ABSOLUTE
    lv_draw_mask.c                           0x00000000   Number         0  lv_draw_mask.o ABSOLUTE
    lv_draw_rect.c                           0x00000000   Number         0  lv_draw_rect.o ABSOLUTE
    lv_draw_sw.c                             0x00000000   Number         0  lv_draw_sw.o ABSOLUTE
    lv_draw_sw_arc.c                         0x00000000   Number         0  lv_draw_sw_arc.o ABSOLUTE
    lv_draw_sw_blend.c                       0x00000000   Number         0  lv_draw_sw_blend.o ABSOLUTE
    lv_draw_sw_dither.c                      0x00000000   Number         0  lv_draw_sw_dither.o ABSOLUTE
    lv_draw_sw_gradient.c                    0x00000000   Number         0  lv_draw_sw_gradient.o ABSOLUTE
    lv_draw_sw_img.c                         0x00000000   Number         0  lv_draw_sw_img.o ABSOLUTE
    lv_draw_sw_letter.c                      0x00000000   Number         0  lv_draw_sw_letter.o ABSOLUTE
    lv_draw_sw_line.c                        0x00000000   Number         0  lv_draw_sw_line.o ABSOLUTE
    lv_draw_sw_polygon.c                     0x00000000   Number         0  lv_draw_sw_polygon.o ABSOLUTE
    lv_draw_sw_rect.c                        0x00000000   Number         0  lv_draw_sw_rect.o ABSOLUTE
    lv_draw_triangle.c                       0x00000000   Number         0  lv_draw_triangle.o ABSOLUTE
    lv_dropdown.c                            0x00000000   Number         0  lv_dropdown.o ABSOLUTE
    lv_event.c                               0x00000000   Number         0  lv_event.o ABSOLUTE
    lv_extra.c                               0x00000000   Number         0  lv_extra.o ABSOLUTE
    lv_flex.c                                0x00000000   Number         0  lv_flex.o ABSOLUTE
    lv_font.c                                0x00000000   Number         0  lv_font.o ABSOLUTE
    lv_font_dejavu_16_persian_hebrew.c       0x00000000   Number         0  lv_font_dejavu_16_persian_hebrew.o ABSOLUTE
    lv_font_fmt_txt.c                        0x00000000   Number         0  lv_font_fmt_txt.o ABSOLUTE
    lv_font_loader.c                         0x00000000   Number         0  lv_font_loader.o ABSOLUTE
    lv_font_montserrat_10.c                  0x00000000   Number         0  lv_font_montserrat_10.o ABSOLUTE
    lv_font_montserrat_12.c                  0x00000000   Number         0  lv_font_montserrat_12.o ABSOLUTE
    lv_font_montserrat_12_subpx.c            0x00000000   Number         0  lv_font_montserrat_12_subpx.o ABSOLUTE
    lv_font_montserrat_14.c                  0x00000000   Number         0  lv_font_montserrat_14.o ABSOLUTE
    lv_font_montserrat_16.c                  0x00000000   Number         0  lv_font_montserrat_16.o ABSOLUTE
    lv_font_montserrat_18.c                  0x00000000   Number         0  lv_font_montserrat_18.o ABSOLUTE
    lv_font_montserrat_20.c                  0x00000000   Number         0  lv_font_montserrat_20.o ABSOLUTE
    lv_font_montserrat_22.c                  0x00000000   Number         0  lv_font_montserrat_22.o ABSOLUTE
    lv_font_montserrat_24.c                  0x00000000   Number         0  lv_font_montserrat_24.o ABSOLUTE
    lv_font_montserrat_26.c                  0x00000000   Number         0  lv_font_montserrat_26.o ABSOLUTE
    lv_font_montserrat_28.c                  0x00000000   Number         0  lv_font_montserrat_28.o ABSOLUTE
    lv_font_montserrat_28_compressed.c       0x00000000   Number         0  lv_font_montserrat_28_compressed.o ABSOLUTE
    lv_font_montserrat_30.c                  0x00000000   Number         0  lv_font_montserrat_30.o ABSOLUTE
    lv_font_montserrat_32.c                  0x00000000   Number         0  lv_font_montserrat_32.o ABSOLUTE
    lv_font_montserrat_34.c                  0x00000000   Number         0  lv_font_montserrat_34.o ABSOLUTE
    lv_font_montserrat_36.c                  0x00000000   Number         0  lv_font_montserrat_36.o ABSOLUTE
    lv_font_montserrat_38.c                  0x00000000   Number         0  lv_font_montserrat_38.o ABSOLUTE
    lv_font_montserrat_40.c                  0x00000000   Number         0  lv_font_montserrat_40.o ABSOLUTE
    lv_font_montserrat_42.c                  0x00000000   Number         0  lv_font_montserrat_42.o ABSOLUTE
    lv_font_montserrat_44.c                  0x00000000   Number         0  lv_font_montserrat_44.o ABSOLUTE
    lv_font_montserrat_46.c                  0x00000000   Number         0  lv_font_montserrat_46.o ABSOLUTE
    lv_font_montserrat_48.c                  0x00000000   Number         0  lv_font_montserrat_48.o ABSOLUTE
    lv_font_montserrat_8.c                   0x00000000   Number         0  lv_font_montserrat_8.o ABSOLUTE
    lv_font_simsun_16_cjk.c                  0x00000000   Number         0  lv_font_simsun_16_cjk.o ABSOLUTE
    lv_font_unscii_16.c                      0x00000000   Number         0  lv_font_unscii_16.o ABSOLUTE
    lv_font_unscii_8.c                       0x00000000   Number         0  lv_font_unscii_8.o ABSOLUTE
    lv_fs.c                                  0x00000000   Number         0  lv_fs.o ABSOLUTE
    lv_gc.c                                  0x00000000   Number         0  lv_gc.o ABSOLUTE
    lv_gpu_stm32_dma2d.c                     0x00000000   Number         0  lv_gpu_stm32_dma2d.o ABSOLUTE
    lv_grid.c                                0x00000000   Number         0  lv_grid.o ABSOLUTE
    lv_group.c                               0x00000000   Number         0  lv_group.o ABSOLUTE
    lv_hal_disp.c                            0x00000000   Number         0  lv_hal_disp.o ABSOLUTE
    lv_hal_indev.c                           0x00000000   Number         0  lv_hal_indev.o ABSOLUTE
    lv_hal_tick.c                            0x00000000   Number         0  lv_hal_tick.o ABSOLUTE
    lv_img.c                                 0x00000000   Number         0  lv_img.o ABSOLUTE
    lv_img_buf.c                             0x00000000   Number         0  lv_img_buf.o ABSOLUTE
    lv_img_cache.c                           0x00000000   Number         0  lv_img_cache.o ABSOLUTE
    lv_img_decoder.c                         0x00000000   Number         0  lv_img_decoder.o ABSOLUTE
    lv_imgbtn.c                              0x00000000   Number         0  lv_imgbtn.o ABSOLUTE
    lv_indev.c                               0x00000000   Number         0  lv_indev.o ABSOLUTE
    lv_indev_scroll.c                        0x00000000   Number         0  lv_indev_scroll.o ABSOLUTE
    lv_keyboard.c                            0x00000000   Number         0  lv_keyboard.o ABSOLUTE
    lv_label.c                               0x00000000   Number         0  lv_label.o ABSOLUTE
    lv_led.c                                 0x00000000   Number         0  lv_led.o ABSOLUTE
    lv_line.c                                0x00000000   Number         0  lv_line.o ABSOLUTE
    lv_list.c                                0x00000000   Number         0  lv_list.o ABSOLUTE
    lv_ll.c                                  0x00000000   Number         0  lv_ll.o ABSOLUTE
    lv_log.c                                 0x00000000   Number         0  lv_log.o ABSOLUTE
    lv_lru.c                                 0x00000000   Number         0  lv_lru.o ABSOLUTE
    lv_math.c                                0x00000000   Number         0  lv_math.o ABSOLUTE
    lv_mem.c                                 0x00000000   Number         0  lv_mem.o ABSOLUTE
    lv_menu.c                                0x00000000   Number         0  lv_menu.o ABSOLUTE
    lv_meter.c                               0x00000000   Number         0  lv_meter.o ABSOLUTE
    lv_msgbox.c                              0x00000000   Number         0  lv_msgbox.o ABSOLUTE
    lv_obj.c                                 0x00000000   Number         0  lv_obj.o ABSOLUTE
    lv_obj_class.c                           0x00000000   Number         0  lv_obj_class.o ABSOLUTE
    lv_obj_draw.c                            0x00000000   Number         0  lv_obj_draw.o ABSOLUTE
    lv_obj_pos.c                             0x00000000   Number         0  lv_obj_pos.o ABSOLUTE
    lv_obj_scroll.c                          0x00000000   Number         0  lv_obj_scroll.o ABSOLUTE
    lv_obj_style.c                           0x00000000   Number         0  lv_obj_style.o ABSOLUTE
    lv_obj_style_gen.c                       0x00000000   Number         0  lv_obj_style_gen.o ABSOLUTE
    lv_obj_tree.c                            0x00000000   Number         0  lv_obj_tree.o ABSOLUTE
    lv_objx_templ.c                          0x00000000   Number         0  lv_objx_templ.o ABSOLUTE
    lv_port_disp_template.c                  0x00000000   Number         0  lv_port_disp_template.o ABSOLUTE
    lv_port_fs_template.c                    0x00000000   Number         0  lv_port_fs_template.o ABSOLUTE
    lv_port_indev_template.c                 0x00000000   Number         0  lv_port_indev_template.o ABSOLUTE
    lv_printf.c                              0x00000000   Number         0  lv_printf.o ABSOLUTE
    lv_qrcode.c                              0x00000000   Number         0  lv_qrcode.o ABSOLUTE
    lv_refr.c                                0x00000000   Number         0  lv_refr.o ABSOLUTE
    lv_roller.c                              0x00000000   Number         0  lv_roller.o ABSOLUTE
    lv_settings.c                            0x00000000   Number         0  lv_settings.o ABSOLUTE
    lv_sjpg.c                                0x00000000   Number         0  lv_sjpg.o ABSOLUTE
    lv_slider.c                              0x00000000   Number         0  lv_slider.o ABSOLUTE
    lv_span.c                                0x00000000   Number         0  lv_span.o ABSOLUTE
    lv_spinbox.c                             0x00000000   Number         0  lv_spinbox.o ABSOLUTE
    lv_spinner.c                             0x00000000   Number         0  lv_spinner.o ABSOLUTE
    lv_style.c                               0x00000000   Number         0  lv_style.o ABSOLUTE
    lv_style_gen.c                           0x00000000   Number         0  lv_style_gen.o ABSOLUTE
    lv_switch.c                              0x00000000   Number         0  lv_switch.o ABSOLUTE
    lv_table.c                               0x00000000   Number         0  lv_table.o ABSOLUTE
    lv_tabview.c                             0x00000000   Number         0  lv_tabview.o ABSOLUTE
    lv_templ.c                               0x00000000   Number         0  lv_templ.o ABSOLUTE
    lv_textarea.c                            0x00000000   Number         0  lv_textarea.o ABSOLUTE
    lv_theme.c                               0x00000000   Number         0  lv_theme.o ABSOLUTE
    lv_theme_basic.c                         0x00000000   Number         0  lv_theme_basic.o ABSOLUTE
    lv_theme_default.c                       0x00000000   Number         0  lv_theme_default.o ABSOLUTE
    lv_theme_mono.c                          0x00000000   Number         0  lv_theme_mono.o ABSOLUTE
    lv_tileview.c                            0x00000000   Number         0  lv_tileview.o ABSOLUTE
    lv_timer.c                               0x00000000   Number         0  lv_timer.o ABSOLUTE
    lv_tlsf.c                                0x00000000   Number         0  lv_tlsf.o ABSOLUTE
    lv_txt.c                                 0x00000000   Number         0  lv_txt.o ABSOLUTE
    lv_txt_ap.c                              0x00000000   Number         0  lv_txt_ap.o ABSOLUTE
    lv_utils.c                               0x00000000   Number         0  lv_utils.o ABSOLUTE
    lv_win.c                                 0x00000000   Number         0  lv_win.o ABSOLUTE
    main.c                                   0x00000000   Number         0  main.o ABSOLUTE
    mouse_cursor_icon.c                      0x00000000   Number         0  mouse_cursor_icon.o ABSOLUTE
    os_task_led.c                            0x00000000   Number         0  os_task_led.o ABSOLUTE
    os_task_lvgl_tick.c                      0x00000000   Number         0  os_task_lvgl_tick.o ABSOLUTE
    os_task_rtc.c                            0x00000000   Number         0  os_task_rtc.o ABSOLUTE
    os_task_start.c                          0x00000000   Number         0  os_task_start.o ABSOLUTE
    port.c                                   0x00000000   Number         0  port.o ABSOLUTE
    qrcodegen.c                              0x00000000   Number         0  qrcodegen.o ABSOLUTE
    queue.c                                  0x00000000   Number         0  queue.o ABSOLUTE
    retarget_io.c                            0x00000000   Number         0  retarget_io.o ABSOLUTE
    rtc.c                                    0x00000000   Number         0  rtc.o ABSOLUTE
    sd_diskio.c                              0x00000000   Number         0  sd_diskio.o ABSOLUTE
    sdmmc.c                                  0x00000000   Number         0  sdmmc.o ABSOLUTE
    startup_stm32h7b0xx.s                    0x00000000   Number         0  startup_stm32h7b0xx.o ABSOLUTE
    stm32h7xx_hal.c                          0x00000000   Number         0  stm32h7xx_hal.o ABSOLUTE
    stm32h7xx_hal_cortex.c                   0x00000000   Number         0  stm32h7xx_hal_cortex.o ABSOLUTE
    stm32h7xx_hal_dma.c                      0x00000000   Number         0  stm32h7xx_hal_dma.o ABSOLUTE
    stm32h7xx_hal_dma2d.c                    0x00000000   Number         0  stm32h7xx_hal_dma2d.o ABSOLUTE
    stm32h7xx_hal_dma_ex.c                   0x00000000   Number         0  stm32h7xx_hal_dma_ex.o ABSOLUTE
    stm32h7xx_hal_exti.c                     0x00000000   Number         0  stm32h7xx_hal_exti.o ABSOLUTE
    stm32h7xx_hal_flash.c                    0x00000000   Number         0  stm32h7xx_hal_flash.o ABSOLUTE
    stm32h7xx_hal_flash_ex.c                 0x00000000   Number         0  stm32h7xx_hal_flash_ex.o ABSOLUTE
    stm32h7xx_hal_gpio.c                     0x00000000   Number         0  stm32h7xx_hal_gpio.o ABSOLUTE
    stm32h7xx_hal_hsem.c                     0x00000000   Number         0  stm32h7xx_hal_hsem.o ABSOLUTE
    stm32h7xx_hal_i2c.c                      0x00000000   Number         0  stm32h7xx_hal_i2c.o ABSOLUTE
    stm32h7xx_hal_i2c_ex.c                   0x00000000   Number         0  stm32h7xx_hal_i2c_ex.o ABSOLUTE
    stm32h7xx_hal_ltdc.c                     0x00000000   Number         0  stm32h7xx_hal_ltdc.o ABSOLUTE
    stm32h7xx_hal_ltdc_ex.c                  0x00000000   Number         0  stm32h7xx_hal_ltdc_ex.o ABSOLUTE
    stm32h7xx_hal_mdma.c                     0x00000000   Number         0  stm32h7xx_hal_mdma.o ABSOLUTE
    stm32h7xx_hal_msp.c                      0x00000000   Number         0  stm32h7xx_hal_msp.o ABSOLUTE
    stm32h7xx_hal_pcd.c                      0x00000000   Number         0  stm32h7xx_hal_pcd.o ABSOLUTE
    stm32h7xx_hal_pcd_ex.c                   0x00000000   Number         0  stm32h7xx_hal_pcd_ex.o ABSOLUTE
    stm32h7xx_hal_pwr.c                      0x00000000   Number         0  stm32h7xx_hal_pwr.o ABSOLUTE
    stm32h7xx_hal_pwr_ex.c                   0x00000000   Number         0  stm32h7xx_hal_pwr_ex.o ABSOLUTE
    stm32h7xx_hal_rcc.c                      0x00000000   Number         0  stm32h7xx_hal_rcc.o ABSOLUTE
    stm32h7xx_hal_rcc_ex.c                   0x00000000   Number         0  stm32h7xx_hal_rcc_ex.o ABSOLUTE
    stm32h7xx_hal_rtc.c                      0x00000000   Number         0  stm32h7xx_hal_rtc.o ABSOLUTE
    stm32h7xx_hal_rtc_ex.c                   0x00000000   Number         0  stm32h7xx_hal_rtc_ex.o ABSOLUTE
    stm32h7xx_hal_sd.c                       0x00000000   Number         0  stm32h7xx_hal_sd.o ABSOLUTE
    stm32h7xx_hal_sd_ex.c                    0x00000000   Number         0  stm32h7xx_hal_sd_ex.o ABSOLUTE
    stm32h7xx_hal_tim.c                      0x00000000   Number         0  stm32h7xx_hal_tim.o ABSOLUTE
    stm32h7xx_hal_tim_ex.c                   0x00000000   Number         0  stm32h7xx_hal_tim_ex.o ABSOLUTE
    stm32h7xx_hal_timebase_tim.c             0x00000000   Number         0  stm32h7xx_hal_timebase_tim.o ABSOLUTE
    stm32h7xx_hal_uart.c                     0x00000000   Number         0  stm32h7xx_hal_uart.o ABSOLUTE
    stm32h7xx_hal_uart_ex.c                  0x00000000   Number         0  stm32h7xx_hal_uart_ex.o ABSOLUTE
    stm32h7xx_it.c                           0x00000000   Number         0  stm32h7xx_it.o ABSOLUTE
    stm32h7xx_ll_delayblock.c                0x00000000   Number         0  stm32h7xx_ll_delayblock.o ABSOLUTE
    stm32h7xx_ll_sdmmc.c                     0x00000000   Number         0  stm32h7xx_ll_sdmmc.o ABSOLUTE
    stm32h7xx_ll_usb.c                       0x00000000   Number         0  stm32h7xx_ll_usb.o ABSOLUTE
    stream_buffer.c                          0x00000000   Number         0  stream_buffer.o ABSOLUTE
    style.c                                  0x00000000   Number         0  style.o ABSOLUTE
    syscall.c                                0x00000000   Number         0  syscall.o ABSOLUTE
    system_stm32h7xx.c                       0x00000000   Number         0  system_stm32h7xx.o ABSOLUTE
    tasks.c                                  0x00000000   Number         0  tasks.o ABSOLUTE
    tim.c                                    0x00000000   Number         0  tim.o ABSOLUTE
    tjpgd.c                                  0x00000000   Number         0  tjpgd.o ABSOLUTE
    touch_800x480.c                          0x00000000   Number         0  touch_800x480.o ABSOLUTE
    touch_iic.c                              0x00000000   Number         0  touch_iic.o ABSOLUTE
    usart.c                                  0x00000000   Number         0  usart.o ABSOLUTE
    usb_device.c                             0x00000000   Number         0  usb_device.o ABSOLUTE
    usbd_cdc.c                               0x00000000   Number         0  usbd_cdc.o ABSOLUTE
    usbd_cdc_if.c                            0x00000000   Number         0  usbd_cdc_if.o ABSOLUTE
    usbd_conf.c                              0x00000000   Number         0  usbd_conf.o ABSOLUTE
    usbd_core.c                              0x00000000   Number         0  usbd_core.o ABSOLUTE
    usbd_ctlreq.c                            0x00000000   Number         0  usbd_ctlreq.o ABSOLUTE
    usbd_desc.c                              0x00000000   Number         0  usbd_desc.o ABSOLUTE
    usbd_ioreq.c                             0x00000000   Number         0  usbd_ioreq.o ABSOLUTE
    widget_app_btn.c                         0x00000000   Number         0  widget_app_btn.o ABSOLUTE
    widget_time_btn.c                        0x00000000   Number         0  widget_time_btn.o ABSOLUTE
    widget_title_block.c                     0x00000000   Number         0  widget_title_block.o ABSOLUTE
    .data                                    0x24000000   Section        4  stdio_streams.o(.data)
    .data                                    0x24000004   Section        4  stdio_streams.o(.data)
    .data                                    0x24000008   Section        4  stdio_streams.o(.data)
    .L_MergedGlobals                         0x2400000c   Data           8  stm32h7xx_hal.o(.data..L_MergedGlobals)
    [Anonymous Symbol]                       0x2400000c   Section        0  stm32h7xx_hal.o(.data..L_MergedGlobals)
    .L_MergedGlobals                         0x24000014   Data           8  system_stm32h7xx.o(.data..L_MergedGlobals)
    [Anonymous Symbol]                       0x24000014   Section        0  system_stm32h7xx.o(.data..L_MergedGlobals)
    .L_MergedGlobals                         0x2400001c   Data          72  lv_keyboard.o(.data..L_MergedGlobals)
    kb_map                                   0x2400001c   Data          36  lv_keyboard.o(.data..L_MergedGlobals)
    [Anonymous Symbol]                       0x2400001c   Section        0  lv_keyboard.o(.data..L_MergedGlobals)
    kb_ctrl                                  0x24000040   Data          36  lv_keyboard.o(.data..L_MergedGlobals)
    .L_MergedGlobals                         0x24000064   Data           8  lv_txt.o(.data..L_MergedGlobals)
    [Anonymous Symbol]                       0x24000064   Section        0  lv_txt.o(.data..L_MergedGlobals)
    Stat                                     0x24000088   Data           1  sd_diskio.o(.data.Stat)
    [Anonymous Symbol]                       0x24000088   Section        0  sd_diskio.o(.data.Stat)
    USBD_CDC_CfgFSDesc                       0x240000c4   Data          67  usbd_cdc.o(.data.USBD_CDC_CfgFSDesc)
    [Anonymous Symbol]                       0x240000c4   Section        0  usbd_cdc.o(.data.USBD_CDC_CfgFSDesc)
    USBD_CDC_CfgHSDesc                       0x24000108   Data          67  usbd_cdc.o(.data.USBD_CDC_CfgHSDesc)
    [Anonymous Symbol]                       0x24000108   Section        0  usbd_cdc.o(.data.USBD_CDC_CfgHSDesc)
    USBD_CDC_DeviceQualifierDesc             0x2400014c   Data          10  usbd_cdc.o(.data.USBD_CDC_DeviceQualifierDesc)
    [Anonymous Symbol]                       0x2400014c   Section        0  usbd_cdc.o(.data.USBD_CDC_DeviceQualifierDesc)
    USBD_CDC_OtherSpeedCfgDesc               0x24000158   Data          67  usbd_cdc.o(.data.USBD_CDC_OtherSpeedCfgDesc)
    [Anonymous Symbol]                       0x24000158   Section        0  usbd_cdc.o(.data.USBD_CDC_OtherSpeedCfgDesc)
    angle_to_mode_color_fast.m               0x240001f8   Data           1  lv_colorwheel.o(.data.angle_to_mode_color_fast.m)
    [Anonymous Symbol]                       0x240001f8   Section        0  lv_colorwheel.o(.data.angle_to_mode_color_fast.m)
    btnm_map                                 0x240001fc   Data          48  app_picture.o(.data.btnm_map)
    [Anonymous Symbol]                       0x240001fc   Section        0  app_picture.o(.data.btnm_map)
    lv_btnmatrix_def_map                     0x2400022c   Data          28  lv_btnmatrix.o(.data.lv_btnmatrix_def_map)
    [Anonymous Symbol]                       0x2400022c   Section        0  lv_btnmatrix.o(.data.lv_btnmatrix_def_map)
    lv_style_register_prop.act_id            0x24000248   Data           2  lv_style.o(.data.lv_style_register_prop.act_id)
    [Anonymous Symbol]                       0x24000248   Section        0  lv_style.o(.data.lv_style_register_prop.act_id)
    style_refr                               0x2400024a   Data           1  lv_obj_style.o(.data.style_refr)
    [Anonymous Symbol]                       0x2400024a   Section        0  lv_obj_style.o(.data.style_refr)
    uxCriticalNesting                        0x2400024c   Data           4  port.o(.data.uxCriticalNesting)
    [Anonymous Symbol]                       0x2400024c   Section        0  port.o(.data.uxCriticalNesting)
    zero_mem                                 0x24000250   Data           4  lv_mem.o(.data.zero_mem)
    [Anonymous Symbol]                       0x24000250   Section        0  lv_mem.o(.data.zero_mem)
    .bss                                     0x24000280   Section       84  stdio_streams.o(.bss)
    .bss                                     0x240002d4   Section       84  stdio_streams.o(.bss)
    .bss                                     0x24000328   Section       84  stdio_streams.o(.bss)
    .bss                                     0x2400037c   Section       96  libspace.o(.bss)
    .L_MergedGlobals                         0x240003dc   Data           5  fatfs.o(.bss..L_MergedGlobals)
    [Anonymous Symbol]                       0x240003dc   Section        0  fatfs.o(.bss..L_MergedGlobals)
    .L_MergedGlobals                         0x240003e4   Data          40  ff.o(.bss..L_MergedGlobals)
    Fsid                                     0x240003e4   Data           2  ff.o(.bss..L_MergedGlobals)
    [Anonymous Symbol]                       0x240003e4   Section        0  ff.o(.bss..L_MergedGlobals)
    FatFs.0                                  0x240003e8   Data           4  ff.o(.bss..L_MergedGlobals)
    Files                                    0x240003ec   Data          32  ff.o(.bss..L_MergedGlobals)
    .L_MergedGlobals                         0x2400040c   Data          10  style.o(.bss..L_MergedGlobals)
    [Anonymous Symbol]                       0x2400040c   Section        0  style.o(.bss..L_MergedGlobals)
    .L_MergedGlobals                         0x24000418   Data          12  retarget_io.o(.bss..L_MergedGlobals)
    stdout_putchar.index                     0x24000418   Data           4  retarget_io.o(.bss..L_MergedGlobals)
    [Anonymous Symbol]                       0x24000418   Section        0  retarget_io.o(.bss..L_MergedGlobals)
    stdout_putchar.buffer                    0x2400041c   Data           8  retarget_io.o(.bss..L_MergedGlobals)
    .L_MergedGlobals                         0x24000424   Data           8  lv_indev.o(.bss..L_MergedGlobals)
    indev_act                                0x24000424   Data           4  lv_indev.o(.bss..L_MergedGlobals)
    [Anonymous Symbol]                       0x24000424   Section        0  lv_indev.o(.bss..L_MergedGlobals)
    indev_obj_act                            0x24000428   Data           4  lv_indev.o(.bss..L_MergedGlobals)
    .L_MergedGlobals                         0x2400042c   Data           8  lv_refr.o(.bss..L_MergedGlobals)
    disp_refr                                0x2400042c   Data           4  lv_refr.o(.bss..L_MergedGlobals)
    [Anonymous Symbol]                       0x2400042c   Section        0  lv_refr.o(.bss..L_MergedGlobals)
    px_num                                   0x24000430   Data           4  lv_refr.o(.bss..L_MergedGlobals)
    .L_MergedGlobals                         0x24000434   Data          12  lv_draw_sw_gradient.o(.bss..L_MergedGlobals)
    lv_gradient_get.inited                   0x24000434   Data           1  lv_draw_sw_gradient.o(.bss..L_MergedGlobals)
    [Anonymous Symbol]                       0x24000434   Section        0  lv_draw_sw_gradient.o(.bss..L_MergedGlobals)
    grad_cache_end                           0x24000438   Data           4  lv_draw_sw_gradient.o(.bss..L_MergedGlobals)
    grad_cache_size                          0x2400043c   Data           4  lv_draw_sw_gradient.o(.bss..L_MergedGlobals)
    .L_MergedGlobals                         0x24000440   Data           8  lv_draw_sw_letter.o(.bss..L_MergedGlobals)
    draw_letter_normal.prev_opa              0x24000440   Data           1  lv_draw_sw_letter.o(.bss..L_MergedGlobals)
    [Anonymous Symbol]                       0x24000440   Section        0  lv_draw_sw_letter.o(.bss..L_MergedGlobals)
    draw_letter_normal.prev_bpp              0x24000444   Data           4  lv_draw_sw_letter.o(.bss..L_MergedGlobals)
    .L_MergedGlobals                         0x24000448   Data          12  lv_flex.o(.bss..L_MergedGlobals)
    [Anonymous Symbol]                       0x24000448   Section        0  lv_flex.o(.bss..L_MergedGlobals)
    .L_MergedGlobals                         0x24000454   Data          24  lv_grid.o(.bss..L_MergedGlobals)
    [Anonymous Symbol]                       0x24000454   Section        0  lv_grid.o(.bss..L_MergedGlobals)
    .L_MergedGlobals                         0x2400046c   Data         108  lv_theme_default.o(.bss..L_MergedGlobals)
    inited                                   0x2400046c   Data           1  lv_theme_default.o(.bss..L_MergedGlobals)
    [Anonymous Symbol]                       0x2400046c   Section        0  lv_theme_default.o(.bss..L_MergedGlobals)
    disp_size                                0x2400046d   Data           1  lv_theme_default.o(.bss..L_MergedGlobals)
    color_scr.0.0                            0x2400046e   Data           2  lv_theme_default.o(.bss..L_MergedGlobals)
    color_text.0.0                           0x24000470   Data           2  lv_theme_default.o(.bss..L_MergedGlobals)
    color_card.0.0                           0x24000472   Data           2  lv_theme_default.o(.bss..L_MergedGlobals)
    color_grey.0.0                           0x24000474   Data           2  lv_theme_default.o(.bss..L_MergedGlobals)
    styles                                   0x24000478   Data           4  lv_theme_default.o(.bss..L_MergedGlobals)
    style_init.dark_filter                   0x2400047c   Data           8  lv_theme_default.o(.bss..L_MergedGlobals)
    style_init.grey_filter                   0x24000484   Data           8  lv_theme_default.o(.bss..L_MergedGlobals)
    style_init.trans_delayed                 0x2400048c   Data          20  lv_theme_default.o(.bss..L_MergedGlobals)
    style_init.trans_normal                  0x240004a0   Data          20  lv_theme_default.o(.bss..L_MergedGlobals)
    theme                                    0x240004b4   Data          36  lv_theme_default.o(.bss..L_MergedGlobals)
    .L_MergedGlobals                         0x240004d8   Data           4  lv_colorwheel.o(.bss..L_MergedGlobals)
    angle_to_mode_color_fast.s               0x240004d8   Data           1  lv_colorwheel.o(.bss..L_MergedGlobals)
    [Anonymous Symbol]                       0x240004d8   Section        0  lv_colorwheel.o(.bss..L_MergedGlobals)
    angle_to_mode_color_fast.v               0x240004d9   Data           1  lv_colorwheel.o(.bss..L_MergedGlobals)
    angle_to_mode_color_fast.h               0x240004da   Data           2  lv_colorwheel.o(.bss..L_MergedGlobals)
    .L_MergedGlobals                         0x240004dc   Data           8  lv_spinner.o(.bss..L_MergedGlobals)
    time_param                               0x240004dc   Data           4  lv_spinner.o(.bss..L_MergedGlobals)
    [Anonymous Symbol]                       0x240004dc   Section        0  lv_spinner.o(.bss..L_MergedGlobals)
    arc_length_param                         0x240004e0   Data           4  lv_spinner.o(.bss..L_MergedGlobals)
    .L_MergedGlobals                         0x240004e4   Data           4  lv_tabview.o(.bss..L_MergedGlobals)
    tabpos_create                            0x240004e4   Data           1  lv_tabview.o(.bss..L_MergedGlobals)
    [Anonymous Symbol]                       0x240004e4   Section        0  lv_tabview.o(.bss..L_MergedGlobals)
    tabsize_create                           0x240004e6   Data           2  lv_tabview.o(.bss..L_MergedGlobals)
    .L_MergedGlobals                         0x240004e8   Data          12  lv_tileview.o(.bss..L_MergedGlobals)
    create_dir                               0x240004e8   Data           1  lv_tileview.o(.bss..L_MergedGlobals)
    [Anonymous Symbol]                       0x240004e8   Section        0  lv_tileview.o(.bss..L_MergedGlobals)
    create_col_id                            0x240004ec   Data           4  lv_tileview.o(.bss..L_MergedGlobals)
    create_row_id                            0x240004f0   Data           4  lv_tileview.o(.bss..L_MergedGlobals)
    .L_MergedGlobals                         0x240004f4   Data           8  lv_hal_tick.o(.bss..L_MergedGlobals)
    tick_irq_flag                            0x240004f4   Data           1  lv_hal_tick.o(.bss..L_MergedGlobals)
    [Anonymous Symbol]                       0x240004f4   Section        0  lv_hal_tick.o(.bss..L_MergedGlobals)
    sys_time                                 0x240004f8   Data           4  lv_hal_tick.o(.bss..L_MergedGlobals)
    .L_MergedGlobals                         0x240004fc   Data          12  lv_anim.o(.bss..L_MergedGlobals)
    anim_list_changed                        0x240004fc   Data           1  lv_anim.o(.bss..L_MergedGlobals)
    [Anonymous Symbol]                       0x240004fc   Section        0  lv_anim.o(.bss..L_MergedGlobals)
    anim_run_round                           0x240004fd   Data           1  lv_anim.o(.bss..L_MergedGlobals)
    _lv_anim_tmr                             0x24000500   Data           4  lv_anim.o(.bss..L_MergedGlobals)
    last_timer_run                           0x24000504   Data           4  lv_anim.o(.bss..L_MergedGlobals)
    .L_MergedGlobals                         0x24000508   Data         116  lv_gc.o(.bss..L_MergedGlobals)
    [Anonymous Symbol]                       0x24000508   Section        0  lv_gc.o(.bss..L_MergedGlobals)
    .L_MergedGlobals                         0x2400057c   Data          20  lv_timer.o(.bss..L_MergedGlobals)
    lv_timer_handler.already_running         0x2400057c   Data           1  lv_timer.o(.bss..L_MergedGlobals)
    [Anonymous Symbol]                       0x2400057c   Section        0  lv_timer.o(.bss..L_MergedGlobals)
    lv_timer_run                             0x2400057d   Data           1  lv_timer.o(.bss..L_MergedGlobals)
    timer_deleted                            0x2400057e   Data           1  lv_timer.o(.bss..L_MergedGlobals)
    timer_created                            0x2400057f   Data           1  lv_timer.o(.bss..L_MergedGlobals)
    idle_last                                0x24000580   Data           1  lv_timer.o(.bss..L_MergedGlobals)
    lv_timer_handler.idle_period_start       0x24000584   Data           4  lv_timer.o(.bss..L_MergedGlobals)
    lv_timer_handler.busy_time               0x24000588   Data           4  lv_timer.o(.bss..L_MergedGlobals)
    lv_timer_handler.run_cnt                 0x2400058c   Data           4  lv_timer.o(.bss..L_MergedGlobals)
    .L_MergedGlobals                         0x24000590   Data         112  lv_port_disp_template.o(.bss..L_MergedGlobals)
    [Anonymous Symbol]                       0x24000590   Section        0  lv_port_disp_template.o(.bss..L_MergedGlobals)
    lv_port_disp_init.draw_buf_dsc_1         0x24000598   Data          28  lv_port_disp_template.o(.bss..L_MergedGlobals)
    lv_port_disp_init.disp_drv               0x240005b4   Data          76  lv_port_disp_template.o(.bss..L_MergedGlobals)
    .L_MergedGlobals                         0x24000600   Data          40  lv_port_indev_template.o(.bss..L_MergedGlobals)
    touchpad_read.last_x                     0x24000600   Data           2  lv_port_indev_template.o(.bss..L_MergedGlobals)
    [Anonymous Symbol]                       0x24000600   Section        0  lv_port_indev_template.o(.bss..L_MergedGlobals)
    touchpad_read.last_y                     0x24000602   Data           2  lv_port_indev_template.o(.bss..L_MergedGlobals)
    lv_port_indev_init.indev_drv             0x24000608   Data          32  lv_port_indev_template.o(.bss..L_MergedGlobals)
    .L_MergedGlobals                         0x24000628   Data          28  heap_4.o(.bss..L_MergedGlobals)
    pxEnd                                    0x24000628   Data           4  heap_4.o(.bss..L_MergedGlobals)
    [Anonymous Symbol]                       0x24000628   Section        0  heap_4.o(.bss..L_MergedGlobals)
    xFreeBytesRemaining                      0x2400062c   Data           4  heap_4.o(.bss..L_MergedGlobals)
    xMinimumEverFreeBytesRemaining           0x24000630   Data           4  heap_4.o(.bss..L_MergedGlobals)
    xNumberOfSuccessfulAllocations           0x24000634   Data           4  heap_4.o(.bss..L_MergedGlobals)
    xNumberOfSuccessfulFrees                 0x24000638   Data           4  heap_4.o(.bss..L_MergedGlobals)
    xStart                                   0x2400063c   Data           8  heap_4.o(.bss..L_MergedGlobals)
    .L_MergedGlobals                         0x24000644   Data         116  tasks.o(.bss..L_MergedGlobals)
    uxTaskNumber                             0x24000644   Data           4  tasks.o(.bss..L_MergedGlobals)
    [Anonymous Symbol]                       0x24000644   Section        0  tasks.o(.bss..L_MergedGlobals)
    uxDeletedTasksWaitingCleanUp             0x24000648   Data           4  tasks.o(.bss..L_MergedGlobals)
    uxCurrentNumberOfTasks                   0x2400064c   Data           4  tasks.o(.bss..L_MergedGlobals)
    xSchedulerRunning                        0x24000650   Data           4  tasks.o(.bss..L_MergedGlobals)
    xTickCount                               0x24000654   Data           4  tasks.o(.bss..L_MergedGlobals)
    pxDelayedTaskList                        0x24000658   Data           4  tasks.o(.bss..L_MergedGlobals)
    pxOverflowDelayedTaskList                0x2400065c   Data           4  tasks.o(.bss..L_MergedGlobals)
    uxTopReadyPriority                       0x24000660   Data           4  tasks.o(.bss..L_MergedGlobals)
    uxSchedulerSuspended                     0x24000664   Data           4  tasks.o(.bss..L_MergedGlobals)
    xYieldPending                            0x24000668   Data           4  tasks.o(.bss..L_MergedGlobals)
    xIdleTaskHandle                          0x2400066c   Data           4  tasks.o(.bss..L_MergedGlobals)
    xNextTaskUnblockTime                     0x24000670   Data           4  tasks.o(.bss..L_MergedGlobals)
    xPendedTicks                             0x24000674   Data           4  tasks.o(.bss..L_MergedGlobals)
    xNumOfOverflows                          0x24000678   Data           4  tasks.o(.bss..L_MergedGlobals)
    xTasksWaitingTermination                 0x2400067c   Data          20  tasks.o(.bss..L_MergedGlobals)
    xSuspendedTaskList                       0x24000690   Data          20  tasks.o(.bss..L_MergedGlobals)
    xPendingReadyList                        0x240006a4   Data          20  tasks.o(.bss..L_MergedGlobals)
    .L_MergedGlobals.2                       0x240006b8   Data          40  tasks.o(.bss..L_MergedGlobals.2)
    xDelayedTaskList1                        0x240006b8   Data          20  tasks.o(.bss..L_MergedGlobals.2)
    [Anonymous Symbol]                       0x240006b8   Section        0  tasks.o(.bss..L_MergedGlobals.2)
    xDelayedTaskList2                        0x240006cc   Data          20  tasks.o(.bss..L_MergedGlobals.2)
    Modify_Flag                              0x240006e2   Data           1  touch_800x480.o(.bss.Modify_Flag)
    [Anonymous Symbol]                       0x240006e2   Section        0  touch_800x480.o(.bss.Modify_Flag)
    TS_OverflowLock                          0x2400274c   Data           1  eventrecorder.o(.bss.TS_OverflowLock)
    [Anonymous Symbol]                       0x2400274c   Section        0  eventrecorder.o(.bss.TS_OverflowLock)
    USBD_SetConfig.cfgidx                    0x2400274d   Data           1  usbd_ctlreq.o(.bss.USBD_SetConfig.cfgidx)
    [Anonymous Symbol]                       0x2400274d   Section        0  usbd_ctlreq.o(.bss.USBD_SetConfig.cfgidx)
    USBD_static_malloc.mem                   0x24002950   Data         544  usbd_conf.o(.bss.USBD_static_malloc.mem)
    [Anonymous Symbol]                       0x24002950   Section        0  usbd_conf.o(.bss.USBD_static_malloc.mem)
    cache                                    0x24003c8c   Data           8  lv_font_montserrat_14.o(.bss.cache)
    [Anonymous Symbol]                       0x24003c8c   Section        0  lv_font_montserrat_14.o(.bss.cache)
    create_header_height                     0x24003c94   Data           2  lv_win.o(.bss.create_header_height)
    [Anonymous Symbol]                       0x24003c94   Section        0  lv_win.o(.bss.create_header_height)
    create_knob_recolor                      0x24003c96   Data           1  lv_colorwheel.o(.bss.create_knob_recolor)
    [Anonymous Symbol]                       0x24003c96   Section        0  lv_colorwheel.o(.bss.create_knob_recolor)
    default_group                            0x24003c98   Data           4  lv_group.o(.bss.default_group)
    [Anonymous Symbol]                       0x24003c98   Section        0  lv_group.o(.bss.default_group)
    disp_def                                 0x24003ca8   Data           4  lv_hal_disp.o(.bss.disp_def)
    [Anonymous Symbol]                       0x24003ca8   Section        0  lv_hal_disp.o(.bss.disp_def)
    draw_letter_normal.opa_table             0x24003cac   Data         256  lv_draw_sw_letter.o(.bss.draw_letter_normal.opa_table)
    [Anonymous Symbol]                       0x24003cac   Section        0  lv_draw_sw_letter.o(.bss.draw_letter_normal.opa_table)
    event_app_block_hidden.is_hidden         0x24003dac   Data           1  event_home.o(.bss.event_app_block_hidden.is_hidden)
    [Anonymous Symbol]                       0x24003dac   Section        0  event_home.o(.bss.event_app_block_hidden.is_hidden)
    event_head                               0x24003db0   Data           4  lv_event.o(.bss.event_head)
    [Anonymous Symbol]                       0x24003db0   Section        0  lv_event.o(.bss.event_head)
    layout_cnt                               0x240047e4   Data           4  lv_obj_pos.o(.bss.layout_cnt)
    [Anonymous Symbol]                       0x240047e4   Section        0  lv_obj_pos.o(.bss.layout_cnt)
    lv_initialized                           0x240047e8   Data           1  lv_obj.o(.bss.lv_initialized)
    [Anonymous Symbol]                       0x240047e8   Section        0  lv_obj.o(.bss.lv_initialized)
    lv_mem_init.work_mem_int                 0x2400486c   Data       49152  lv_mem.o(.bss.lv_mem_init.work_mem_int)
    [Anonymous Symbol]                       0x2400486c   Section        0  lv_mem.o(.bss.lv_mem_init.work_mem_int)
    lv_obj_allocate_spec_attr.x              0x2401086c   Data           4  lv_obj.o(.bss.lv_obj_allocate_spec_attr.x)
    [Anonymous Symbol]                       0x2401086c   Section        0  lv_obj.o(.bss.lv_obj_allocate_spec_attr.x)
    lv_obj_update_layout.mutex               0x24010870   Data           1  lv_obj_pos.o(.bss.lv_obj_update_layout.mutex)
    [Anonymous Symbol]                       0x24010870   Section        0  lv_obj_pos.o(.bss.lv_obj_update_layout.mutex)
    EventBuffer                              0x24010880   Data        1024  eventrecorder.o(.bss.noinit)
    [Anonymous Symbol]                       0x24010880   Section        0  eventrecorder.o(.bss.noinit)
    EventFilter                              0x24010c80   Data         128  eventrecorder.o(.bss.noinit)
    EventStatus                              0x24010d00   Data          36  eventrecorder.o(.bss.noinit)
    __tagsym$$used.1                         0x24010d24   Number         0  tasks.o(.bss.pxCurrentTCB)
    pxReadyTasksLists                        0x24010d28   Data         640  tasks.o(.bss.pxReadyTasksLists)
    [Anonymous Symbol]                       0x24010d28   Section        0  tasks.o(.bss.pxReadyTasksLists)
    ta_insert_replace                        0x24010ff0   Data           4  lv_textarea.o(.bss.ta_insert_replace)
    [Anonymous Symbol]                       0x24010ff0   Section        0  lv_textarea.o(.bss.ta_insert_replace)
    tlsf                                     0x24010ff4   Data           4  lv_mem.o(.bss.tlsf)
    [Anonymous Symbol]                       0x24010ff4   Section        0  lv_mem.o(.bss.tlsf)
    ucHeap                                   0x24010ff8   Data       30720  heap_4.o(.bss.ucHeap)
    [Anonymous Symbol]                       0x24010ff8   Section        0  heap_4.o(.bss.ucHeap)
    Heap_Mem                                 0x24019800   Data        8192  startup_stm32h7b0xx.o(HEAP)
    HEAP                                     0x24019800   Section     8192  startup_stm32h7b0xx.o(HEAP)
    Stack_Mem                                0x2401b800   Data       12288  startup_stm32h7b0xx.o(STACK)
    STACK                                    0x2401b800   Section    12288  startup_stm32h7b0xx.o(STACK)
    __initial_sp                             0x2401e800   Data           0  startup_stm32h7b0xx.o(STACK)
    RESET                                    0x90000000   Section      684  startup_stm32h7b0xx.o(RESET)
    !!!main                                  0x900002ac   Section        8  __main.o(!!!main)
    !!!scatter                               0x900002b4   Section       52  __scatter.o(!!!scatter)
    !!dczerorl2                              0x900002e8   Section       90  __dczerorl2.o(!!dczerorl2)
    !!handler_zi                             0x90000344   Section       28  __scatter_zi.o(!!handler_zi)
    .ARM.Collect$$_printf_percent$$00000000  0x90000360   Section        0  _printf_percent.o(.ARM.Collect$$_printf_percent$$00000000)
    .ARM.Collect$$_printf_percent$$00000009  0x90000360   Section        6  _printf_d.o(.ARM.Collect$$_printf_percent$$00000009)
    .ARM.Collect$$_printf_percent$$0000000A  0x90000366   Section        6  _printf_u.o(.ARM.Collect$$_printf_percent$$0000000A)
    .ARM.Collect$$_printf_percent$$00000013  0x9000036c   Section        6  _printf_c.o(.ARM.Collect$$_printf_percent$$00000013)
    .ARM.Collect$$_printf_percent$$00000014  0x90000372   Section        6  _printf_s.o(.ARM.Collect$$_printf_percent$$00000014)
    .ARM.Collect$$_printf_percent$$00000017  0x90000378   Section        4  _printf_percent_end.o(.ARM.Collect$$_printf_percent$$00000017)
    .ARM.Collect$$libinit$$00000000          0x9000037c   Section        2  libinit.o(.ARM.Collect$$libinit$$00000000)
    .ARM.Collect$$libinit$$00000001          0x9000037e   Section        4  libinit2.o(.ARM.Collect$$libinit$$00000001)
    .ARM.Collect$$libinit$$00000004          0x90000382   Section        0  libinit2.o(.ARM.Collect$$libinit$$00000004)
    .ARM.Collect$$libinit$$00000005          0x90000382   Section        8  libinit2.o(.ARM.Collect$$libinit$$00000005)
    .ARM.Collect$$libinit$$0000000A          0x9000038a   Section        0  libinit2.o(.ARM.Collect$$libinit$$0000000A)
    .ARM.Collect$$libinit$$0000000C          0x9000038a   Section        0  libinit2.o(.ARM.Collect$$libinit$$0000000C)
    .ARM.Collect$$libinit$$0000000E          0x9000038a   Section        0  libinit2.o(.ARM.Collect$$libinit$$0000000E)
    .ARM.Collect$$libinit$$00000011          0x9000038a   Section        0  libinit2.o(.ARM.Collect$$libinit$$00000011)
    .ARM.Collect$$libinit$$00000013          0x9000038a   Section        0  libinit2.o(.ARM.Collect$$libinit$$00000013)
    .ARM.Collect$$libinit$$00000015          0x9000038a   Section        0  libinit2.o(.ARM.Collect$$libinit$$00000015)
    .ARM.Collect$$libinit$$00000017          0x9000038a   Section        0  libinit2.o(.ARM.Collect$$libinit$$00000017)
    .ARM.Collect$$libinit$$00000019          0x9000038a   Section        0  libinit2.o(.ARM.Collect$$libinit$$00000019)
    .ARM.Collect$$libinit$$0000001B          0x9000038a   Section        0  libinit2.o(.ARM.Collect$$libinit$$0000001B)
    .ARM.Collect$$libinit$$0000001D          0x9000038a   Section        0  libinit2.o(.ARM.Collect$$libinit$$0000001D)
    .ARM.Collect$$libinit$$0000001F          0x9000038a   Section        0  libinit2.o(.ARM.Collect$$libinit$$0000001F)
    .ARM.Collect$$libinit$$00000021          0x9000038a   Section        0  libinit2.o(.ARM.Collect$$libinit$$00000021)
    .ARM.Collect$$libinit$$00000023          0x9000038a   Section        0  libinit2.o(.ARM.Collect$$libinit$$00000023)
    .ARM.Collect$$libinit$$00000024          0x9000038a   Section        4  libinit2.o(.ARM.Collect$$libinit$$00000024)
    .ARM.Collect$$libinit$$00000025          0x9000038e   Section        0  libinit2.o(.ARM.Collect$$libinit$$00000025)
    .ARM.Collect$$libinit$$0000002C          0x9000038e   Section        0  libinit2.o(.ARM.Collect$$libinit$$0000002C)
    .ARM.Collect$$libinit$$0000002E          0x9000038e   Section        0  libinit2.o(.ARM.Collect$$libinit$$0000002E)
    .ARM.Collect$$libinit$$00000030          0x9000038e   Section        0  libinit2.o(.ARM.Collect$$libinit$$00000030)
    .ARM.Collect$$libinit$$00000032          0x9000038e   Section        0  libinit2.o(.ARM.Collect$$libinit$$00000032)
    .ARM.Collect$$libinit$$00000033          0x9000038e   Section        2  libinit2.o(.ARM.Collect$$libinit$$00000033)
    .ARM.Collect$$libshutdown$$00000000      0x90000390   Section        2  libshutdown.o(.ARM.Collect$$libshutdown$$00000000)
    .ARM.Collect$$libshutdown$$00000002      0x90000392   Section        0  libshutdown2.o(.ARM.Collect$$libshutdown$$00000002)
    .ARM.Collect$$libshutdown$$00000003      0x90000392   Section        4  libshutdown2.o(.ARM.Collect$$libshutdown$$00000003)
    .ARM.Collect$$libshutdown$$00000004      0x90000396   Section        0  libshutdown2.o(.ARM.Collect$$libshutdown$$00000004)
    .ARM.Collect$$libshutdown$$00000007      0x90000396   Section        0  libshutdown2.o(.ARM.Collect$$libshutdown$$00000007)
    .ARM.Collect$$libshutdown$$0000000A      0x90000396   Section        0  libshutdown2.o(.ARM.Collect$$libshutdown$$0000000A)
    .ARM.Collect$$libshutdown$$0000000C      0x90000396   Section        0  libshutdown2.o(.ARM.Collect$$libshutdown$$0000000C)
    .ARM.Collect$$libshutdown$$0000000F      0x90000396   Section        0  libshutdown2.o(.ARM.Collect$$libshutdown$$0000000F)
    .ARM.Collect$$libshutdown$$00000010      0x90000396   Section        2  libshutdown2.o(.ARM.Collect$$libshutdown$$00000010)
    .ARM.Collect$$rtentry$$00000000          0x90000398   Section        0  __rtentry.o(.ARM.Collect$$rtentry$$00000000)
    .ARM.Collect$$rtentry$$00000002          0x90000398   Section        0  __rtentry2.o(.ARM.Collect$$rtentry$$00000002)
    .ARM.Collect$$rtentry$$00000004          0x90000398   Section        6  __rtentry4.o(.ARM.Collect$$rtentry$$00000004)
    .ARM.Collect$$rtentry$$00000009          0x9000039e   Section        0  __rtentry2.o(.ARM.Collect$$rtentry$$00000009)
    .ARM.Collect$$rtentry$$0000000A          0x9000039e   Section        4  __rtentry2.o(.ARM.Collect$$rtentry$$0000000A)
    .ARM.Collect$$rtentry$$0000000C          0x900003a2   Section        0  __rtentry2.o(.ARM.Collect$$rtentry$$0000000C)
    .ARM.Collect$$rtentry$$0000000D          0x900003a2   Section        8  __rtentry2.o(.ARM.Collect$$rtentry$$0000000D)
    .ARM.Collect$$rtexit$$00000000           0x900003aa   Section        2  rtexit.o(.ARM.Collect$$rtexit$$00000000)
    .ARM.Collect$$rtexit$$00000002           0x900003ac   Section        0  rtexit2.o(.ARM.Collect$$rtexit$$00000002)
    .ARM.Collect$$rtexit$$00000003           0x900003ac   Section        4  rtexit2.o(.ARM.Collect$$rtexit$$00000003)
    .ARM.Collect$$rtexit$$00000004           0x900003b0   Section        6  rtexit2.o(.ARM.Collect$$rtexit$$00000004)
    $v0                                      0x900003b8   Number         0  startup_stm32h7b0xx.o(.text)
    .text                                    0x900003b8   Section       64  startup_stm32h7b0xx.o(.text)
    .text                                    0x900003f8   Section        0  h1_alloc.o(.text)
    .text                                    0x90000456   Section        0  h1_free.o(.text)
    .text                                    0x900004a4   Section      240  lludivv7m.o(.text)
    .text                                    0x90000594   Section        0  __2sprintf.o(.text)
    .text                                    0x900005c0   Section        0  _printf_pad.o(.text)
    .text                                    0x9000060e   Section        0  _printf_str.o(.text)
    .text                                    0x90000660   Section        0  _printf_dec.o(.text)
    .text                                    0x900006d8   Section        0  __printf_flags_ss_wp.o(.text)
    .text                                    0x90000860   Section        0  puts.o(.text)
    .text                                    0x9000088c   Section        0  memcmp.o(.text)
    .text                                    0x900008e4   Section        0  strcpy.o(.text)
    .text                                    0x9000092c   Section        0  strlen.o(.text)
    .text                                    0x9000096a   Section        0  strncmp.o(.text)
    .text                                    0x90000a00   Section      138  rt_memcpy_v6.o(.text)
    .text                                    0x90000a8a   Section       16  aeabi_memset.o(.text)
    .text                                    0x90000a9a   Section       16  aeabi_memset4.o(.text)
    .text                                    0x90000aaa   Section       68  rt_memclr.o(.text)
    .text                                    0x90000aee   Section       78  rt_memclr_w.o(.text)
    .text                                    0x90000b40   Section      124  strcmpv7m_pel.o(.text)
    .text                                    0x90000bbc   Section        0  heapauxi.o(.text)
    .text                                    0x90000bc4   Section        8  rt_heap_descriptor_intlibspace.o(.text)
    .text                                    0x90000bcc   Section        0  hguard.o(.text)
    .text                                    0x90000bd0   Section        0  init_alloc.o(.text)
    .text                                    0x90000c5a   Section        0  h1_init.o(.text)
    .text                                    0x90000c68   Section        0  _printf_intcommon.o(.text)
    _printf_input_char                       0x90000d1d   Thumb Code    10  _printf_char_common.o(.text)
    .text                                    0x90000d1c   Section        0  _printf_char_common.o(.text)
    .text                                    0x90000d4c   Section        0  _sputc.o(.text)
    .text                                    0x90000d56   Section        0  _printf_char.o(.text)
    .text                                    0x90000d82   Section      100  rt_memcpy_w.o(.text)
    .text                                    0x90000de6   Section        0  sys_wrch.o(.text)
    .text                                    0x90000df4   Section        0  sys_exit.o(.text)
    .text                                    0x90000e00   Section        8  libspace.o(.text)
    .text                                    0x90000e08   Section        8  rt_errno_addr_intlibspace.o(.text)
    .text                                    0x90000e10   Section        0  maybetermalloc1.o(.text)
    .text                                    0x90000e10   Section        0  h1_extend.o(.text)
    .text                                    0x90000e44   Section        0  flsbuf.o(.text)
    .text                                    0x9000101c   Section        0  initio.o(.text)
    .text                                    0x90001154   Section        0  defsig_rtmem_outer.o(.text)
    .text                                    0x90001162   Section        2  use_no_semi.o(.text)
    .text                                    0x90001164   Section        0  indicate_semi.o(.text)
    .text                                    0x90001164   Section       74  sys_stackheap_outer.o(.text)
    .text                                    0x900011ae   Section        0  setvbuf.o(.text)
    .text                                    0x900011f4   Section        0  stdio.o(.text)
    _freopen_locked                          0x900012e5   Thumb Code     0  fopen.o(.text)
    .text                                    0x900012e4   Section        0  fopen.o(.text)
    .text                                    0x900013d4   Section        0  fclose.o(.text)
    .text                                    0x90001420   Section        0  exit.o(.text)
    .text                                    0x90001432   Section        0  defsig_exit.o(.text)
    .text                                    0x9000143c   Section        0  defsig_rtred_outer.o(.text)
    .text                                    0x9000144c   Section        0  defsig_rtmem_inner.o(.text)
    .text                                    0x9000149c   Section        0  fseek.o(.text)
    .text                                    0x90001594   Section        0  defsig_general.o(.text)
    .text                                    0x900015c8   Section        0  defsig_rtred_inner.o(.text)
    .text                                    0x900015fc   Section        0  ftell.o(.text)
    [Anonymous Symbol]                       0x90001640   Section        0  bsp_driver_sd.o(.text.BSP_SD_GetCardInfo)
    [Anonymous Symbol]                       0x90001658   Section        0  bsp_driver_sd.o(.text.BSP_SD_GetCardState)
    [Anonymous Symbol]                       0x90001670   Section        0  bsp_driver_sd.o(.text.BSP_SD_Init)
    [Anonymous Symbol]                       0x900016a8   Section        0  bsp_driver_sd.o(.text.BSP_SD_IsDetected)
    [Anonymous Symbol]                       0x900016b8   Section        0  bsp_driver_sd.o(.text.BSP_SD_ReadBlocks)
    [Anonymous Symbol]                       0x900016e0   Section        0  bsp_driver_sd.o(.text.BSP_SD_WriteBlocks)
    [Anonymous Symbol]                       0x90001708   Section        0  stm32h7xx_it.o(.text.BusFault_Handler)
    CDC_Control_HS                           0x90001711   Thumb Code     4  usbd_cdc_if.o(.text.CDC_Control_HS)
    [Anonymous Symbol]                       0x90001710   Section        0  usbd_cdc_if.o(.text.CDC_Control_HS)
    CDC_DeInit_HS                            0x90001719   Thumb Code     4  usbd_cdc_if.o(.text.CDC_DeInit_HS)
    [Anonymous Symbol]                       0x90001718   Section        0  usbd_cdc_if.o(.text.CDC_DeInit_HS)
    CDC_Init_HS                              0x90001721   Thumb Code    44  usbd_cdc_if.o(.text.CDC_Init_HS)
    [Anonymous Symbol]                       0x90001720   Section        0  usbd_cdc_if.o(.text.CDC_Init_HS)
    CDC_Receive_HS                           0x90001751   Thumb Code    28  usbd_cdc_if.o(.text.CDC_Receive_HS)
    [Anonymous Symbol]                       0x90001750   Section        0  usbd_cdc_if.o(.text.CDC_Receive_HS)
    CDC_TransmitCplt_HS                      0x90001771   Thumb Code     4  usbd_cdc_if.o(.text.CDC_TransmitCplt_HS)
    [Anonymous Symbol]                       0x90001770   Section        0  usbd_cdc_if.o(.text.CDC_TransmitCplt_HS)
    [Anonymous Symbol]                       0x90001778   Section        0  stm32h7xx_it.o(.text.DMA1_Stream2_IRQHandler)
    [Anonymous Symbol]                       0x90001788   Section        0  stm32h7xx_it.o(.text.DMA2D_IRQHandler)
    DMA_CalcBaseAndBitshift                  0x90001799   Thumb Code   292  stm32h7xx_hal_dma.o(.text.DMA_CalcBaseAndBitshift)
    [Anonymous Symbol]                       0x90001798   Section        0  stm32h7xx_hal_dma.o(.text.DMA_CalcBaseAndBitshift)
    DMA_CalcBaseAndBitshift.flagBitshiftOffset 0x900018bc   Number         0  stm32h7xx_hal_dma.o(.text.DMA_CalcBaseAndBitshift)
    [Anonymous Symbol]                       0x900018c8   Section        0  stm32h7xx_it.o(.text.DebugMon_Handler)
    [Anonymous Symbol]                       0x900018d0   Section        0  main.o(.text.Error_Handler)
    [Anonymous Symbol]                       0x900018e0   Section        0  eventrecorder.o(.text.EventRecordData)
    EventRecordItem                          0x90001a89   Thumb Code   692  eventrecorder.o(.text.EventRecordItem)
    [Anonymous Symbol]                       0x90001a88   Section        0  eventrecorder.o(.text.EventRecordItem)
    [Anonymous Symbol]                       0x90001d40   Section        0  eventrecorder.o(.text.EventRecorderInitialize)
    [Anonymous Symbol]                       0x90002848   Section        0  eventrecorder.o(.text.EventRecorderStart)
    [Anonymous Symbol]                       0x900028d0   Section        0  eventrecorder.o(.text.EventRecorderTimerGetCount)
    [Anonymous Symbol]                       0x900028e0   Section        0  eventrecorder.o(.text.EventRecorderTimerGetFreq)
    [Anonymous Symbol]                       0x900028f0   Section        0  eventrecorder.o(.text.EventRecorderTimerSetup)
    [Anonymous Symbol]                       0x90002918   Section        0  ff_gen_drv.o(.text.FATFS_LinkDriver)
    [Anonymous Symbol]                       0x90002968   Section        0  touch_800x480.o(.text.GT9XX_ReadReg)
    [Anonymous Symbol]                       0x900029d8   Section        0  stm32h7xx_hal_dma2d.o(.text.HAL_DMA2D_CLUTLoadingCpltCallback)
    [Anonymous Symbol]                       0x900029e0   Section        0  stm32h7xx_hal_dma2d.o(.text.HAL_DMA2D_ConfigLayer)
    [Anonymous Symbol]                       0x90002aa8   Section        0  stm32h7xx_hal_dma2d.o(.text.HAL_DMA2D_IRQHandler)
    [Anonymous Symbol]                       0x90002bf0   Section        0  stm32h7xx_hal_dma2d.o(.text.HAL_DMA2D_Init)
    [Anonymous Symbol]                       0x90002c70   Section        0  stm32h7xx_hal_dma2d.o(.text.HAL_DMA2D_LineEventCallback)
    [Anonymous Symbol]                       0x90002c78   Section        0  dma2d.o(.text.HAL_DMA2D_MspInit)
    [Anonymous Symbol]                       0x90002cc0   Section        0  stm32h7xx_hal_dma.o(.text.HAL_DMA_Abort)
    [Anonymous Symbol]                       0x900031f8   Section        0  stm32h7xx_hal_dma.o(.text.HAL_DMA_Abort_IT)
    [Anonymous Symbol]                       0x900034b8   Section        0  stm32h7xx_hal_dma.o(.text.HAL_DMA_IRQHandler)
    [Anonymous Symbol]                       0x90003e18   Section        0  stm32h7xx_hal_dma.o(.text.HAL_DMA_Init)
    [Anonymous Symbol]                       0x90004598   Section        0  stm32h7xx_hal.o(.text.HAL_Delay)
    [Anonymous Symbol]                       0x900045c0   Section        0  stm32h7xx_hal_gpio.o(.text.HAL_GPIO_Init)
    [Anonymous Symbol]                       0x900047a8   Section        0  stm32h7xx_hal_gpio.o(.text.HAL_GPIO_ReadPin)
    [Anonymous Symbol]                       0x900047b8   Section        0  stm32h7xx_hal_gpio.o(.text.HAL_GPIO_WritePin)
    [Anonymous Symbol]                       0x900047c8   Section        0  stm32h7xx_hal.o(.text.HAL_GetTick)
    [Anonymous Symbol]                       0x900047d8   Section        0  stm32h7xx_hal.o(.text.HAL_IncTick)
    [Anonymous Symbol]                       0x900047f8   Section        0  stm32h7xx_hal.o(.text.HAL_Init)
    [Anonymous Symbol]                       0x90004860   Section        0  stm32h7xx_hal_timebase_tim.o(.text.HAL_InitTick)
    [Anonymous Symbol]                       0x90004900   Section        0  stm32h7xx_hal_ltdc.o(.text.HAL_LTDC_ConfigLayer)
    [Anonymous Symbol]                       0x90004978   Section        0  stm32h7xx_hal_ltdc.o(.text.HAL_LTDC_Init)
    [Anonymous Symbol]                       0x90004a58   Section        0  ltdc.o(.text.HAL_LTDC_MspInit)
    [Anonymous Symbol]                       0x90004bd8   Section        0  stm32h7xx_hal_cortex.o(.text.HAL_MPU_ConfigRegion)
    [Anonymous Symbol]                       0x90004c38   Section        0  stm32h7xx_hal_cortex.o(.text.HAL_MPU_Disable)
    [Anonymous Symbol]                       0x90004c58   Section        0  stm32h7xx_hal_cortex.o(.text.HAL_MPU_Enable)
    [Anonymous Symbol]                       0x90004c78   Section        0  stm32h7xx_hal_msp.o(.text.HAL_MspInit)
    [Anonymous Symbol]                       0x90004c98   Section        0  stm32h7xx_hal_cortex.o(.text.HAL_NVIC_EnableIRQ)
    [Anonymous Symbol]                       0x90004cb8   Section        0  stm32h7xx_hal_cortex.o(.text.HAL_NVIC_SetPriority)
    [Anonymous Symbol]                       0x90004d18   Section        0  stm32h7xx_hal_cortex.o(.text.HAL_NVIC_SetPriorityGrouping)
    [Anonymous Symbol]                       0x90004d38   Section        0  stm32h7xx_hal_pcd_ex.o(.text.HAL_PCDEx_ActivateLPM)
    [Anonymous Symbol]                       0x90004d60   Section        0  stm32h7xx_hal_pcd_ex.o(.text.HAL_PCDEx_LPM_Callback)
    [Anonymous Symbol]                       0x90004d68   Section        0  stm32h7xx_hal_pcd_ex.o(.text.HAL_PCDEx_SetRxFiFo)
    [Anonymous Symbol]                       0x90004d70   Section        0  stm32h7xx_hal_pcd_ex.o(.text.HAL_PCDEx_SetTxFiFo)
    [Anonymous Symbol]                       0x90004e08   Section        0  usbd_conf.o(.text.HAL_PCD_ConnectCallback)
    [Anonymous Symbol]                       0x90004e10   Section        0  usbd_conf.o(.text.HAL_PCD_DataInStageCallback)
    [Anonymous Symbol]                       0x90004e28   Section        0  usbd_conf.o(.text.HAL_PCD_DataOutStageCallback)
    [Anonymous Symbol]                       0x90004e40   Section        0  usbd_conf.o(.text.HAL_PCD_DisconnectCallback)
    [Anonymous Symbol]                       0x90004e48   Section        0  stm32h7xx_hal_pcd.o(.text.HAL_PCD_EP_Close)
    [Anonymous Symbol]                       0x90004ea0   Section        0  stm32h7xx_hal_pcd.o(.text.HAL_PCD_EP_ClrStall)
    [Anonymous Symbol]                       0x90004f08   Section        0  stm32h7xx_hal_pcd.o(.text.HAL_PCD_EP_GetRxCount)
    [Anonymous Symbol]                       0x90004f20   Section        0  stm32h7xx_hal_pcd.o(.text.HAL_PCD_EP_Open)
    [Anonymous Symbol]                       0x90004f80   Section        0  stm32h7xx_hal_pcd.o(.text.HAL_PCD_EP_Receive)
    [Anonymous Symbol]                       0x90004fc8   Section        0  stm32h7xx_hal_pcd.o(.text.HAL_PCD_EP_SetStall)
    [Anonymous Symbol]                       0x90005040   Section        0  stm32h7xx_hal_pcd.o(.text.HAL_PCD_EP_Transmit)
    [Anonymous Symbol]                       0x90005090   Section        0  stm32h7xx_hal_pcd.o(.text.HAL_PCD_IRQHandler)
    [Anonymous Symbol]                       0x900058a0   Section        0  usbd_conf.o(.text.HAL_PCD_ISOINIncompleteCallback)
    [Anonymous Symbol]                       0x900058a8   Section        0  usbd_conf.o(.text.HAL_PCD_ISOOUTIncompleteCallback)
    [Anonymous Symbol]                       0x900058b0   Section        0  stm32h7xx_hal_pcd.o(.text.HAL_PCD_Init)
    [Anonymous Symbol]                       0x900059f8   Section        0  usbd_conf.o(.text.HAL_PCD_MspInit)
    [Anonymous Symbol]                       0x90005aa0   Section        0  usbd_conf.o(.text.HAL_PCD_ResetCallback)
    [Anonymous Symbol]                       0x90005ad0   Section        0  usbd_conf.o(.text.HAL_PCD_ResumeCallback)
    [Anonymous Symbol]                       0x90005ad8   Section        0  usbd_conf.o(.text.HAL_PCD_SOFCallback)
    [Anonymous Symbol]                       0x90005ae0   Section        0  stm32h7xx_hal_pcd.o(.text.HAL_PCD_SetAddress)
    [Anonymous Symbol]                       0x90005b08   Section        0  usbd_conf.o(.text.HAL_PCD_SetupStageCallback)
    [Anonymous Symbol]                       0x90005b18   Section        0  stm32h7xx_hal_pcd.o(.text.HAL_PCD_Start)
    [Anonymous Symbol]                       0x90005b58   Section        0  usbd_conf.o(.text.HAL_PCD_SuspendCallback)
    [Anonymous Symbol]                       0x90005b90   Section        0  stm32h7xx_hal_pwr_ex.o(.text.HAL_PWREx_ConfigSupply)
    [Anonymous Symbol]                       0x90005be0   Section        0  stm32h7xx_hal_pwr_ex.o(.text.HAL_PWREx_EnableUSBVoltageDetector)
    [Anonymous Symbol]                       0x90005bf8   Section        0  stm32h7xx_hal_pwr.o(.text.HAL_PWR_EnableBkUpAccess)
    [Anonymous Symbol]                       0x90005c10   Section        0  stm32h7xx_hal_rcc_ex.o(.text.HAL_RCCEx_GetD3PCLK1Freq)
    [Anonymous Symbol]                       0x90005c38   Section        0  stm32h7xx_hal_rcc_ex.o(.text.HAL_RCCEx_GetPLL1ClockFreq)
    [Anonymous Symbol]                       0x90005d68   Section        0  stm32h7xx_hal_rcc_ex.o(.text.HAL_RCCEx_GetPLL2ClockFreq)
    [Anonymous Symbol]                       0x90005e98   Section        0  stm32h7xx_hal_rcc_ex.o(.text.HAL_RCCEx_GetPLL3ClockFreq)
    [Anonymous Symbol]                       0x90005fc8   Section        0  stm32h7xx_hal_rcc_ex.o(.text.HAL_RCCEx_GetPeriphCLKFreq)
    [Anonymous Symbol]                       0x90006388   Section        0  stm32h7xx_hal_rcc_ex.o(.text.HAL_RCCEx_PeriphCLKConfig)
    [Anonymous Symbol]                       0x90006f68   Section        0  stm32h7xx_hal_rcc.o(.text.HAL_RCC_ClockConfig)
    [Anonymous Symbol]                       0x900071d0   Section        0  stm32h7xx_hal_rcc.o(.text.HAL_RCC_GetClockConfig)
    [Anonymous Symbol]                       0x90007228   Section        0  stm32h7xx_hal_rcc.o(.text.HAL_RCC_GetHCLKFreq)
    [Anonymous Symbol]                       0x90007278   Section        0  stm32h7xx_hal_rcc.o(.text.HAL_RCC_GetPCLK1Freq)
    [Anonymous Symbol]                       0x900072d8   Section        0  stm32h7xx_hal_rcc.o(.text.HAL_RCC_GetPCLK2Freq)
    [Anonymous Symbol]                       0x90007338   Section        0  stm32h7xx_hal_rcc.o(.text.HAL_RCC_GetSysClockFreq)
    [Anonymous Symbol]                       0x90007450   Section        0  stm32h7xx_hal_rcc.o(.text.HAL_RCC_OscConfig)
    [Anonymous Symbol]                       0x90007990   Section        0  stm32h7xx_hal_rtc_ex.o(.text.HAL_RTCEx_BKUPRead)
    [Anonymous Symbol]                       0x900079a0   Section        0  stm32h7xx_hal_rtc_ex.o(.text.HAL_RTCEx_BKUPWrite)
    [Anonymous Symbol]                       0x900079b0   Section        0  stm32h7xx_hal_rtc.o(.text.HAL_RTC_GetDate)
    [Anonymous Symbol]                       0x90007a18   Section        0  stm32h7xx_hal_rtc.o(.text.HAL_RTC_GetTime)
    [Anonymous Symbol]                       0x90007a90   Section        0  stm32h7xx_hal_rtc.o(.text.HAL_RTC_Init)
    [Anonymous Symbol]                       0x90007b70   Section        0  rtc.o(.text.HAL_RTC_MspInit)
    [Anonymous Symbol]                       0x90007bc0   Section        0  stm32h7xx_hal_rtc.o(.text.HAL_RTC_SetDate)
    [Anonymous Symbol]                       0x90007d18   Section        0  stm32h7xx_hal_rtc.o(.text.HAL_RTC_SetTime)
    [Anonymous Symbol]                       0x90007ea0   Section        0  stm32h7xx_hal_sd.o(.text.HAL_SD_ConfigWideBusOperation)
    [Anonymous Symbol]                       0x90008050   Section        0  stm32h7xx_hal_sd.o(.text.HAL_SD_GetCardCSD)
    [Anonymous Symbol]                       0x900081e8   Section        0  stm32h7xx_hal_sd.o(.text.HAL_SD_GetCardInfo)
    [Anonymous Symbol]                       0x90008210   Section        0  stm32h7xx_hal_sd.o(.text.HAL_SD_GetCardState)
    [Anonymous Symbol]                       0x90008240   Section        0  stm32h7xx_hal_sd.o(.text.HAL_SD_GetCardStatus)
    [Anonymous Symbol]                       0x90008418   Section        0  stm32h7xx_hal_sd.o(.text.HAL_SD_Init)
    [Anonymous Symbol]                       0x900084e0   Section        0  stm32h7xx_hal_sd.o(.text.HAL_SD_InitCard)
    [Anonymous Symbol]                       0x90008738   Section        0  sdmmc.o(.text.HAL_SD_MspInit)
    [Anonymous Symbol]                       0x90008808   Section        0  stm32h7xx_hal_sd.o(.text.HAL_SD_ReadBlocks)
    [Anonymous Symbol]                       0x90008a20   Section        0  stm32h7xx_hal_sd.o(.text.HAL_SD_WriteBlocks)
    [Anonymous Symbol]                       0x90008c68   Section        0  stm32h7xx_hal_tim_ex.o(.text.HAL_TIMEx_Break2Callback)
    [Anonymous Symbol]                       0x90008c70   Section        0  stm32h7xx_hal_tim_ex.o(.text.HAL_TIMEx_BreakCallback)
    [Anonymous Symbol]                       0x90008c78   Section        0  stm32h7xx_hal_tim_ex.o(.text.HAL_TIMEx_CommutCallback)
    [Anonymous Symbol]                       0x90008c80   Section        0  stm32h7xx_hal_tim_ex.o(.text.HAL_TIMEx_MasterConfigSynchronization)
    [Anonymous Symbol]                       0x90008d50   Section        0  stm32h7xx_hal_tim.o(.text.HAL_TIM_Base_Init)
    [Anonymous Symbol]                       0x90008db0   Section        0  stm32h7xx_hal_tim.o(.text.HAL_TIM_Base_MspInit)
    [Anonymous Symbol]                       0x90008db8   Section        0  stm32h7xx_hal_tim.o(.text.HAL_TIM_Base_Start_IT)
    [Anonymous Symbol]                       0x90008e70   Section        0  stm32h7xx_hal_tim.o(.text.HAL_TIM_IC_CaptureCallback)
    [Anonymous Symbol]                       0x90008e78   Section        0  stm32h7xx_hal_tim.o(.text.HAL_TIM_IRQHandler)
    [Anonymous Symbol]                       0x90009008   Section        0  stm32h7xx_hal_tim.o(.text.HAL_TIM_OC_DelayElapsedCallback)
    [Anonymous Symbol]                       0x90009010   Section        0  stm32h7xx_hal_tim.o(.text.HAL_TIM_PWM_ConfigChannel)
    [Anonymous Symbol]                       0x900094d0   Section        0  stm32h7xx_hal_tim.o(.text.HAL_TIM_PWM_Init)
    [Anonymous Symbol]                       0x90009530   Section        0  tim.o(.text.HAL_TIM_PWM_MspInit)
    [Anonymous Symbol]                       0x90009568   Section        0  stm32h7xx_hal_tim.o(.text.HAL_TIM_PWM_PulseFinishedCallback)
    [Anonymous Symbol]                       0x90009570   Section        0  stm32h7xx_hal_tim.o(.text.HAL_TIM_PWM_Start)
    [Anonymous Symbol]                       0x90009700   Section        0  main.o(.text.HAL_TIM_PeriodElapsedCallback)
    [Anonymous Symbol]                       0x90009710   Section        0  stm32h7xx_hal_tim.o(.text.HAL_TIM_TriggerCallback)
    [Anonymous Symbol]                       0x90009718   Section        0  stm32h7xx_hal_uart_ex.o(.text.HAL_UARTEx_DisableFifoMode)
    [Anonymous Symbol]                       0x90009750   Section        0  stm32h7xx_hal_uart.o(.text.HAL_UARTEx_RxEventCallback)
    [Anonymous Symbol]                       0x90009758   Section        0  stm32h7xx_hal_uart_ex.o(.text.HAL_UARTEx_RxFifoFullCallback)
    [Anonymous Symbol]                       0x90009760   Section        0  stm32h7xx_hal_uart_ex.o(.text.HAL_UARTEx_SetRxFifoThreshold)
    [Anonymous Symbol]                       0x900097f0   Section        0  stm32h7xx_hal_uart_ex.o(.text.HAL_UARTEx_SetTxFifoThreshold)
    [Anonymous Symbol]                       0x90009880   Section        0  stm32h7xx_hal_uart_ex.o(.text.HAL_UARTEx_TxFifoEmptyCallback)
    [Anonymous Symbol]                       0x90009888   Section        0  stm32h7xx_hal_uart_ex.o(.text.HAL_UARTEx_WakeupCallback)
    [Anonymous Symbol]                       0x90009890   Section        0  stm32h7xx_hal_uart.o(.text.HAL_UART_ErrorCallback)
    [Anonymous Symbol]                       0x90009898   Section        0  stm32h7xx_hal_uart.o(.text.HAL_UART_IRQHandler)
    [Anonymous Symbol]                       0x90009f08   Section        0  stm32h7xx_hal_uart.o(.text.HAL_UART_Init)
    [Anonymous Symbol]                       0x90009fd0   Section        0  usart.o(.text.HAL_UART_MspInit)
    [Anonymous Symbol]                       0x9000a0b0   Section        0  stm32h7xx_hal_uart.o(.text.HAL_UART_TxCpltCallback)
    [Anonymous Symbol]                       0x9000a0b8   Section        0  stm32h7xx_it.o(.text.HardFault_Handler)
    [Anonymous Symbol]                       0x9000a0c0   Section        0  lcd_pwm.o(.text.LCD_PWMinit)
    [Anonymous Symbol]                       0x9000a0d0   Section        0  lcd_pwm.o(.text.LCD_PwmSetPulse)
    [Anonymous Symbol]                       0x9000a0e0   Section        0  lcd_rgb.o(.text.LDC_Init)
    LTDC_SetConfig                           0x9000a121   Thumb Code   292  stm32h7xx_hal_ltdc.o(.text.LTDC_SetConfig)
    [Anonymous Symbol]                       0x9000a120   Section        0  stm32h7xx_hal_ltdc.o(.text.LTDC_SetConfig)
    [Anonymous Symbol]                       0x9000a248   Section        0  dma2d.o(.text.MX_DMA2D_Init)
    [Anonymous Symbol]                       0x9000a2a8   Section        0  dma.o(.text.MX_DMA_Init)
    [Anonymous Symbol]                       0x9000a2e0   Section        0  fatfs.o(.text.MX_FATFS_Init)
    [Anonymous Symbol]                       0x9000a300   Section        0  gpio.o(.text.MX_GPIO_Init)
    [Anonymous Symbol]                       0x9000a3e8   Section        0  ltdc.o(.text.MX_LTDC_Init)
    [Anonymous Symbol]                       0x9000a498   Section        0  rtc.o(.text.MX_RTC_Init)
    [Anonymous Symbol]                       0x9000a548   Section        0  sdmmc.o(.text.MX_SDMMC1_SD_Init)
    [Anonymous Symbol]                       0x9000a570   Section        0  tim.o(.text.MX_TIM4_Init)
    [Anonymous Symbol]                       0x9000a640   Section        0  usart.o(.text.MX_USART1_UART_Init)
    [Anonymous Symbol]                       0x9000a6c0   Section        0  usb_device.o(.text.MX_USB_DEVICE_Init)
    [Anonymous Symbol]                       0x9000a730   Section        0  stm32h7xx_it.o(.text.MemManage_Handler)
    [Anonymous Symbol]                       0x9000a738   Section        0  stm32h7xx_it.o(.text.NMI_Handler)
    [Anonymous Symbol]                       0x9000a740   Section        0  stm32h7xx_it.o(.text.OTG_HS_IRQHandler)
    [Anonymous Symbol]                       0x9000a750   Section        0  port.o(.text.PendSV_Handler)
    pxCurrentTCBConst                        0x9000a7b0   Number         0  port.o(.text.PendSV_Handler)
    RCCEx_PLL2_Config                        0x9000a7b9   Thumb Code   290  stm32h7xx_hal_rcc_ex.o(.text.RCCEx_PLL2_Config)
    [Anonymous Symbol]                       0x9000a7b8   Section        0  stm32h7xx_hal_rcc_ex.o(.text.RCCEx_PLL2_Config)
    RCCEx_PLL3_Config                        0x9000a8e1   Thumb Code   290  stm32h7xx_hal_rcc_ex.o(.text.RCCEx_PLL3_Config)
    [Anonymous Symbol]                       0x9000a8e0   Section        0  stm32h7xx_hal_rcc_ex.o(.text.RCCEx_PLL3_Config)
    [Anonymous Symbol]                       0x9000aa08   Section        0  stm32h7xx_hal_rtc.o(.text.RTC_ExitInitMode)
    [Anonymous Symbol]                       0x9000aaa0   Section        0  stm32h7xx_ll_sdmmc.o(.text.SDMMC_CmdAppCommand)
    [Anonymous Symbol]                       0x9000aac8   Section        0  stm32h7xx_ll_sdmmc.o(.text.SDMMC_CmdAppOperCommand)
    [Anonymous Symbol]                       0x9000ab60   Section        0  stm32h7xx_ll_sdmmc.o(.text.SDMMC_CmdBlockLength)
    [Anonymous Symbol]                       0x9000ab88   Section        0  stm32h7xx_ll_sdmmc.o(.text.SDMMC_CmdBusWidth)
    [Anonymous Symbol]                       0x9000abb0   Section        0  stm32h7xx_ll_sdmmc.o(.text.SDMMC_CmdGoIdleState)
    [Anonymous Symbol]                       0x9000ac20   Section        0  stm32h7xx_ll_sdmmc.o(.text.SDMMC_CmdOperCond)
    [Anonymous Symbol]                       0x9000acd0   Section        0  stm32h7xx_ll_sdmmc.o(.text.SDMMC_CmdReadMultiBlock)
    [Anonymous Symbol]                       0x9000acf8   Section        0  stm32h7xx_ll_sdmmc.o(.text.SDMMC_CmdReadSingleBlock)
    [Anonymous Symbol]                       0x9000ad20   Section        0  stm32h7xx_ll_sdmmc.o(.text.SDMMC_CmdSelDesel)
    [Anonymous Symbol]                       0x9000ad48   Section        0  stm32h7xx_ll_sdmmc.o(.text.SDMMC_CmdSendCID)
    [Anonymous Symbol]                       0x9000adf8   Section        0  stm32h7xx_ll_sdmmc.o(.text.SDMMC_CmdSendCSD)
    [Anonymous Symbol]                       0x9000aea8   Section        0  stm32h7xx_ll_sdmmc.o(.text.SDMMC_CmdSendSCR)
    [Anonymous Symbol]                       0x9000aed0   Section        0  stm32h7xx_ll_sdmmc.o(.text.SDMMC_CmdSendStatus)
    [Anonymous Symbol]                       0x9000aef8   Section        0  stm32h7xx_ll_sdmmc.o(.text.SDMMC_CmdSetRelAdd)
    [Anonymous Symbol]                       0x9000afe0   Section        0  stm32h7xx_ll_sdmmc.o(.text.SDMMC_CmdStatusRegister)
    [Anonymous Symbol]                       0x9000b008   Section        0  stm32h7xx_ll_sdmmc.o(.text.SDMMC_CmdStopTransfer)
    [Anonymous Symbol]                       0x9000b058   Section        0  stm32h7xx_ll_sdmmc.o(.text.SDMMC_CmdWriteMultiBlock)
    [Anonymous Symbol]                       0x9000b080   Section        0  stm32h7xx_ll_sdmmc.o(.text.SDMMC_CmdWriteSingleBlock)
    [Anonymous Symbol]                       0x9000b0a8   Section        0  stm32h7xx_ll_sdmmc.o(.text.SDMMC_ConfigData)
    [Anonymous Symbol]                       0x9000b0d8   Section        0  stm32h7xx_ll_sdmmc.o(.text.SDMMC_GetCmdResp1)
    [Anonymous Symbol]                       0x9000b268   Section        0  stm32h7xx_ll_sdmmc.o(.text.SDMMC_GetPowerState)
    [Anonymous Symbol]                       0x9000b270   Section        0  stm32h7xx_ll_sdmmc.o(.text.SDMMC_GetResponse)
    [Anonymous Symbol]                       0x9000b278   Section        0  stm32h7xx_ll_sdmmc.o(.text.SDMMC_Init)
    [Anonymous Symbol]                       0x9000b2a0   Section        0  stm32h7xx_ll_sdmmc.o(.text.SDMMC_PowerState_ON)
    [Anonymous Symbol]                       0x9000b2b0   Section        0  stm32h7xx_ll_sdmmc.o(.text.SDMMC_ReadFIFO)
    [Anonymous Symbol]                       0x9000b2b8   Section        0  stm32h7xx_ll_sdmmc.o(.text.SDMMC_WriteFIFO)
    SD_FindSCR                               0x9000b2c9   Thumb Code   230  stm32h7xx_hal_sd.o(.text.SD_FindSCR)
    [Anonymous Symbol]                       0x9000b2c8   Section        0  stm32h7xx_hal_sd.o(.text.SD_FindSCR)
    [Anonymous Symbol]                       0x9000b3b0   Section        0  sd_diskio.o(.text.SD_initialize)
    [Anonymous Symbol]                       0x9000b3e8   Section        0  sd_diskio.o(.text.SD_ioctl)
    [Anonymous Symbol]                       0x9000b450   Section        0  sd_diskio.o(.text.SD_read)
    [Anonymous Symbol]                       0x9000b478   Section        0  sd_diskio.o(.text.SD_status)
    [Anonymous Symbol]                       0x9000b4a0   Section        0  sd_diskio.o(.text.SD_write)
    [Anonymous Symbol]                       0x9000b4d0   Section        0  port.o(.text.SVC_Handler)
    pxCurrentTCBConst2                       0x9000b4f0   Number         0  port.o(.text.SVC_Handler)
    [Anonymous Symbol]                       0x9000b4f8   Section        0  stm32h7xx_it.o(.text.SysTick_Handler)
    [Anonymous Symbol]                       0x9000b508   Section        0  main.o(.text.SystemClock_Config)
    [Anonymous Symbol]                       0x9000b610   Section        0  system_stm32h7xx.o(.text.SystemInit)
    [Anonymous Symbol]                       0x9000b6d8   Section        0  stm32h7xx_it.o(.text.TIM2_IRQHandler)
    [Anonymous Symbol]                       0x9000b6e8   Section        0  stm32h7xx_hal_tim.o(.text.TIM_Base_SetConfig)
    [Anonymous Symbol]                       0x9000b840   Section        0  touch_iic.o(.text.Touch_IIC_ACK)
    [Anonymous Symbol]                       0x9000d3b8   Section        0  touch_iic.o(.text.Touch_IIC_Delay)
    [Anonymous Symbol]                       0x9000d420   Section        0  touch_iic.o(.text.Touch_IIC_GPIO_Config)
    [Anonymous Symbol]                       0x9000d4f0   Section        0  touch_iic.o(.text.Touch_IIC_NoACK)
    [Anonymous Symbol]                       0x9000f058   Section        0  touch_iic.o(.text.Touch_IIC_ReadByte)
    [Anonymous Symbol]                       0x9000fe88   Section        0  touch_iic.o(.text.Touch_IIC_Start)
    [Anonymous Symbol]                       0x90011328   Section        0  touch_iic.o(.text.Touch_IIC_Stop)
    [Anonymous Symbol]                       0x90012e90   Section        0  touch_iic.o(.text.Touch_IIC_WaitACK)
    [Anonymous Symbol]                       0x90014a10   Section        0  touch_iic.o(.text.Touch_IIC_WriteByte)
    [Anonymous Symbol]                       0x90015838   Section        0  touch_iic.o(.text.Touch_INT_In)
    [Anonymous Symbol]                       0x90015860   Section        0  touch_iic.o(.text.Touch_INT_Out)
    [Anonymous Symbol]                       0x90015888   Section        0  touch_800x480.o(.text.Touch_Init)
    [Anonymous Symbol]                       0x90015958   Section        0  touch_800x480.o(.text.Touch_PenInt)
    [Anonymous Symbol]                       0x90015970   Section        0  touch_800x480.o(.text.Touch_get_xy)
    [Anonymous Symbol]                       0x90015a08   Section        0  stm32h7xx_hal_uart.o(.text.UART_AdvFeatureConfig)
    UART_DMAAbortOnError                     0x90015ae9   Thumb Code    16  stm32h7xx_hal_uart.o(.text.UART_DMAAbortOnError)
    [Anonymous Symbol]                       0x90015ae8   Section        0  stm32h7xx_hal_uart.o(.text.UART_DMAAbortOnError)
    [Anonymous Symbol]                       0x90015af8   Section        0  stm32h7xx_hal_uart.o(.text.UART_SetConfig)
    [Anonymous Symbol]                       0x90016138   Section        0  stm32h7xx_hal_uart.o(.text.UART_WaitOnFlagUntilTimeout)
    [Anonymous Symbol]                       0x90016360   Section        0  stm32h7xx_it.o(.text.USART1_IRQHandler)
    USBD_CDC_DataIn                          0x90016371   Thumb Code   106  usbd_cdc.o(.text.USBD_CDC_DataIn)
    [Anonymous Symbol]                       0x90016370   Section        0  usbd_cdc.o(.text.USBD_CDC_DataIn)
    USBD_CDC_DataOut                         0x900163e1   Thumb Code    44  usbd_cdc.o(.text.USBD_CDC_DataOut)
    [Anonymous Symbol]                       0x900163e0   Section        0  usbd_cdc.o(.text.USBD_CDC_DataOut)
    USBD_CDC_DeInit                          0x90016411   Thumb Code    66  usbd_cdc.o(.text.USBD_CDC_DeInit)
    [Anonymous Symbol]                       0x90016410   Section        0  usbd_cdc.o(.text.USBD_CDC_DeInit)
    USBD_CDC_EP0_RxReady                     0x90016459   Thumb Code    52  usbd_cdc.o(.text.USBD_CDC_EP0_RxReady)
    [Anonymous Symbol]                       0x90016458   Section        0  usbd_cdc.o(.text.USBD_CDC_EP0_RxReady)
    [Anonymous Symbol]                       0x90016490   Section        0  usbd_cdc.o(.text.USBD_CDC_GetDeviceQualifierDescriptor)
    USBD_CDC_GetFSCfgDesc                    0x900164a1   Thumb Code    16  usbd_cdc.o(.text.USBD_CDC_GetFSCfgDesc)
    [Anonymous Symbol]                       0x900164a0   Section        0  usbd_cdc.o(.text.USBD_CDC_GetFSCfgDesc)
    USBD_CDC_GetHSCfgDesc                    0x900164b1   Thumb Code    16  usbd_cdc.o(.text.USBD_CDC_GetHSCfgDesc)
    [Anonymous Symbol]                       0x900164b0   Section        0  usbd_cdc.o(.text.USBD_CDC_GetHSCfgDesc)
    USBD_CDC_GetOtherSpeedCfgDesc            0x900164c1   Thumb Code    16  usbd_cdc.o(.text.USBD_CDC_GetOtherSpeedCfgDesc)
    [Anonymous Symbol]                       0x900164c0   Section        0  usbd_cdc.o(.text.USBD_CDC_GetOtherSpeedCfgDesc)
    USBD_CDC_Init                            0x900164d1   Thumb Code   152  usbd_cdc.o(.text.USBD_CDC_Init)
    [Anonymous Symbol]                       0x900164d0   Section        0  usbd_cdc.o(.text.USBD_CDC_Init)
    [Anonymous Symbol]                       0x90016568   Section        0  usbd_cdc.o(.text.USBD_CDC_ReceivePacket)
    [Anonymous Symbol]                       0x90016590   Section        0  usbd_cdc.o(.text.USBD_CDC_RegisterInterface)
    [Anonymous Symbol]                       0x900165a0   Section        0  usbd_cdc.o(.text.USBD_CDC_SetRxBuffer)
    [Anonymous Symbol]                       0x900165b8   Section        0  usbd_cdc.o(.text.USBD_CDC_SetTxBuffer)
    USBD_CDC_Setup                           0x900165d1   Thumb Code   240  usbd_cdc.o(.text.USBD_CDC_Setup)
    [Anonymous Symbol]                       0x900165d0   Section        0  usbd_cdc.o(.text.USBD_CDC_Setup)
    [Anonymous Symbol]                       0x900166c0   Section        0  usbd_core.o(.text.USBD_ClrClassConfig)
    [Anonymous Symbol]                       0x900166d0   Section        0  usbd_ioreq.o(.text.USBD_CtlContinueRx)
    [Anonymous Symbol]                       0x900166e0   Section        0  usbd_ioreq.o(.text.USBD_CtlContinueSendData)
    [Anonymous Symbol]                       0x900166f0   Section        0  usbd_ctlreq.o(.text.USBD_CtlError)
    [Anonymous Symbol]                       0x90016708   Section        0  usbd_ioreq.o(.text.USBD_CtlPrepareRx)
    [Anonymous Symbol]                       0x90016728   Section        0  usbd_ioreq.o(.text.USBD_CtlReceiveStatus)
    [Anonymous Symbol]                       0x90016740   Section        0  usbd_ioreq.o(.text.USBD_CtlSendData)
    [Anonymous Symbol]                       0x90016760   Section        0  usbd_ioreq.o(.text.USBD_CtlSendStatus)
    [Anonymous Symbol]                       0x90016778   Section        0  usbd_ctlreq.o(.text.USBD_GetString)
    [Anonymous Symbol]                       0x90016850   Section        0  usbd_desc.o(.text.USBD_HS_ConfigStrDescriptor)
    [Anonymous Symbol]                       0x90016878   Section        0  usbd_desc.o(.text.USBD_HS_DeviceDescriptor)
    [Anonymous Symbol]                       0x90016888   Section        0  usbd_desc.o(.text.USBD_HS_InterfaceStrDescriptor)
    [Anonymous Symbol]                       0x900168b0   Section        0  usbd_desc.o(.text.USBD_HS_LangIDStrDescriptor)
    [Anonymous Symbol]                       0x900168c0   Section        0  usbd_desc.o(.text.USBD_HS_ManufacturerStrDescriptor)
    [Anonymous Symbol]                       0x900168f0   Section        0  usbd_desc.o(.text.USBD_HS_ProductStrDescriptor)
    [Anonymous Symbol]                       0x90016920   Section        0  usbd_desc.o(.text.USBD_HS_SerialStrDescriptor)
    [Anonymous Symbol]                       0x90016a90   Section        0  usbd_core.o(.text.USBD_Init)
    [Anonymous Symbol]                       0x90016ab8   Section        0  usbd_conf.o(.text.USBD_LL_ClearStallEP)
    [Anonymous Symbol]                       0x90016ae0   Section        0  usbd_conf.o(.text.USBD_LL_CloseEP)
    [Anonymous Symbol]                       0x90016b08   Section        0  usbd_core.o(.text.USBD_LL_DataInStage)
    [Anonymous Symbol]                       0x90016bb8   Section        0  usbd_core.o(.text.USBD_LL_DataOutStage)
    [Anonymous Symbol]                       0x90016c28   Section        0  usbd_core.o(.text.USBD_LL_DevConnected)
    [Anonymous Symbol]                       0x90016c30   Section        0  usbd_core.o(.text.USBD_LL_DevDisconnected)
    [Anonymous Symbol]                       0x90016c48   Section        0  usbd_conf.o(.text.USBD_LL_GetRxDataSize)
    [Anonymous Symbol]                       0x90016c50   Section        0  usbd_conf.o(.text.USBD_LL_Init)
    [Anonymous Symbol]                       0x90016cc8   Section        0  usbd_conf.o(.text.USBD_LL_IsStallEP)
    [Anonymous Symbol]                       0x90016ce8   Section        0  usbd_core.o(.text.USBD_LL_IsoINIncomplete)
    [Anonymous Symbol]                       0x90016d08   Section        0  usbd_core.o(.text.USBD_LL_IsoOUTIncomplete)
    [Anonymous Symbol]                       0x90016d28   Section        0  usbd_conf.o(.text.USBD_LL_OpenEP)
    [Anonymous Symbol]                       0x90016d58   Section        0  usbd_conf.o(.text.USBD_LL_PrepareReceive)
    [Anonymous Symbol]                       0x90016d80   Section        0  usbd_core.o(.text.USBD_LL_Reset)
    [Anonymous Symbol]                       0x90016de8   Section        0  usbd_core.o(.text.USBD_LL_Resume)
    [Anonymous Symbol]                       0x90016e00   Section        0  usbd_core.o(.text.USBD_LL_SOF)
    [Anonymous Symbol]                       0x90016e20   Section        0  usbd_core.o(.text.USBD_LL_SetSpeed)
    [Anonymous Symbol]                       0x90016e28   Section        0  usbd_conf.o(.text.USBD_LL_SetUSBAddress)
    [Anonymous Symbol]                       0x90016e50   Section        0  usbd_core.o(.text.USBD_LL_SetupStage)
    [Anonymous Symbol]                       0x90016eb8   Section        0  usbd_conf.o(.text.USBD_LL_StallEP)
    [Anonymous Symbol]                       0x90016ee0   Section        0  usbd_conf.o(.text.USBD_LL_Start)
    [Anonymous Symbol]                       0x90016f08   Section        0  usbd_core.o(.text.USBD_LL_Suspend)
    [Anonymous Symbol]                       0x90016f20   Section        0  usbd_conf.o(.text.USBD_LL_Transmit)
    [Anonymous Symbol]                       0x90016f48   Section        0  usbd_ctlreq.o(.text.USBD_ParseSetupRequest)
    [Anonymous Symbol]                       0x90016f60   Section        0  usbd_core.o(.text.USBD_RegisterClass)
    [Anonymous Symbol]                       0x90016f90   Section        0  usbd_core.o(.text.USBD_SetClassConfig)
    [Anonymous Symbol]                       0x90016fa0   Section        0  usbd_core.o(.text.USBD_Start)
    [Anonymous Symbol]                       0x90016fa8   Section        0  usbd_ctlreq.o(.text.USBD_StdDevReq)
    [Anonymous Symbol]                       0x90017320   Section        0  usbd_ctlreq.o(.text.USBD_StdEPReq)
    [Anonymous Symbol]                       0x90017478   Section        0  usbd_ctlreq.o(.text.USBD_StdItfReq)
    [Anonymous Symbol]                       0x900174f8   Section        0  usbd_conf.o(.text.USBD_static_free)
    [Anonymous Symbol]                       0x90017500   Section        0  usbd_conf.o(.text.USBD_static_malloc)
    [Anonymous Symbol]                       0x90017510   Section        0  stm32h7xx_ll_usb.o(.text.USB_ActivateEndpoint)
    [Anonymous Symbol]                       0x900175a8   Section        0  stm32h7xx_ll_usb.o(.text.USB_ActivateSetup)
    [Anonymous Symbol]                       0x900175c8   Section        0  stm32h7xx_ll_usb.o(.text.USB_CoreInit)
    [Anonymous Symbol]                       0x900177a8   Section        0  stm32h7xx_ll_usb.o(.text.USB_DeactivateEndpoint)
    [Anonymous Symbol]                       0x90017838   Section        0  stm32h7xx_ll_usb.o(.text.USB_DevConnect)
    [Anonymous Symbol]                       0x90017858   Section        0  stm32h7xx_ll_usb.o(.text.USB_DevDisconnect)
    [Anonymous Symbol]                       0x90017878   Section        0  stm32h7xx_ll_usb.o(.text.USB_DevInit)
    [Anonymous Symbol]                       0x90017b70   Section        0  stm32h7xx_ll_usb.o(.text.USB_DisableGlobalInt)
    [Anonymous Symbol]                       0x90017b80   Section        0  stm32h7xx_ll_usb.o(.text.USB_EP0StartXfer)
    [Anonymous Symbol]                       0x90017c80   Section        0  stm32h7xx_ll_usb.o(.text.USB_EP0_OutStart)
    [Anonymous Symbol]                       0x90017ce0   Section        0  stm32h7xx_ll_usb.o(.text.USB_EPClearStall)
    [Anonymous Symbol]                       0x90017d30   Section        0  stm32h7xx_ll_usb.o(.text.USB_EPSetStall)
    [Anonymous Symbol]                       0x90017d80   Section        0  stm32h7xx_ll_usb.o(.text.USB_EPStartXfer)
    [Anonymous Symbol]                       0x90017f98   Section        0  stm32h7xx_ll_usb.o(.text.USB_EnableGlobalInt)
    [Anonymous Symbol]                       0x90017fa8   Section        0  stm32h7xx_ll_usb.o(.text.USB_FlushTxFifo)
    [Anonymous Symbol]                       0x90018058   Section        0  stm32h7xx_ll_usb.o(.text.USB_GetDevSpeed)
    [Anonymous Symbol]                       0x90018078   Section        0  stm32h7xx_ll_usb.o(.text.USB_GetMode)
    [Anonymous Symbol]                       0x90018080   Section        0  stm32h7xx_ll_usb.o(.text.USB_ReadDevAllInEpInterrupt)
    [Anonymous Symbol]                       0x90018090   Section        0  stm32h7xx_ll_usb.o(.text.USB_ReadDevAllOutEpInterrupt)
    [Anonymous Symbol]                       0x900180a0   Section        0  stm32h7xx_ll_usb.o(.text.USB_ReadDevInEPInterrupt)
    [Anonymous Symbol]                       0x900180c8   Section        0  stm32h7xx_ll_usb.o(.text.USB_ReadDevOutEPInterrupt)
    [Anonymous Symbol]                       0x900180d8   Section        0  stm32h7xx_ll_usb.o(.text.USB_ReadInterrupts)
    [Anonymous Symbol]                       0x900180e0   Section        0  stm32h7xx_ll_usb.o(.text.USB_ReadPacket)
    [Anonymous Symbol]                       0x900181a8   Section        0  stm32h7xx_ll_usb.o(.text.USB_SetCurrentMode)
    [Anonymous Symbol]                       0x90018218   Section        0  stm32h7xx_ll_usb.o(.text.USB_SetDevAddress)
    [Anonymous Symbol]                       0x90018240   Section        0  stm32h7xx_ll_usb.o(.text.USB_SetTurnaroundTime)
    [Anonymous Symbol]                       0x90018360   Section        0  stm32h7xx_ll_usb.o(.text.USB_WritePacket)
    [Anonymous Symbol]                       0x900183e0   Section        0  stm32h7xx_it.o(.text.UsageFault_Handler)
    [Anonymous Symbol]                       0x900183e8   Section        0  lv_anim.o(.text._lv_anim_core_init)
    [Anonymous Symbol]                       0x90018440   Section        0  lv_area.o(.text._lv_area_intersect)
    [Anonymous Symbol]                       0x900184a0   Section        0  lv_area.o(.text._lv_area_is_in)
    [Anonymous Symbol]                       0x90018540   Section        0  lv_area.o(.text._lv_area_is_on)
    [Anonymous Symbol]                       0x90018578   Section        0  lv_area.o(.text._lv_area_is_out)
    [Anonymous Symbol]                       0x90018620   Section        0  lv_area.o(.text._lv_area_is_point_on)
    [Anonymous Symbol]                       0x90018770   Section        0  lv_area.o(.text._lv_area_join)
    [Anonymous Symbol]                       0x900187b8   Section        0  lv_refr.o(.text._lv_disp_refr_timer)
    [Anonymous Symbol]                       0x90018c78   Section        0  lv_draw_mask.o(.text._lv_draw_mask_cleanup)
    [Anonymous Symbol]                       0x90018cd0   Section        0  lv_event.o(.text._lv_event_mark_deleted)
    [Anonymous Symbol]                       0x90018d00   Section        0  lv_font_fmt_txt.o(.text._lv_font_clean_up_fmt_txt)
    [Anonymous Symbol]                       0x90018d08   Section        0  lv_fs.o(.text._lv_fs_init)
    [Anonymous Symbol]                       0x90018d18   Section        0  lv_group.o(.text._lv_group_init)
    [Anonymous Symbol]                       0x90018d28   Section        0  lv_img_buf.o(.text._lv_img_buf_get_transformed_area)
    [Anonymous Symbol]                       0x90018f38   Section        0  lv_img_buf.o(.text._lv_img_buf_transform)
    [Anonymous Symbol]                       0x90019098   Section        0  lv_img_buf.o(.text._lv_img_buf_transform_anti_alias)
    [Anonymous Symbol]                       0x900193d0   Section        0  lv_img_buf.o(.text._lv_img_buf_transform_init)
    [Anonymous Symbol]                       0x900194e0   Section        0  lv_img_cache.o(.text._lv_img_cache_open)
    [Anonymous Symbol]                       0x90019548   Section        0  lv_img_decoder.o(.text._lv_img_decoder_init)
    [Anonymous Symbol]                       0x90019598   Section        0  lv_hal_indev.o(.text._lv_indev_read)
    [Anonymous Symbol]                       0x900195d8   Section        0  lv_indev_scroll.o(.text._lv_indev_scroll_handler)
    [Anonymous Symbol]                       0x90019b28   Section        0  lv_indev_scroll.o(.text._lv_indev_scroll_throw_handler)
    [Anonymous Symbol]                       0x90019e68   Section        0  lv_refr.o(.text._lv_inv_area)
    [Anonymous Symbol]                       0x90019f38   Section        0  lv_ll.o(.text._lv_ll_clear)
    [Anonymous Symbol]                       0x90019f98   Section        0  lv_ll.o(.text._lv_ll_get_head)
    [Anonymous Symbol]                       0x90019fa8   Section        0  lv_ll.o(.text._lv_ll_get_len)
    [Anonymous Symbol]                       0x90019fd8   Section        0  lv_ll.o(.text._lv_ll_get_next)
    [Anonymous Symbol]                       0x90019fe0   Section        0  lv_ll.o(.text._lv_ll_get_prev)
    [Anonymous Symbol]                       0x90019fe8   Section        0  lv_ll.o(.text._lv_ll_get_tail)
    [Anonymous Symbol]                       0x90019ff8   Section        0  lv_ll.o(.text._lv_ll_init)
    [Anonymous Symbol]                       0x9001a008   Section        0  lv_ll.o(.text._lv_ll_ins_head)
    [Anonymous Symbol]                       0x9001a040   Section        0  lv_ll.o(.text._lv_ll_ins_tail)
    [Anonymous Symbol]                       0x9001a078   Section        0  lv_ll.o(.text._lv_ll_is_empty)
    [Anonymous Symbol]                       0x9001a090   Section        0  lv_ll.o(.text._lv_ll_remove)
    [Anonymous Symbol]                       0x9001a0e8   Section        0  lv_obj_class.o(.text._lv_obj_destruct)
    [Anonymous Symbol]                       0x9001a110   Section        0  lv_obj_draw.o(.text._lv_obj_get_ext_draw_size)
    [Anonymous Symbol]                       0x9001a120   Section        0  lv_obj_style.o(.text._lv_obj_style_create_transition)
    [Anonymous Symbol]                       0x9001a278   Section        0  lv_obj_style.o(.text._lv_obj_style_init)
    [Anonymous Symbol]                       0x9001a288   Section        0  lv_obj_style.o(.text._lv_obj_style_state_compare)
    [Anonymous Symbol]                       0x9001a540   Section        0  lv_refr.o(.text._lv_refr_get_disp_refreshing)
    [Anonymous Symbol]                       0x9001a550   Section        0  lv_refr.o(.text._lv_refr_init)
    [Anonymous Symbol]                       0x9001a558   Section        0  lv_style.o(.text._lv_style_get_prop_group)
    [Anonymous Symbol]                       0x9001a568   Section        0  lv_timer.o(.text._lv_timer_core_init)
    [Anonymous Symbol]                       0x9001a588   Section        0  lv_txt.o(.text._lv_txt_cut)
    [Anonymous Symbol]                       0x9001a5f8   Section        0  lv_txt.o(.text._lv_txt_encoded_letter_next_2)
    [Anonymous Symbol]                       0x9001a638   Section        0  lv_txt.o(.text._lv_txt_get_next_line)
    [Anonymous Symbol]                       0x9001aa98   Section        0  lv_txt.o(.text._lv_txt_ins)
    [Anonymous Symbol]                       0x9001abd0   Section        0  lv_txt.o(.text._lv_txt_is_cmd)
    [Anonymous Symbol]                       0x9001ac18   Section        0  lv_txt.o(.text._lv_txt_set_text_vfmt)
    [Anonymous Symbol]                       0x9001ac60   Section        0  lv_utils.o(.text._lv_utils_bsearch)
    _ntoa_format                             0x9001acb1   Thumb Code   574  lv_printf.o(.text._ntoa_format)
    [Anonymous Symbol]                       0x9001acb0   Section        0  lv_printf.o(.text._ntoa_format)
    _out_buffer                              0x9001aef1   Thumb Code     8  lv_printf.o(.text._out_buffer)
    [Anonymous Symbol]                       0x9001aef0   Section        0  lv_printf.o(.text._out_buffer)
    _out_null                                0x9001aef9   Thumb Code     2  lv_printf.o(.text._out_null)
    [Anonymous Symbol]                       0x9001aef8   Section        0  lv_printf.o(.text._out_null)
    [Anonymous Symbol]                       0x9001af00   Section        0  retarget_io.o(.text._sys_close)
    [Anonymous Symbol]                       0x9001af18   Section        0  retarget_io.o(.text._sys_flen)
    [Anonymous Symbol]                       0x9001af20   Section        0  retarget_io.o(.text._sys_istty)
    [Anonymous Symbol]                       0x9001af30   Section        0  retarget_io.o(.text._sys_open)
    [Anonymous Symbol]                       0x9001af98   Section        0  retarget_io.o(.text._sys_seek)
    [Anonymous Symbol]                       0x9001afa0   Section        0  retarget_io.o(.text._sys_write)
    _vsnprintf                               0x9001b029   Thumb Code  2468  lv_printf.o(.text._vsnprintf)
    [Anonymous Symbol]                       0x9001b028   Section        0  lv_printf.o(.text._vsnprintf)
    anim_timer                               0x9001b9d1   Thumb Code   416  lv_anim.o(.text.anim_timer)
    [Anonymous Symbol]                       0x9001b9d0   Section        0  lv_anim.o(.text.anim_timer)
    [Anonymous Symbol]                       0x9001bb70   Section        0  app.o(.text.app_create)
    [Anonymous Symbol]                       0x9001bbf8   Section        0  app_picture.o(.text.app_picture_load)
    [Anonymous Symbol]                       0x9001bda0   Section        0  app_setting.o(.text.app_setting_load)
    [Anonymous Symbol]                       0x9001be18   Section        0  app_terminal.o(.text.app_terminal_load)
    apply_theme                              0x9001bf29   Thumb Code    34  lv_theme.o(.text.apply_theme)
    [Anonymous Symbol]                       0x9001bf28   Section        0  lv_theme.o(.text.apply_theme)
    arc_anim_end_angle                       0x9001bf51   Thumb Code     6  lv_spinner.o(.text.arc_anim_end_angle)
    [Anonymous Symbol]                       0x9001bf50   Section        0  lv_spinner.o(.text.arc_anim_end_angle)
    arc_anim_start_angle                     0x9001bf59   Thumb Code     6  lv_spinner.o(.text.arc_anim_start_angle)
    [Anonymous Symbol]                       0x9001bf58   Section        0  lv_spinner.o(.text.arc_anim_start_angle)
    block_locate_free                        0x9001bf61   Thumb Code   238  lv_tlsf.o(.text.block_locate_free)
    [Anonymous Symbol]                       0x9001bf60   Section        0  lv_tlsf.o(.text.block_locate_free)
    block_merge_next                         0x9001c051   Thumb Code   198  lv_tlsf.o(.text.block_merge_next)
    [Anonymous Symbol]                       0x9001c050   Section        0  lv_tlsf.o(.text.block_merge_next)
    block_prepare_used                       0x9001c119   Thumb Code   318  lv_tlsf.o(.text.block_prepare_used)
    [Anonymous Symbol]                       0x9001c118   Section        0  lv_tlsf.o(.text.block_prepare_used)
    btn_release_handler                      0x9001c259   Thumb Code   152  lv_dropdown.o(.text.btn_release_handler)
    [Anonymous Symbol]                       0x9001c258   Section        0  lv_dropdown.o(.text.btn_release_handler)
    btns_value_changed_event_cb              0x9001c2f1   Thumb Code    34  lv_tabview.o(.text.btns_value_changed_event_cb)
    [Anonymous Symbol]                       0x9001c2f0   Section        0  lv_tabview.o(.text.btns_value_changed_event_cb)
    children_repos                           0x9001c319   Thumb Code  1538  lv_flex.o(.text.children_repos)
    [Anonymous Symbol]                       0x9001c318   Section        0  lv_flex.o(.text.children_repos)
    color_blend_true_color_additive          0x9001c921   Thumb Code   130  lv_draw_sw_blend.o(.text.color_blend_true_color_additive)
    [Anonymous Symbol]                       0x9001c920   Section        0  lv_draw_sw_blend.o(.text.color_blend_true_color_additive)
    color_blend_true_color_multiply          0x9001c9a9   Thumb Code   132  lv_draw_sw_blend.o(.text.color_blend_true_color_multiply)
    [Anonymous Symbol]                       0x9001c9a8   Section        0  lv_draw_sw_blend.o(.text.color_blend_true_color_multiply)
    color_blend_true_color_subtractive       0x9001ca31   Thumb Code   126  lv_draw_sw_blend.o(.text.color_blend_true_color_subtractive)
    [Anonymous Symbol]                       0x9001ca30   Section        0  lv_draw_sw_blend.o(.text.color_blend_true_color_subtractive)
    cont_scroll_end_event_cb                 0x9001cab1   Thumb Code   146  lv_tabview.o(.text.cont_scroll_end_event_cb)
    [Anonymous Symbol]                       0x9001cab0   Section        0  lv_tabview.o(.text.cont_scroll_end_event_cb)
    create_chain                             0x9001cb49   Thumb Code   274  ff.o(.text.create_chain)
    [Anonymous Symbol]                       0x9001cb48   Section        0  ff.o(.text.create_chain)
    cursor_blink_anim_cb                     0x9001cc61   Thumb Code    92  lv_textarea.o(.text.cursor_blink_anim_cb)
    [Anonymous Symbol]                       0x9001cc60   Section        0  lv_textarea.o(.text.cursor_blink_anim_cb)
    dark_color_filter_cb                     0x9001ccc1   Thumb Code     8  lv_theme_default.o(.text.dark_color_filter_cb)
    [Anonymous Symbol]                       0x9001ccc0   Section        0  lv_theme_default.o(.text.dark_color_filter_cb)
    decoder_close                            0x9001ccc9   Thumb Code    42  lv_sjpg.o(.text.decoder_close)
    [Anonymous Symbol]                       0x9001ccc8   Section        0  lv_sjpg.o(.text.decoder_close)
    decoder_info                             0x9001ccf9   Thumb Code   690  lv_sjpg.o(.text.decoder_info)
    [Anonymous Symbol]                       0x9001ccf8   Section        0  lv_sjpg.o(.text.decoder_info)
    decoder_open                             0x9001cfb1   Thumb Code  1348  lv_sjpg.o(.text.decoder_open)
    [Anonymous Symbol]                       0x9001cfb0   Section        0  lv_sjpg.o(.text.decoder_open)
    decoder_read_line                        0x9001d4f9   Thumb Code  1172  lv_sjpg.o(.text.decoder_read_line)
    [Anonymous Symbol]                       0x9001d4f8   Section        0  lv_sjpg.o(.text.decoder_read_line)
    default_walker                           0x9001d991   Thumb Code     2  lv_tlsf.o(.text.default_walker)
    [Anonymous Symbol]                       0x9001d990   Section        0  lv_tlsf.o(.text.default_walker)
    dir_find                                 0x9001d999   Thumb Code  1450  ff.o(.text.dir_find)
    [Anonymous Symbol]                       0x9001d998   Section        0  ff.o(.text.dir_find)
    dir_next                                 0x9001df49   Thumb Code   632  ff.o(.text.dir_next)
    [Anonymous Symbol]                       0x9001df48   Section        0  ff.o(.text.dir_next)
    dir_register                             0x9001e1c1   Thumb Code  2280  ff.o(.text.dir_register)
    [Anonymous Symbol]                       0x9001e1c0   Section        0  ff.o(.text.dir_register)
    dir_sdi                                  0x9001eaa9   Thumb Code   200  ff.o(.text.dir_sdi)
    [Anonymous Symbol]                       0x9001eaa8   Section        0  ff.o(.text.dir_sdi)
    [Anonymous Symbol]                       0x9001eb70   Section        0  diskio.o(.text.disk_initialize)
    [Anonymous Symbol]                       0x9001eb98   Section        0  diskio.o(.text.disk_ioctl)
    [Anonymous Symbol]                       0x9001ebb0   Section        0  diskio.o(.text.disk_read)
    [Anonymous Symbol]                       0x9001ebd0   Section        0  diskio.o(.text.disk_status)
    [Anonymous Symbol]                       0x9001ebe8   Section        0  diskio.o(.text.disk_write)
    disp_flush                               0x9001ec09   Thumb Code   124  lv_port_disp_template.o(.text.disp_flush)
    [Anonymous Symbol]                       0x9001ec08   Section        0  lv_port_disp_template.o(.text.disp_flush)
    draw_bg                                  0x9001ec89   Thumb Code  1380  lv_draw_sw_rect.o(.text.draw_bg)
    [Anonymous Symbol]                       0x9001ec88   Section        0  lv_draw_sw_rect.o(.text.draw_bg)
    draw_bg_img                              0x9001f1f1   Thumb Code   600  lv_draw_sw_rect.o(.text.draw_bg_img)
    [Anonymous Symbol]                       0x9001f1f0   Section        0  lv_draw_sw_rect.o(.text.draw_bg_img)
    [Anonymous Symbol]                       0x9001f448   Section        0  lv_draw_sw_rect.o(.text.draw_border_generic)
    draw_box                                 0x9001fb69   Thumb Code   194  lv_dropdown.o(.text.draw_box)
    [Anonymous Symbol]                       0x9001fb68   Section        0  lv_dropdown.o(.text.draw_box)
    draw_box_label                           0x9001fc31   Thumb Code   218  lv_dropdown.o(.text.draw_box_label)
    [Anonymous Symbol]                       0x9001fc30   Section        0  lv_dropdown.o(.text.draw_box_label)
    draw_buf_flush                           0x9001fd11   Thumb Code  2934  lv_refr.o(.text.draw_buf_flush)
    [Anonymous Symbol]                       0x9001fd10   Section        0  lv_refr.o(.text.draw_buf_flush)
    draw_part_begin_event_cb                 0x90020889   Thumb Code   174  lv_calendar.o(.text.draw_part_begin_event_cb)
    [Anonymous Symbol]                       0x90020888   Section        0  lv_calendar.o(.text.draw_part_begin_event_cb)
    draw_x_ticks                             0x90020939   Thumb Code   966  lv_chart.o(.text.draw_x_ticks)
    [Anonymous Symbol]                       0x90020938   Section        0  lv_chart.o(.text.draw_x_ticks)
    draw_y_ticks                             0x90020d01   Thumb Code   818  lv_chart.o(.text.draw_y_ticks)
    [Anonymous Symbol]                       0x90020d00   Section        0  lv_chart.o(.text.draw_y_ticks)
    elastic_diff                             0x90021039   Thumb Code   386  lv_indev_scroll.o(.text.elastic_diff)
    [Anonymous Symbol]                       0x90021038   Section        0  lv_indev_scroll.o(.text.elastic_diff)
    [Anonymous Symbol]                       0x900211c0   Section        0  event_home.o(.text.event_app_block_hidden)
    [Anonymous Symbol]                       0x90021228   Section        0  event_start.o(.text.event_bar_100)
    [Anonymous Symbol]                       0x90021250   Section        0  app_picture.o(.text.event_btnmatrix)
    [Anonymous Symbol]                       0x900212e0   Section        0  app_picture.o(.text.event_drag)
    event_send_core                          0x90021321   Thumb Code   402  lv_event.o(.text.event_send_core)
    [Anonymous Symbol]                       0x90021320   Section        0  lv_event.o(.text.event_send_core)
    [Anonymous Symbol]                       0x900214b8   Section        0  event_start.o(.text.event_start_load)
    [Anonymous Symbol]                       0x900214f0   Section        0  event_time_btn.o(.text.event_time_update)
    [Anonymous Symbol]                       0x90021508   Section        0  event_home.o(.text.event_title_update)
    [Anonymous Symbol]                       0x90021558   Section        0  app.o(.text.event_to_app_tab)
    [Anonymous Symbol]                       0x900215c8   Section        0  ff.o(.text.f_close)
    [Anonymous Symbol]                       0x90021630   Section        0  ff.o(.text.f_lseek)
    [Anonymous Symbol]                       0x900219c0   Section        0  ff.o(.text.f_mkfs)
    [Anonymous Symbol]                       0x900221e8   Section        0  ff.o(.text.f_mount)
    [Anonymous Symbol]                       0x90022310   Section        0  ff.o(.text.f_open)
    [Anonymous Symbol]                       0x90022790   Section        0  ff.o(.text.f_read)
    [Anonymous Symbol]                       0x90022aa0   Section        0  ff.o(.text.f_sync)
    [Anonymous Symbol]                       0x90022be8   Section        0  ff.o(.text.f_write)
    [Anonymous Symbol]                       0x90022f30   Section        0  ccsbcs.o(.text.ff_convert)
    [Anonymous Symbol]                       0x90023070   Section        0  ccsbcs.o(.text.ff_wtoupper)
    find_snap_point_x                        0x90023141   Thumb Code   424  lv_indev_scroll.o(.text.find_snap_point_x)
    [Anonymous Symbol]                       0x90023140   Section        0  lv_indev_scroll.o(.text.find_snap_point_x)
    find_snap_point_y                        0x900232e9   Thumb Code   424  lv_indev_scroll.o(.text.find_snap_point_y)
    [Anonymous Symbol]                       0x900232e8   Section        0  lv_indev_scroll.o(.text.find_snap_point_y)
    find_track_end                           0x90023491   Thumb Code   714  lv_flex.o(.text.find_track_end)
    [Anonymous Symbol]                       0x90023490   Section        0  lv_flex.o(.text.find_track_end)
    find_volume                              0x90023761   Thumb Code  1738  ff.o(.text.find_volume)
    [Anonymous Symbol]                       0x90023760   Section        0  ff.o(.text.find_volume)
    flex_update                              0x90023e31   Thumb Code  1264  lv_flex.o(.text.flex_update)
    [Anonymous Symbol]                       0x90023e30   Section        0  lv_flex.o(.text.flex_update)
    follow_path                              0x90024321   Thumb Code  1324  ff.o(.text.follow_path)
    [Anonymous Symbol]                       0x90024320   Section        0  ff.o(.text.follow_path)
    fs_close                                 0x90024851   Thumb Code    16  lv_port_fs_template.o(.text.fs_close)
    [Anonymous Symbol]                       0x90024850   Section        0  lv_port_fs_template.o(.text.fs_close)
    fs_dir_close                             0x90024861   Thumb Code     4  lv_port_fs_template.o(.text.fs_dir_close)
    [Anonymous Symbol]                       0x90024860   Section        0  lv_port_fs_template.o(.text.fs_dir_close)
    fs_dir_open                              0x90024869   Thumb Code     4  lv_port_fs_template.o(.text.fs_dir_open)
    [Anonymous Symbol]                       0x90024868   Section        0  lv_port_fs_template.o(.text.fs_dir_open)
    fs_dir_read                              0x90024871   Thumb Code     4  lv_port_fs_template.o(.text.fs_dir_read)
    [Anonymous Symbol]                       0x90024870   Section        0  lv_port_fs_template.o(.text.fs_dir_read)
    fs_open                                  0x90024879   Thumb Code   104  lv_port_fs_template.o(.text.fs_open)
    [Anonymous Symbol]                       0x90024878   Section        0  lv_port_fs_template.o(.text.fs_open)
    fs_read                                  0x900248e9   Thumb Code    24  lv_port_fs_template.o(.text.fs_read)
    [Anonymous Symbol]                       0x900248e8   Section        0  lv_port_fs_template.o(.text.fs_read)
    fs_seek                                  0x90024901   Thumb Code    44  lv_port_fs_template.o(.text.fs_seek)
    [Anonymous Symbol]                       0x90024900   Section        0  lv_port_fs_template.o(.text.fs_seek)
    fs_tell                                  0x90024931   Thumb Code     4  lv_port_fs_template.o(.text.fs_tell)
    [Anonymous Symbol]                       0x90024930   Section        0  lv_port_fs_template.o(.text.fs_tell)
    fs_write                                 0x90024939   Thumb Code    24  lv_port_fs_template.o(.text.fs_write)
    [Anonymous Symbol]                       0x90024938   Section        0  lv_port_fs_template.o(.text.fs_write)
    get_button_from_point                    0x90024951   Thumb Code   446  lv_btnmatrix.o(.text.get_button_from_point)
    [Anonymous Symbol]                       0x90024950   Section        0  lv_btnmatrix.o(.text.get_button_from_point)
    get_center                               0x90024b11   Thumb Code   164  lv_arc.o(.text.get_center)
    [Anonymous Symbol]                       0x90024b10   Section        0  lv_arc.o(.text.get_center)
    get_fat                                  0x90024bb9   Thumb Code   774  ff.o(.text.get_fat)
    [Anonymous Symbol]                       0x90024bb8   Section        0  ff.o(.text.get_fat)
    [Anonymous Symbol]                       0x90024ec0   Section        0  fatfs.o(.text.get_fattime)
    get_glyph_dsc_id                         0x90024f19   Thumb Code   336  lv_font_fmt_txt.o(.text.get_glyph_dsc_id)
    [Anonymous Symbol]                       0x90024f18   Section        0  lv_font_fmt_txt.o(.text.get_glyph_dsc_id)
    get_knob_area                            0x90025069   Thumb Code   246  lv_arc.o(.text.get_knob_area)
    [Anonymous Symbol]                       0x90025068   Section        0  lv_arc.o(.text.get_knob_area)
    get_row_height                           0x90025161   Thumb Code   276  lv_table.o(.text.get_row_height)
    [Anonymous Symbol]                       0x90025160   Section        0  lv_table.o(.text.get_row_height)
    get_trans_style                          0x90025279   Thumb Code   478  lv_obj_style.o(.text.get_trans_style)
    [Anonymous Symbol]                       0x90025278   Section        0  lv_obj_style.o(.text.get_trans_style)
    grey_filter_cb                           0x90025459   Thumb Code    94  lv_theme_default.o(.text.grey_filter_cb)
    [Anonymous Symbol]                       0x90025458   Section        0  lv_theme_default.o(.text.grey_filter_cb)
    grid_align                               0x900254b9   Thumb Code   720  lv_grid.o(.text.grid_align)
    [Anonymous Symbol]                       0x900254b8   Section        0  lv_grid.o(.text.grid_align)
    grid_update                              0x90025789   Thumb Code  2784  lv_grid.o(.text.grid_update)
    [Anonymous Symbol]                       0x90025788   Section        0  lv_grid.o(.text.grid_update)
    [Anonymous Symbol]                       0x90026268   Section        0  gui_home.o(.text.gui_home_load)
    [Anonymous Symbol]                       0x900264e8   Section        0  gui_start.o(.text.gui_start_load)
    highlight_update                         0x90026641   Thumb Code   240  lv_calendar.o(.text.highlight_update)
    [Anonymous Symbol]                       0x90026640   Section        0  lv_calendar.o(.text.highlight_update)
    img_data_cb                              0x90026731   Thumb Code   320  lv_sjpg.o(.text.img_data_cb)
    [Anonymous Symbol]                       0x90026730   Section        0  lv_sjpg.o(.text.img_data_cb)
    indev_proc_press                         0x90026871   Thumb Code   848  lv_indev.o(.text.indev_proc_press)
    [Anonymous Symbol]                       0x90026870   Section        0  lv_indev.o(.text.indev_proc_press)
    indev_proc_release                       0x90026bc1   Thumb Code   154  lv_indev.o(.text.indev_proc_release)
    [Anonymous Symbol]                       0x90026bc0   Section        0  lv_indev.o(.text.indev_proc_release)
    inf_normalize                            0x90026c61   Thumb Code   156  lv_roller.o(.text.inf_normalize)
    [Anonymous Symbol]                       0x90026c60   Section        0  lv_roller.o(.text.inf_normalize)
    input_func                               0x90026d01   Thumb Code   122  lv_sjpg.o(.text.input_func)
    [Anonymous Symbol]                       0x90026d00   Section        0  lv_sjpg.o(.text.input_func)
    inv_arc_area                             0x90026d81   Thumb Code   170  lv_arc.o(.text.inv_arc_area)
    [Anonymous Symbol]                       0x90026d80   Section        0  lv_arc.o(.text.inv_arc_area)
    invalidate_button_area                   0x90026e31   Thumb Code   238  lv_btnmatrix.o(.text.invalidate_button_area)
    [Anonymous Symbol]                       0x90026e30   Section        0  lv_btnmatrix.o(.text.invalidate_button_area)
    invalidate_point                         0x90026f21   Thumb Code   406  lv_chart.o(.text.invalidate_point)
    [Anonymous Symbol]                       0x90026f20   Section        0  lv_chart.o(.text.invalidate_point)
    [Anonymous Symbol]                       0x900270b8   Section        0  tjpgd.o(.text.jd_decomp)
    [Anonymous Symbol]                       0x90028748   Section        0  tjpgd.o(.text.jd_prepare)
    kern_pair_16_compare                     0x90029871   Thumb Code    16  lv_font_fmt_txt.o(.text.kern_pair_16_compare)
    [Anonymous Symbol]                       0x90029870   Section        0  lv_font_fmt_txt.o(.text.kern_pair_16_compare)
    kern_pair_8_compare                      0x90029881   Thumb Code    16  lv_font_fmt_txt.o(.text.kern_pair_8_compare)
    [Anonymous Symbol]                       0x90029880   Section        0  lv_font_fmt_txt.o(.text.kern_pair_8_compare)
    label_event_cb                           0x90029891   Thumb Code   158  lv_textarea.o(.text.label_event_cb)
    [Anonymous Symbol]                       0x90029890   Section        0  lv_textarea.o(.text.label_event_cb)
    layout_update_core                       0x90029931   Thumb Code   122  lv_obj_pos.o(.text.layout_update_core)
    [Anonymous Symbol]                       0x90029930   Section        0  lv_obj_pos.o(.text.layout_update_core)
    [Anonymous Symbol]                       0x900299b0   Section        0  lv_anim.o(.text.lv_anim_del)
    [Anonymous Symbol]                       0x90029b08   Section        0  lv_anim.o(.text.lv_anim_get)
    [Anonymous Symbol]                       0x90029b78   Section        0  lv_anim.o(.text.lv_anim_init)
    [Anonymous Symbol]                       0x90029bb0   Section        0  lv_anim.o(.text.lv_anim_path_ease_in_out)
    [Anonymous Symbol]                       0x90029be8   Section        0  lv_anim.o(.text.lv_anim_path_ease_out)
    [Anonymous Symbol]                       0x90029c20   Section        0  lv_anim.o(.text.lv_anim_path_linear)
    [Anonymous Symbol]                       0x90029c48   Section        0  lv_anim.o(.text.lv_anim_path_step)
    [Anonymous Symbol]                       0x90029c58   Section        0  lv_anim.o(.text.lv_anim_speed_to_time)
    [Anonymous Symbol]                       0x90029c78   Section        0  lv_anim.o(.text.lv_anim_start)
    lv_arc_constructor                       0x90029d29   Thumb Code    96  lv_arc.o(.text.lv_arc_constructor)
    [Anonymous Symbol]                       0x90029d28   Section        0  lv_arc.o(.text.lv_arc_constructor)
    lv_arc_event                             0x90029d89   Thumb Code  1658  lv_arc.o(.text.lv_arc_event)
    [Anonymous Symbol]                       0x90029d88   Section        0  lv_arc.o(.text.lv_arc_event)
    [Anonymous Symbol]                       0x9002a408   Section        0  lv_arc.o(.text.lv_arc_set_bg_angles)
    [Anonymous Symbol]                       0x9002a420   Section        0  lv_arc.o(.text.lv_arc_set_bg_end_angle)
    [Anonymous Symbol]                       0x9002a498   Section        0  lv_arc.o(.text.lv_arc_set_bg_start_angle)
    [Anonymous Symbol]                       0x9002a518   Section        0  lv_arc.o(.text.lv_arc_set_end_angle)
    [Anonymous Symbol]                       0x9002a5d8   Section        0  lv_arc.o(.text.lv_arc_set_rotation)
    [Anonymous Symbol]                       0x9002a5e0   Section        0  lv_arc.o(.text.lv_arc_set_start_angle)
    lv_area_get_height                       0x9002a6a1   Thumb Code    12  lv_flex.o(.text.lv_area_get_height)
    [Anonymous Symbol]                       0x9002a6a0   Section        0  lv_flex.o(.text.lv_area_get_height)
    lv_area_get_height                       0x9002a6b1   Thumb Code    12  lv_bar.o(.text.lv_area_get_height)
    [Anonymous Symbol]                       0x9002a6b0   Section        0  lv_bar.o(.text.lv_area_get_height)
    [Anonymous Symbol]                       0x9002a6c0   Section        0  lv_area.o(.text.lv_area_get_size)
    lv_area_get_width                        0x9002a6e1   Thumb Code    12  lv_flex.o(.text.lv_area_get_width)
    [Anonymous Symbol]                       0x9002a6e0   Section        0  lv_flex.o(.text.lv_area_get_width)
    lv_area_get_width                        0x9002a6f1   Thumb Code    12  lv_bar.o(.text.lv_area_get_width)
    [Anonymous Symbol]                       0x9002a6f0   Section        0  lv_bar.o(.text.lv_area_get_width)
    [Anonymous Symbol]                       0x9002a700   Section        0  lv_area.o(.text.lv_area_increase)
    [Anonymous Symbol]                       0x9002a728   Section        0  lv_area.o(.text.lv_area_move)
    [Anonymous Symbol]                       0x9002a750   Section        0  lv_area.o(.text.lv_area_set)
    [Anonymous Symbol]                       0x9002a760   Section        0  lv_area.o(.text.lv_area_set_height)
    [Anonymous Symbol]                       0x9002a770   Section        0  lv_area.o(.text.lv_area_set_width)
    [Anonymous Symbol]                       0x9002a780   Section        0  lv_math.o(.text.lv_atan2)
    lv_bar_anim                              0x9002a849   Thumb Code    10  lv_bar.o(.text.lv_bar_anim)
    [Anonymous Symbol]                       0x9002a848   Section        0  lv_bar.o(.text.lv_bar_anim)
    lv_bar_anim_ready                        0x9002a859   Thumb Code    48  lv_bar.o(.text.lv_bar_anim_ready)
    [Anonymous Symbol]                       0x9002a858   Section        0  lv_bar.o(.text.lv_bar_anim_ready)
    lv_bar_constructor                       0x9002a889   Thumb Code   116  lv_bar.o(.text.lv_bar_constructor)
    [Anonymous Symbol]                       0x9002a888   Section        0  lv_bar.o(.text.lv_bar_constructor)
    [Anonymous Symbol]                       0x9002a900   Section        0  lv_bar.o(.text.lv_bar_create)
    lv_bar_destructor                        0x9002a921   Thumb Code    28  lv_bar.o(.text.lv_bar_destructor)
    [Anonymous Symbol]                       0x9002a920   Section        0  lv_bar.o(.text.lv_bar_destructor)
    lv_bar_event                             0x9002a941   Thumb Code  1614  lv_bar.o(.text.lv_bar_event)
    [Anonymous Symbol]                       0x9002a940   Section        0  lv_bar.o(.text.lv_bar_event)
    [Anonymous Symbol]                       0x9002af90   Section        0  lv_bar.o(.text.lv_bar_get_mode)
    [Anonymous Symbol]                       0x9002afa0   Section        0  lv_bar.o(.text.lv_bar_get_start_value)
    [Anonymous Symbol]                       0x9002afc8   Section        0  lv_bar.o(.text.lv_bar_get_value)
    [Anonymous Symbol]                       0x9002afd8   Section        0  lv_bar.o(.text.lv_bar_set_range)
    [Anonymous Symbol]                       0x9002b018   Section        0  lv_bar.o(.text.lv_bar_set_start_value)
    [Anonymous Symbol]                       0x9002b0b8   Section        0  lv_bar.o(.text.lv_bar_set_value)
    [Anonymous Symbol]                       0x9002b158   Section        0  lv_math.o(.text.lv_bezier3)
    lv_btn_constructor                       0x9002b1a9   Thumb Code    26  lv_btn.o(.text.lv_btn_constructor)
    [Anonymous Symbol]                       0x9002b1a8   Section        0  lv_btn.o(.text.lv_btn_constructor)
    [Anonymous Symbol]                       0x9002b1c8   Section        0  lv_btn.o(.text.lv_btn_create)
    [Anonymous Symbol]                       0x9002b1e8   Section        0  lv_btnmatrix.o(.text.lv_btnmatrix_clear_btn_ctrl_all)
    lv_btnmatrix_constructor                 0x9002b249   Thumb Code    42  lv_btnmatrix.o(.text.lv_btnmatrix_constructor)
    [Anonymous Symbol]                       0x9002b248   Section        0  lv_btnmatrix.o(.text.lv_btnmatrix_constructor)
    [Anonymous Symbol]                       0x9002b278   Section        0  lv_btnmatrix.o(.text.lv_btnmatrix_create)
    lv_btnmatrix_destructor                  0x9002b299   Thumb Code    24  lv_btnmatrix.o(.text.lv_btnmatrix_destructor)
    [Anonymous Symbol]                       0x9002b298   Section        0  lv_btnmatrix.o(.text.lv_btnmatrix_destructor)
    lv_btnmatrix_event                       0x9002b2b1   Thumb Code  2890  lv_btnmatrix.o(.text.lv_btnmatrix_event)
    [Anonymous Symbol]                       0x9002b2b0   Section        0  lv_btnmatrix.o(.text.lv_btnmatrix_event)
    [Anonymous Symbol]                       0x9002be00   Section        0  lv_btnmatrix.o(.text.lv_btnmatrix_get_btn_text)
    [Anonymous Symbol]                       0x9002be70   Section        0  lv_btnmatrix.o(.text.lv_btnmatrix_get_selected_btn)
    [Anonymous Symbol]                       0x9002be78   Section        0  lv_btnmatrix.o(.text.lv_btnmatrix_has_btn_ctrl)
    [Anonymous Symbol]                       0x9002be98   Section        0  lv_btnmatrix.o(.text.lv_btnmatrix_set_btn_ctrl)
    [Anonymous Symbol]                       0x9002bf00   Section        0  lv_btnmatrix.o(.text.lv_btnmatrix_set_btn_ctrl_all)
    [Anonymous Symbol]                       0x9002bfe8   Section        0  lv_btnmatrix.o(.text.lv_btnmatrix_set_ctrl_map)
    [Anonymous Symbol]                       0x9002c008   Section        0  lv_btnmatrix.o(.text.lv_btnmatrix_set_map)
    [Anonymous Symbol]                       0x9002c318   Section        0  lv_btnmatrix.o(.text.lv_btnmatrix_set_one_checked)
    [Anonymous Symbol]                       0x9002c330   Section        0  lv_btnmatrix.o(.text.lv_btnmatrix_set_selected_btn)
    lv_calendar_constructor                  0x9002c361   Thumb Code   236  lv_calendar.o(.text.lv_calendar_constructor)
    [Anonymous Symbol]                       0x9002c360   Section        0  lv_calendar.o(.text.lv_calendar_constructor)
    day_names_def                            0x9002c44c   Number         0  lv_calendar.o(.text.lv_calendar_constructor)
    [Anonymous Symbol]                       0x9002c470   Section        0  lv_calendar.o(.text.lv_calendar_get_showed_date)
    [Anonymous Symbol]                       0x9002c478   Section        0  lv_calendar.o(.text.lv_calendar_set_showed_date)
    lv_chart_constructor                     0x9002c781   Thumb Code    96  lv_chart.o(.text.lv_chart_constructor)
    [Anonymous Symbol]                       0x9002c780   Section        0  lv_chart.o(.text.lv_chart_constructor)
    lv_chart_destructor                      0x9002c7e1   Thumb Code   106  lv_chart.o(.text.lv_chart_destructor)
    [Anonymous Symbol]                       0x9002c7e0   Section        0  lv_chart.o(.text.lv_chart_destructor)
    lv_chart_event                           0x9002c851   Thumb Code  5110  lv_chart.o(.text.lv_chart_event)
    [Anonymous Symbol]                       0x9002c850   Section        0  lv_chart.o(.text.lv_chart_event)
    [Anonymous Symbol]                       0x9002dc48   Section        0  lv_chart.o(.text.lv_chart_get_point_pos_by_id)
    lv_checkbox_constructor                  0x9002de09   Thumb Code    52  lv_checkbox.o(.text.lv_checkbox_constructor)
    [Anonymous Symbol]                       0x9002de08   Section        0  lv_checkbox.o(.text.lv_checkbox_constructor)
    lv_checkbox_destructor                   0x9002de49   Thumb Code    26  lv_checkbox.o(.text.lv_checkbox_destructor)
    [Anonymous Symbol]                       0x9002de48   Section        0  lv_checkbox.o(.text.lv_checkbox_destructor)
    lv_checkbox_event                        0x9002de69   Thumb Code   790  lv_checkbox.o(.text.lv_checkbox_event)
    [Anonymous Symbol]                       0x9002de68   Section        0  lv_checkbox.o(.text.lv_checkbox_event)
    [Anonymous Symbol]                       0x9002e180   Section        0  lv_color.o(.text.lv_color_darken)
    [Anonymous Symbol]                       0x9002e1b0   Section        0  lv_color.o(.text.lv_color_fill)
    [Anonymous Symbol]                       0x9002e2d0   Section        0  lv_color.o(.text.lv_color_hsv_to_rgb)
    lv_colorwheel_constructor                0x9002e3d1   Thumb Code    84  lv_colorwheel.o(.text.lv_colorwheel_constructor)
    [Anonymous Symbol]                       0x9002e3d0   Section        0  lv_colorwheel.o(.text.lv_colorwheel_constructor)
    lv_colorwheel_event                      0x9002e429   Thumb Code  3138  lv_colorwheel.o(.text.lv_colorwheel_event)
    [Anonymous Symbol]                       0x9002e428   Section        0  lv_colorwheel.o(.text.lv_colorwheel_event)
    [Anonymous Symbol]                       0x9002f070   Section        0  lv_hal_disp.o(.text.lv_disp_draw_buf_init)
    [Anonymous Symbol]                       0x9002f090   Section        0  lv_hal_disp.o(.text.lv_disp_drv_init)
    [Anonymous Symbol]                       0x9002f0e0   Section        0  lv_hal_disp.o(.text.lv_disp_drv_register)
    [Anonymous Symbol]                       0x9002f218   Section        0  lv_hal_disp.o(.text.lv_disp_flush_ready)
    [Anonymous Symbol]                       0x9002f228   Section        0  lv_hal_disp.o(.text.lv_disp_get_default)
    [Anonymous Symbol]                       0x9002f238   Section        0  lv_hal_disp.o(.text.lv_disp_get_dpi)
    [Anonymous Symbol]                       0x9002f258   Section        0  lv_hal_disp.o(.text.lv_disp_get_draw_buf)
    [Anonymous Symbol]                       0x9002f260   Section        0  lv_hal_disp.o(.text.lv_disp_get_hor_res)
    [Anonymous Symbol]                       0x9002f298   Section        0  lv_disp.o(.text.lv_disp_get_layer_sys)
    [Anonymous Symbol]                       0x9002f2b0   Section        0  lv_disp.o(.text.lv_disp_get_layer_top)
    [Anonymous Symbol]                       0x9002f2c8   Section        0  lv_hal_disp.o(.text.lv_disp_get_next)
    [Anonymous Symbol]                       0x9002f2e8   Section        0  lv_disp.o(.text.lv_disp_get_scr_act)
    [Anonymous Symbol]                       0x9002f300   Section        0  lv_disp.o(.text.lv_disp_get_scr_prev)
    [Anonymous Symbol]                       0x9002f318   Section        0  lv_disp.o(.text.lv_disp_get_theme)
    [Anonymous Symbol]                       0x9002f328   Section        0  lv_hal_disp.o(.text.lv_disp_get_ver_res)
    [Anonymous Symbol]                       0x9002f360   Section        0  lv_disp.o(.text.lv_disp_load_scr)
    [Anonymous Symbol]                       0x9002f3b8   Section        0  lv_draw_arc.o(.text.lv_draw_arc)
    [Anonymous Symbol]                       0x9002f3e0   Section        0  lv_draw_arc.o(.text.lv_draw_arc_dsc_init)
    [Anonymous Symbol]                       0x9002f3f8   Section        0  lv_draw_arc.o(.text.lv_draw_arc_get_area)
    [Anonymous Symbol]                       0x9002f850   Section        0  lv_draw_img.o(.text.lv_draw_img)
    [Anonymous Symbol]                       0x9002faf8   Section        0  lv_draw_img.o(.text.lv_draw_img_dsc_init)
    [Anonymous Symbol]                       0x9002fb20   Section        0  lv_draw.o(.text.lv_draw_init)
    [Anonymous Symbol]                       0x9002fb28   Section        0  lv_draw_label.o(.text.lv_draw_label)
    [Anonymous Symbol]                       0x900302a8   Section        0  lv_draw_label.o(.text.lv_draw_label_dsc_init)
    [Anonymous Symbol]                       0x900302d8   Section        0  lv_draw_line.o(.text.lv_draw_line)
    [Anonymous Symbol]                       0x900302f8   Section        0  lv_draw_line.o(.text.lv_draw_line_dsc_init)
    [Anonymous Symbol]                       0x90030310   Section        0  lv_draw_mask.o(.text.lv_draw_mask_add)
    lv_draw_mask_angle                       0x900303d1   Thumb Code   736  lv_draw_mask.o(.text.lv_draw_mask_angle)
    [Anonymous Symbol]                       0x900303d0   Section        0  lv_draw_mask.o(.text.lv_draw_mask_angle)
    [Anonymous Symbol]                       0x900306b0   Section        0  lv_draw_mask.o(.text.lv_draw_mask_angle_init)
    [Anonymous Symbol]                       0x900307a8   Section        0  lv_draw_mask.o(.text.lv_draw_mask_apply)
    [Anonymous Symbol]                       0x90030800   Section        0  lv_draw_mask.o(.text.lv_draw_mask_free_param)
    [Anonymous Symbol]                       0x90030848   Section        0  lv_draw_mask.o(.text.lv_draw_mask_is_any)
    lv_draw_mask_line                        0x900308b1   Thumb Code  1248  lv_draw_mask.o(.text.lv_draw_mask_line)
    [Anonymous Symbol]                       0x900308b0   Section        0  lv_draw_mask.o(.text.lv_draw_mask_line)
    [Anonymous Symbol]                       0x90030d90   Section        0  lv_draw_mask.o(.text.lv_draw_mask_line_points_init)
    lv_draw_mask_radius                      0x90030ed9   Thumb Code   656  lv_draw_mask.o(.text.lv_draw_mask_radius)
    [Anonymous Symbol]                       0x90030ed8   Section        0  lv_draw_mask.o(.text.lv_draw_mask_radius)
    [Anonymous Symbol]                       0x90031168   Section        0  lv_draw_mask.o(.text.lv_draw_mask_radius_init)
    [Anonymous Symbol]                       0x90031748   Section        0  lv_draw_mask.o(.text.lv_draw_mask_remove_custom)
    [Anonymous Symbol]                       0x90031898   Section        0  lv_draw_mask.o(.text.lv_draw_mask_remove_id)
    [Anonymous Symbol]                       0x900318c0   Section        0  lv_draw_rect.o(.text.lv_draw_rect)
    [Anonymous Symbol]                       0x900318f0   Section        0  lv_draw_rect.o(.text.lv_draw_rect_dsc_init)
    [Anonymous Symbol]                       0x90031940   Section        0  lv_gpu_stm32_dma2d.o(.text.lv_draw_stm32_dma2d_blend)
    [Anonymous Symbol]                       0x90031cd8   Section        0  lv_gpu_stm32_dma2d.o(.text.lv_draw_stm32_dma2d_ctx_init)
    [Anonymous Symbol]                       0x90031cf8   Section        0  lv_gpu_stm32_dma2d.o(.text.lv_draw_stm32_dma2d_init)
    [Anonymous Symbol]                       0x90031d28   Section        0  lv_draw_sw_arc.o(.text.lv_draw_sw_arc)
    [Anonymous Symbol]                       0x90032908   Section        0  lv_draw_sw_rect.o(.text.lv_draw_sw_bg)
    [Anonymous Symbol]                       0x90032928   Section        0  lv_draw_sw_blend.o(.text.lv_draw_sw_blend)
    [Anonymous Symbol]                       0x90032958   Section        0  lv_draw_sw_blend.o(.text.lv_draw_sw_blend_basic)
    [Anonymous Symbol]                       0x90034338   Section        0  lv_draw_sw.o(.text.lv_draw_sw_buffer_copy)
    [Anonymous Symbol]                       0x900343a8   Section        0  lv_draw_sw_img.o(.text.lv_draw_sw_img_decoded)
    [Anonymous Symbol]                       0x90034ad0   Section        0  lv_draw_sw.o(.text.lv_draw_sw_init_ctx)
    [Anonymous Symbol]                       0x90034b48   Section        0  lv_draw_sw_letter.o(.text.lv_draw_sw_letter)
    [Anonymous Symbol]                       0x90035190   Section        0  lv_draw_sw_line.o(.text.lv_draw_sw_line)
    draw_line_skew.wcorr                     0x90035a54   Number         0  lv_draw_sw_line.o(.text.lv_draw_sw_line)
    [Anonymous Symbol]                       0x90035a78   Section        0  lv_draw_sw_polygon.o(.text.lv_draw_sw_polygon)
    [Anonymous Symbol]                       0x90035fe8   Section        0  lv_draw_sw_rect.o(.text.lv_draw_sw_rect)
    [Anonymous Symbol]                       0x90037368   Section        0  lv_draw_sw.o(.text.lv_draw_sw_wait_for_finish)
    lv_dropdown_constructor                  0x90037371   Thumb Code   228  lv_dropdown.o(.text.lv_dropdown_constructor)
    [Anonymous Symbol]                       0x90037370   Section        0  lv_dropdown.o(.text.lv_dropdown_constructor)
    [Anonymous Symbol]                       0x90037458   Section        0  lv_dropdown.o(.text.lv_dropdown_create)
    lv_dropdown_destructor                   0x90037479   Thumb Code    38  lv_dropdown.o(.text.lv_dropdown_destructor)
    [Anonymous Symbol]                       0x90037478   Section        0  lv_dropdown.o(.text.lv_dropdown_destructor)
    lv_dropdown_event                        0x900374a1   Thumb Code  1380  lv_dropdown.o(.text.lv_dropdown_event)
    [Anonymous Symbol]                       0x900374a0   Section        0  lv_dropdown.o(.text.lv_dropdown_event)
    [Anonymous Symbol]                       0x90037a08   Section        0  lv_dropdown.o(.text.lv_dropdown_get_selected)
    lv_dropdown_list_event                   0x90037a11   Thumb Code   656  lv_dropdown.o(.text.lv_dropdown_list_event)
    [Anonymous Symbol]                       0x90037a10   Section        0  lv_dropdown.o(.text.lv_dropdown_list_event)
    [Anonymous Symbol]                       0x90037ca0   Section        0  lv_dropdown.o(.text.lv_dropdown_open)
    [Anonymous Symbol]                       0x90037ec0   Section        0  lv_dropdown.o(.text.lv_dropdown_set_options)
    [Anonymous Symbol]                       0x90037f80   Section        0  lv_dropdown.o(.text.lv_dropdown_set_selected)
    lv_dropdownlist_constructor              0x90037f99   Thumb Code    50  lv_dropdown.o(.text.lv_dropdownlist_constructor)
    [Anonymous Symbol]                       0x90037f98   Section        0  lv_dropdown.o(.text.lv_dropdownlist_constructor)
    lv_dropdownlist_destructor               0x90037fd1   Thumb Code     8  lv_dropdown.o(.text.lv_dropdownlist_destructor)
    [Anonymous Symbol]                       0x90037fd0   Section        0  lv_dropdown.o(.text.lv_dropdownlist_destructor)
    [Anonymous Symbol]                       0x90037fd8   Section        0  lv_event.o(.text.lv_event_get_code)
    [Anonymous Symbol]                       0x90037fe0   Section        0  lv_event.o(.text.lv_event_get_current_target)
    [Anonymous Symbol]                       0x90037fe8   Section        0  lv_event.o(.text.lv_event_get_draw_ctx)
    [Anonymous Symbol]                       0x90037ff8   Section        0  lv_event.o(.text.lv_event_get_indev)
    [Anonymous Symbol]                       0x90038008   Section        0  lv_event.o(.text.lv_event_get_param)
    [Anonymous Symbol]                       0x90038010   Section        0  lv_event.o(.text.lv_event_get_target)
    [Anonymous Symbol]                       0x90038018   Section        0  lv_event.o(.text.lv_event_get_user_data)
    [Anonymous Symbol]                       0x90038020   Section        0  lv_event.o(.text.lv_event_send)
    [Anonymous Symbol]                       0x90038058   Section        0  lv_event.o(.text.lv_event_set_ext_draw_size)
    [Anonymous Symbol]                       0x90038070   Section        0  lv_extra.o(.text.lv_extra_init)
    [Anonymous Symbol]                       0x90038088   Section        0  lv_flex.o(.text.lv_flex_init)
    [Anonymous Symbol]                       0x900380c8   Section        0  lv_font_fmt_txt.o(.text.lv_font_get_bitmap_fmt_txt)
    [Anonymous Symbol]                       0x90038100   Section        0  lv_font.o(.text.lv_font_get_glyph_bitmap)
    [Anonymous Symbol]                       0x90038110   Section        0  lv_font.o(.text.lv_font_get_glyph_dsc)
    [Anonymous Symbol]                       0x900381c8   Section        0  lv_font_fmt_txt.o(.text.lv_font_get_glyph_dsc_fmt_txt)
    [Anonymous Symbol]                       0x90038308   Section        0  lv_font.o(.text.lv_font_get_glyph_width)
    [Anonymous Symbol]                       0x900383a8   Section        0  lv_fs.o(.text.lv_fs_close)
    [Anonymous Symbol]                       0x900383e8   Section        0  lv_fs.o(.text.lv_fs_drv_register)
    [Anonymous Symbol]                       0x90038408   Section        0  lv_fs.o(.text.lv_fs_get_ext)
    [Anonymous Symbol]                       0x90038490   Section        0  lv_fs.o(.text.lv_fs_open)
    [Anonymous Symbol]                       0x90038548   Section        0  lv_fs.o(.text.lv_fs_read)
    [Anonymous Symbol]                       0x900386b0   Section        0  lv_fs.o(.text.lv_fs_seek)
    [Anonymous Symbol]                       0x90038758   Section        0  lv_fs.o(.text.lv_fs_tell)
    [Anonymous Symbol]                       0x90038790   Section        0  lv_gpu_stm32_dma2d.o(.text.lv_gpu_stm32_dma2d_wait_cb)
    [Anonymous Symbol]                       0x900387f0   Section        0  lv_draw_sw_gradient.o(.text.lv_gradient_calculate)
    [Anonymous Symbol]                       0x90038990   Section        0  lv_draw_sw_gradient.o(.text.lv_gradient_cleanup)
    [Anonymous Symbol]                       0x900389a0   Section        0  lv_draw_sw_gradient.o(.text.lv_gradient_get)
    [Anonymous Symbol]                       0x90038cf0   Section        0  lv_grid.o(.text.lv_grid_init)
    [Anonymous Symbol]                       0x90038d70   Section        0  lv_group.o(.text.lv_group_add_obj)
    [Anonymous Symbol]                       0x90038e30   Section        0  lv_group.o(.text.lv_group_focus_next)
    [Anonymous Symbol]                       0x90038fc0   Section        0  lv_group.o(.text.lv_group_focus_obj)
    [Anonymous Symbol]                       0x90039100   Section        0  lv_group.o(.text.lv_group_focus_prev)
    [Anonymous Symbol]                       0x90039290   Section        0  lv_group.o(.text.lv_group_get_default)
    [Anonymous Symbol]                       0x900392a0   Section        0  lv_group.o(.text.lv_group_get_editing)
    [Anonymous Symbol]                       0x900392b0   Section        0  lv_group.o(.text.lv_group_get_focused)
    [Anonymous Symbol]                       0x900392c0   Section        0  lv_group.o(.text.lv_group_get_obj_count)
    [Anonymous Symbol]                       0x900392c8   Section        0  lv_group.o(.text.lv_group_remove_obj)
    [Anonymous Symbol]                       0x900393f0   Section        0  lv_group.o(.text.lv_group_send_data)
    [Anonymous Symbol]                       0x90039418   Section        0  lv_group.o(.text.lv_group_set_editing)
    [Anonymous Symbol]                       0x900394b8   Section        0  lv_img_buf.o(.text.lv_img_buf_get_px_alpha)
    [Anonymous Symbol]                       0x900395b8   Section        0  lv_img_buf.o(.text.lv_img_buf_get_px_color)
    [Anonymous Symbol]                       0x90039698   Section        0  lv_draw_img.o(.text.lv_img_cf_get_px_size)
    [Anonymous Symbol]                       0x900396d0   Section        0  lv_draw_img.o(.text.lv_img_cf_has_alpha)
    [Anonymous Symbol]                       0x900396f0   Section        0  lv_draw_img.o(.text.lv_img_cf_is_chroma_keyed)
    lv_img_constructor                       0x90039701   Thumb Code    98  lv_img.o(.text.lv_img_constructor)
    [Anonymous Symbol]                       0x90039700   Section        0  lv_img.o(.text.lv_img_constructor)
    [Anonymous Symbol]                       0x90039768   Section        0  lv_img.o(.text.lv_img_create)
    [Anonymous Symbol]                       0x90039788   Section        0  lv_img_decoder.o(.text.lv_img_decoder_built_in_close)
    [Anonymous Symbol]                       0x900397c0   Section        0  lv_img_decoder.o(.text.lv_img_decoder_built_in_info)
    [Anonymous Symbol]                       0x900398c0   Section        0  lv_img_decoder.o(.text.lv_img_decoder_built_in_open)
    [Anonymous Symbol]                       0x90039b00   Section        0  lv_img_decoder.o(.text.lv_img_decoder_built_in_read_line)
    [Anonymous Symbol]                       0x9003a1d8   Section        0  lv_img_decoder.o(.text.lv_img_decoder_close)
    [Anonymous Symbol]                       0x9003a200   Section        0  lv_img_decoder.o(.text.lv_img_decoder_create)
    [Anonymous Symbol]                       0x9003a220   Section        0  lv_img_decoder.o(.text.lv_img_decoder_get_info)
    [Anonymous Symbol]                       0x9003a290   Section        0  lv_img_decoder.o(.text.lv_img_decoder_open)
    [Anonymous Symbol]                       0x9003a3a0   Section        0  lv_img_decoder.o(.text.lv_img_decoder_read_line)
    [Anonymous Symbol]                       0x9003a3c8   Section        0  lv_img_decoder.o(.text.lv_img_decoder_set_close_cb)
    [Anonymous Symbol]                       0x9003a3d0   Section        0  lv_img_decoder.o(.text.lv_img_decoder_set_info_cb)
    [Anonymous Symbol]                       0x9003a3d8   Section        0  lv_img_decoder.o(.text.lv_img_decoder_set_open_cb)
    [Anonymous Symbol]                       0x9003a3e0   Section        0  lv_img_decoder.o(.text.lv_img_decoder_set_read_line_cb)
    lv_img_destructor                        0x9003a3e9   Thumb Code    44  lv_img.o(.text.lv_img_destructor)
    [Anonymous Symbol]                       0x9003a3e8   Section        0  lv_img.o(.text.lv_img_destructor)
    lv_img_event                             0x9003a419   Thumb Code  2098  lv_img.o(.text.lv_img_event)
    [Anonymous Symbol]                       0x9003a418   Section        0  lv_img.o(.text.lv_img_event)
    [Anonymous Symbol]                       0x9003ac50   Section        0  lv_img.o(.text.lv_img_get_angle)
    [Anonymous Symbol]                       0x9003ac58   Section        0  lv_img.o(.text.lv_img_get_zoom)
    [Anonymous Symbol]                       0x9003ac60   Section        0  lv_img.o(.text.lv_img_set_angle)
    [Anonymous Symbol]                       0x9003ad80   Section        0  lv_img.o(.text.lv_img_set_size_mode)
    [Anonymous Symbol]                       0x9003ada0   Section        0  lv_img.o(.text.lv_img_set_src)
    [Anonymous Symbol]                       0x9003af20   Section        0  lv_img.o(.text.lv_img_set_zoom)
    [Anonymous Symbol]                       0x9003b038   Section        0  lv_draw_img.o(.text.lv_img_src_get_type)
    [Anonymous Symbol]                       0x9003b060   Section        0  lv_hal_indev.o(.text.lv_indev_drv_init)
    [Anonymous Symbol]                       0x9003b088   Section        0  lv_hal_indev.o(.text.lv_indev_drv_register)
    [Anonymous Symbol]                       0x9003b0d8   Section        0  lv_indev.o(.text.lv_indev_get_act)
    [Anonymous Symbol]                       0x9003b0e8   Section        0  lv_hal_indev.o(.text.lv_indev_get_next)
    [Anonymous Symbol]                       0x9003b108   Section        0  lv_indev.o(.text.lv_indev_get_obj_act)
    [Anonymous Symbol]                       0x9003b118   Section        0  lv_indev.o(.text.lv_indev_get_point)
    [Anonymous Symbol]                       0x9003b148   Section        0  lv_indev.o(.text.lv_indev_get_scroll_dir)
    [Anonymous Symbol]                       0x9003b168   Section        0  lv_indev.o(.text.lv_indev_get_scroll_obj)
    [Anonymous Symbol]                       0x9003b180   Section        0  lv_indev.o(.text.lv_indev_get_type)
    [Anonymous Symbol]                       0x9003b190   Section        0  lv_indev.o(.text.lv_indev_get_vect)
    [Anonymous Symbol]                       0x9003b1b0   Section        0  lv_indev.o(.text.lv_indev_read_timer_cb)
    [Anonymous Symbol]                       0x9003b948   Section        0  lv_indev.o(.text.lv_indev_reset)
    [Anonymous Symbol]                       0x9003ba20   Section        0  lv_indev.o(.text.lv_indev_reset_long_press)
    [Anonymous Symbol]                       0x9003ba40   Section        0  lv_indev_scroll.o(.text.lv_indev_scroll_throw_predict)
    [Anonymous Symbol]                       0x9003bad0   Section        0  lv_indev.o(.text.lv_indev_search_obj)
    [Anonymous Symbol]                       0x9003bb40   Section        0  lv_indev.o(.text.lv_indev_wait_release)
    [Anonymous Symbol]                       0x9003bb50   Section        0  lv_obj.o(.text.lv_init)
    lv_keyboard_constructor                  0x9003bbb9   Thumb Code   104  lv_keyboard.o(.text.lv_keyboard_constructor)
    [Anonymous Symbol]                       0x9003bbb8   Section        0  lv_keyboard.o(.text.lv_keyboard_constructor)
    [Anonymous Symbol]                       0x9003bc20   Section        0  lv_keyboard.o(.text.lv_keyboard_def_event_cb)
    lv_keyboard_update_ctrl_map              0x9003be69   Thumb Code   180  lv_keyboard.o(.text.lv_keyboard_update_ctrl_map)
    [Anonymous Symbol]                       0x9003be68   Section        0  lv_keyboard.o(.text.lv_keyboard_update_ctrl_map)
    lv_label_constructor                     0x9003bf21   Thumb Code    72  lv_label.o(.text.lv_label_constructor)
    [Anonymous Symbol]                       0x9003bf20   Section        0  lv_label.o(.text.lv_label_constructor)
    [Anonymous Symbol]                       0x9003bf70   Section        0  lv_label.o(.text.lv_label_create)
    lv_label_destructor                      0x9003bf91   Thumb Code    52  lv_label.o(.text.lv_label_destructor)
    [Anonymous Symbol]                       0x9003bf90   Section        0  lv_label.o(.text.lv_label_destructor)
    lv_label_event                           0x9003bfc9   Thumb Code  1346  lv_label.o(.text.lv_label_event)
    [Anonymous Symbol]                       0x9003bfc8   Section        0  lv_label.o(.text.lv_label_event)
    [Anonymous Symbol]                       0x9003c510   Section        0  lv_label.o(.text.lv_label_get_letter_on)
    [Anonymous Symbol]                       0x9003c7c0   Section        0  lv_label.o(.text.lv_label_get_letter_pos)
    [Anonymous Symbol]                       0x9003c9f8   Section        0  lv_label.o(.text.lv_label_get_text)
    [Anonymous Symbol]                       0x9003ca00   Section        0  lv_label.o(.text.lv_label_get_text_selection_end)
    [Anonymous Symbol]                       0x9003ca08   Section        0  lv_label.o(.text.lv_label_get_text_selection_start)
    [Anonymous Symbol]                       0x9003ca10   Section        0  lv_label.o(.text.lv_label_ins_text)
    [Anonymous Symbol]                       0x9003ca80   Section        0  lv_label.o(.text.lv_label_is_char_under_pos)
    lv_label_refr_text                       0x9003ccf1   Thumb Code  1482  lv_label.o(.text.lv_label_refr_text)
    [Anonymous Symbol]                       0x9003ccf0   Section        0  lv_label.o(.text.lv_label_refr_text)
    [Anonymous Symbol]                       0x9003d2c0   Section        0  lv_label.o(.text.lv_label_set_long_mode)
    [Anonymous Symbol]                       0x9003d3e8   Section        0  lv_label.o(.text.lv_label_set_recolor)
    [Anonymous Symbol]                       0x9003d410   Section        0  lv_label.o(.text.lv_label_set_text)
    [Anonymous Symbol]                       0x9003d498   Section        0  lv_label.o(.text.lv_label_set_text_fmt)
    [Anonymous Symbol]                       0x9003d4f0   Section        0  lv_label.o(.text.lv_label_set_text_sel_end)
    [Anonymous Symbol]                       0x9003d4f8   Section        0  lv_label.o(.text.lv_label_set_text_sel_start)
    [Anonymous Symbol]                       0x9003d500   Section        0  lv_label.o(.text.lv_label_set_text_static)
    [Anonymous Symbol]                       0x9003d538   Section        0  lv_obj_pos.o(.text.lv_layout_register)
    lv_led_constructor                       0x9003d581   Thumb Code    20  lv_led.o(.text.lv_led_constructor)
    [Anonymous Symbol]                       0x9003d580   Section        0  lv_led.o(.text.lv_led_constructor)
    lv_led_event                             0x9003d599   Thumb Code   694  lv_led.o(.text.lv_led_event)
    [Anonymous Symbol]                       0x9003d598   Section        0  lv_led.o(.text.lv_led_event)
    lv_line_constructor                      0x9003d851   Thumb Code    26  lv_line.o(.text.lv_line_constructor)
    [Anonymous Symbol]                       0x9003d850   Section        0  lv_line.o(.text.lv_line_constructor)
    lv_line_event                            0x9003d871   Thumb Code   610  lv_line.o(.text.lv_line_event)
    [Anonymous Symbol]                       0x9003d870   Section        0  lv_line.o(.text.lv_line_event)
    [Anonymous Symbol]                       0x9003dad8   Section        0  lv_math.o(.text.lv_map)
    [Anonymous Symbol]                       0x9003db20   Section        0  lv_mem.o(.text.lv_mem_alloc)
    [Anonymous Symbol]                       0x9003db80   Section        0  lv_mem.o(.text.lv_mem_buf_free_all)
    [Anonymous Symbol]                       0x9003dbd8   Section        0  lv_mem.o(.text.lv_mem_buf_get)
    [Anonymous Symbol]                       0x9003ddd0   Section        0  lv_mem.o(.text.lv_mem_buf_release)
    [Anonymous Symbol]                       0x9003de88   Section        0  lv_mem.o(.text.lv_mem_free)
    [Anonymous Symbol]                       0x9003deb0   Section        0  lv_mem.o(.text.lv_mem_init)
    [Anonymous Symbol]                       0x9003ded0   Section        0  lv_mem.o(.text.lv_mem_realloc)
    lv_mem_walker                            0x9003df69   Thumb Code    36  lv_mem.o(.text.lv_mem_walker)
    [Anonymous Symbol]                       0x9003df68   Section        0  lv_mem.o(.text.lv_mem_walker)
    [Anonymous Symbol]                       0x9003df90   Section        0  lv_mem.o(.text.lv_memcpy)
    [Anonymous Symbol]                       0x9003e618   Section        0  lv_mem.o(.text.lv_memset)
    [Anonymous Symbol]                       0x9003e788   Section        0  lv_mem.o(.text.lv_memset_00)
    [Anonymous Symbol]                       0x9003e808   Section        0  lv_mem.o(.text.lv_memset_ff)
    lv_menu_back_event_cb                    0x9003e891   Thumb Code   164  lv_menu.o(.text.lv_menu_back_event_cb)
    [Anonymous Symbol]                       0x9003e890   Section        0  lv_menu.o(.text.lv_menu_back_event_cb)
    lv_menu_constructor                      0x9003e939   Thumb Code   324  lv_menu.o(.text.lv_menu_constructor)
    [Anonymous Symbol]                       0x9003e938   Section        0  lv_menu.o(.text.lv_menu_constructor)
    lv_menu_cont_constructor                 0x9003ea81   Thumb Code    36  lv_menu.o(.text.lv_menu_cont_constructor)
    [Anonymous Symbol]                       0x9003ea80   Section        0  lv_menu.o(.text.lv_menu_cont_constructor)
    lv_menu_destructor                       0x9003eaa9   Thumb Code     8  lv_menu.o(.text.lv_menu_destructor)
    [Anonymous Symbol]                       0x9003eaa8   Section        0  lv_menu.o(.text.lv_menu_destructor)
    lv_menu_page_constructor                 0x9003eab1   Thumb Code    52  lv_menu.o(.text.lv_menu_page_constructor)
    [Anonymous Symbol]                       0x9003eab0   Section        0  lv_menu.o(.text.lv_menu_page_constructor)
    lv_menu_page_destructor                  0x9003eae9   Thumb Code    22  lv_menu.o(.text.lv_menu_page_destructor)
    [Anonymous Symbol]                       0x9003eae8   Section        0  lv_menu.o(.text.lv_menu_page_destructor)
    lv_menu_refr_main_header_mode            0x9003eb01   Thumb Code   120  lv_menu.o(.text.lv_menu_refr_main_header_mode)
    [Anonymous Symbol]                       0x9003eb00   Section        0  lv_menu.o(.text.lv_menu_refr_main_header_mode)
    lv_menu_section_constructor              0x9003eb79   Thumb Code    24  lv_menu.o(.text.lv_menu_section_constructor)
    [Anonymous Symbol]                       0x9003eb78   Section        0  lv_menu.o(.text.lv_menu_section_constructor)
    [Anonymous Symbol]                       0x9003eb90   Section        0  lv_menu.o(.text.lv_menu_set_page)
    lv_menu_value_changed_event_cb           0x9003ec99   Thumb Code    90  lv_menu.o(.text.lv_menu_value_changed_event_cb)
    [Anonymous Symbol]                       0x9003ec98   Section        0  lv_menu.o(.text.lv_menu_value_changed_event_cb)
    lv_meter_constructor                     0x9003ecf9   Thumb Code    28  lv_meter.o(.text.lv_meter_constructor)
    [Anonymous Symbol]                       0x9003ecf8   Section        0  lv_meter.o(.text.lv_meter_constructor)
    lv_meter_destructor                      0x9003ed19   Thumb Code    24  lv_meter.o(.text.lv_meter_destructor)
    [Anonymous Symbol]                       0x9003ed18   Section        0  lv_meter.o(.text.lv_meter_destructor)
    lv_meter_event                           0x9003ed31   Thumb Code  2276  lv_meter.o(.text.lv_meter_event)
    [Anonymous Symbol]                       0x9003ed30   Section        0  lv_meter.o(.text.lv_meter_event)
    [Anonymous Symbol]                       0x9003f618   Section        0  lv_event.o(.text.lv_obj_add_event_cb)
    [Anonymous Symbol]                       0x9003f678   Section        0  lv_obj.o(.text.lv_obj_add_flag)
    [Anonymous Symbol]                       0x9003f6f8   Section        0  lv_obj.o(.text.lv_obj_add_state)
    [Anonymous Symbol]                       0x9003f708   Section        0  lv_obj_style.o(.text.lv_obj_add_style)
    [Anonymous Symbol]                       0x9003f8e8   Section        0  lv_obj_pos.o(.text.lv_obj_align)
    [Anonymous Symbol]                       0x9003f948   Section        0  lv_obj_pos.o(.text.lv_obj_align_to)
    [Anonymous Symbol]                       0x90040040   Section        0  lv_obj.o(.text.lv_obj_allocate_spec_attr)
    [Anonymous Symbol]                       0x90040088   Section        0  lv_obj_pos.o(.text.lv_obj_area_is_visible)
    [Anonymous Symbol]                       0x90040160   Section        0  lv_obj_draw.o(.text.lv_obj_calculate_ext_draw_size)
    [Anonymous Symbol]                       0x90040268   Section        0  lv_obj_style.o(.text.lv_obj_calculate_style_text_align)
    [Anonymous Symbol]                       0x90040290   Section        0  lv_obj.o(.text.lv_obj_check_type)
    [Anonymous Symbol]                       0x900402a8   Section        0  lv_obj_class.o(.text.lv_obj_class_create_obj)
    [Anonymous Symbol]                       0x900403c0   Section        0  lv_obj_class.o(.text.lv_obj_class_init_obj)
    [Anonymous Symbol]                       0x90040468   Section        0  lv_obj.o(.text.lv_obj_clear_flag)
    [Anonymous Symbol]                       0x900404e8   Section        0  lv_obj.o(.text.lv_obj_clear_state)
    lv_obj_construct                         0x900404f9   Thumb Code    38  lv_obj_class.o(.text.lv_obj_construct)
    [Anonymous Symbol]                       0x900404f8   Section        0  lv_obj_class.o(.text.lv_obj_construct)
    lv_obj_constructor                       0x90040521   Thumb Code   108  lv_obj.o(.text.lv_obj_constructor)
    [Anonymous Symbol]                       0x90040520   Section        0  lv_obj.o(.text.lv_obj_constructor)
    [Anonymous Symbol]                       0x90040590   Section        0  lv_obj.o(.text.lv_obj_create)
    [Anonymous Symbol]                       0x900405b0   Section        0  lv_obj_tree.o(.text.lv_obj_del)
    lv_obj_destructor                        0x900406c9   Thumb Code   110  lv_obj.o(.text.lv_obj_destructor)
    [Anonymous Symbol]                       0x900406c8   Section        0  lv_obj.o(.text.lv_obj_destructor)
    [Anonymous Symbol]                       0x90040738   Section        0  lv_obj_draw.o(.text.lv_obj_draw_dsc_init)
    [Anonymous Symbol]                       0x90040748   Section        0  lv_obj_style.o(.text.lv_obj_enable_style_refresh)
    lv_obj_event                             0x90040759   Thumb Code  2204  lv_obj.o(.text.lv_obj_event)
    [Anonymous Symbol]                       0x90040758   Section        0  lv_obj.o(.text.lv_obj_event)
    [Anonymous Symbol]                       0x90040ff8   Section        0  lv_event.o(.text.lv_obj_event_base)
    [Anonymous Symbol]                       0x90041040   Section        0  lv_obj_tree.o(.text.lv_obj_get_child)
    [Anonymous Symbol]                       0x90041060   Section        0  lv_obj_tree.o(.text.lv_obj_get_child_cnt)
    [Anonymous Symbol]                       0x90041070   Section        0  lv_obj_pos.o(.text.lv_obj_get_click_area)
    [Anonymous Symbol]                       0x900410b0   Section        0  lv_obj_pos.o(.text.lv_obj_get_content_coords)
    [Anonymous Symbol]                       0x90041120   Section        0  lv_obj_pos.o(.text.lv_obj_get_content_height)
    [Anonymous Symbol]                       0x90041160   Section        0  lv_obj_pos.o(.text.lv_obj_get_content_width)
    [Anonymous Symbol]                       0x900411a0   Section        0  lv_obj_pos.o(.text.lv_obj_get_coords)
    [Anonymous Symbol]                       0x900411b0   Section        0  lv_obj_tree.o(.text.lv_obj_get_disp)
    [Anonymous Symbol]                       0x90041248   Section        0  lv_obj.o(.text.lv_obj_get_group)
    [Anonymous Symbol]                       0x90041258   Section        0  lv_obj_pos.o(.text.lv_obj_get_height)
    [Anonymous Symbol]                       0x90041268   Section        0  lv_obj_tree.o(.text.lv_obj_get_index)
    [Anonymous Symbol]                       0x900412c8   Section        0  lv_obj_style.o(.text.lv_obj_get_local_style_prop)
    [Anonymous Symbol]                       0x90041358   Section        0  lv_obj_tree.o(.text.lv_obj_get_parent)
    [Anonymous Symbol]                       0x90041368   Section        0  lv_obj_tree.o(.text.lv_obj_get_screen)
    [Anonymous Symbol]                       0x90041390   Section        0  lv_obj_scroll.o(.text.lv_obj_get_scroll_bottom)
    [Anonymous Symbol]                       0x90041460   Section        0  lv_obj_scroll.o(.text.lv_obj_get_scroll_dir)
    [Anonymous Symbol]                       0x90041470   Section        0  lv_obj_scroll.o(.text.lv_obj_get_scroll_end)
    [Anonymous Symbol]                       0x900414d0   Section        0  lv_obj_scroll.o(.text.lv_obj_get_scroll_left)
    [Anonymous Symbol]                       0x900415d8   Section        0  lv_obj_scroll.o(.text.lv_obj_get_scroll_right)
    [Anonymous Symbol]                       0x900416c8   Section        0  lv_obj_scroll.o(.text.lv_obj_get_scroll_snap_x)
    [Anonymous Symbol]                       0x900416d8   Section        0  lv_obj_scroll.o(.text.lv_obj_get_scroll_snap_y)
    [Anonymous Symbol]                       0x900416e8   Section        0  lv_obj_scroll.o(.text.lv_obj_get_scroll_top)
    [Anonymous Symbol]                       0x90041700   Section        0  lv_obj_scroll.o(.text.lv_obj_get_scroll_x)
    [Anonymous Symbol]                       0x90041718   Section        0  lv_obj_scroll.o(.text.lv_obj_get_scroll_y)
    [Anonymous Symbol]                       0x90041730   Section        0  lv_obj_scroll.o(.text.lv_obj_get_scrollbar_area)
    [Anonymous Symbol]                       0x90041f50   Section        0  lv_obj_scroll.o(.text.lv_obj_get_scrollbar_mode)
    [Anonymous Symbol]                       0x90041f60   Section        0  lv_obj_pos.o(.text.lv_obj_get_self_height)
    [Anonymous Symbol]                       0x90041f80   Section        0  lv_obj_pos.o(.text.lv_obj_get_self_width)
